:020000040800F2
:1000000000000220E1050008DD050008214E00087F
:10001000DD050008DD050008DD0500080000000022
:10002000000000000000000000000000DD050008E6
:10003000DD05000800000000DD050008A54D0008F2
:10004000DD050008DD050008DD050008DD05000808
:10005000DD050008DD050008DD050008DD050008F8
:10006000DD050008DD050008DD050008BDDC000831
:10007000C9DC000859480008D5DC0008E1DC0008AC
:1000800011FC0008B1D10008DD050008DD050008FD
:10009000DD050008DD050008DD050008DD050008B8
:1000A000DD050008DD050008DD050008DD050008A8
:1000B00029F0000835F0000841F00008E5D10008FB
:1000C000DD050008F1D10008DD05000899E8000809
:1000D000A5E8000845FA000871FA0008A5FA00082A
:1000E000DD050008DD05000800000000DD05000852
:1000F000DD050008DD050008DD050008DD05000858
:10010000DD050008DD0500084DF00008B1E8000835
:10011000D9FA00080DFB0008DD050008DD05000820
:10012000DD050008DD050008D5E8000809E900083C
:1001300045FC0008DD050008DD050008DD050008B8
:1001400000000000000000000000000000000000AF
:10015000DD050008DD050008DD05000841FB00089D
:10016000FDD10008DD050008B54D0008D94D000897
:10017000DD050008FD4D0008DD050008DD0500086F
:10018000DD050008DD05000875FB0008A9FB000877
:10019000BDE80008C9E80008DD050008DD05000825
:1001A000DD050008DD050008DD050008DD050008A7
:1001B000A1D90008DD050008DD050008DD050008FF
:1001C000DD050008DD050008DD050008DD05000887
:1001D000DD050008DD050008DD050008DD05000877
:1001E000DD050008DD050008DD050008DD05000867
:1001F000DD050008DD050008DD050008DD05000857
:10020000DD050008DD050008DD050008DD05000846
:10021000DD050008DD050008DD050008DD05000836
:10022000DD050008DD050008DD0500080000000010
:10023000DD050008DD05000800000000DD05000800
:10024000DD050008DD050008DD050008DD05000806
:10025000DD050008DD050008DD050008DD050008F6
:10026000DD050008DD050008DD050008DD050008E6
:10027000DD050008DD050008DDFB000800000000CA
:10028000DD050008DD050008DD05000800000000B0
:0802900000000000DD0500087C
:1002980010B5054C237833B9044B13B10448AFF3B8
:1002A80000800123237010BD2004002400000000FA
:1002B800D84A010808B5034B1BB103490348AFF3FB
:1002C800008008BD0000000024040024D84A01086A
:1002D80053B94AB9002908BF00281CBF4FF0FF31A5
:1002E8004FF0FF3000F074B9ADF1080C6DE904CEA1
:1002F80000F006F8DDF804E0DDE9022304B07047F9
:100308002DE9F047089D04468E46002B4DD18A42C0
:10031800944669D9B2FA82F252B101FA02F3C2F1F3
:10032800200120FA01F10CFA02FC41EA030E944084
:100338004FEA1C48210CBEFBF8F61FFA8CF708FBA5
:1003480016E341EA034306FB07F199420AD91CEB7D
:10035800030306F1FF3080F01F81994240F21C81AF
:10036800023E63445B1AA4B2B3FBF8F008FB1033F7
:1003780044EA034400FB07F7A7420AD91CEB04042C
:1003880000F1FF3380F00A81A74240F207816444FC
:10039800023840EA0640E41B00261DB1D440002381
:1003A800C5E900433146BDE8F0878B4209D9002DE5
:1003B80000F0EF800026C5E9000130463146BDE86F
:1003C800F087B3FA83F6002E4AD18B4202D38242D9
:1003D80000F2F980841A61EB030301209E46002D88
:1003E800E0D0C5E9004EDDE702B9FFDEB2FA82F2DD
:1003F800002A40F09280A1EB0C014FEA1C471FFA3B
:100408008CFE0126200CB1FBF7F307FB131140EA21
:1004180001410EFB03F0884208D91CEB010103F1EE
:10042800FF3802D2884200F2CB804346091AA4B2B0
:10043800B1FBF7F007FB101144EA01440EFB00FE84
:10044800A64508D91CEB040400F1FF3102D2A645E9
:1004580000F2BB800846A4EB0E0440EA03409CE788
:10046800C6F12007B34022FA07FC4CEA030C20FA35
:1004780007F401FA06F31C43F9404FEA1C4900FA55
:1004880006F3B1FBF9F8200C1FFA8CFE09FB1811D2
:1004980040EA014108FB0EF0884202FA06F20BD945
:1004A8001CEB010108F1FF3A80F08880884240F295
:1004B8008580A8F102086144091AA4B2B1FBF9F0D9
:1004C80009FB101144EA014100FB0EFE8E4508D9D4
:1004D8001CEB010100F1FF346CD28E456AD9023859
:1004E800614440EA0840A0FB0294A1EB0E01A1423E
:1004F800C846A64656D353D05DB1B3EB080261EBAC
:100508000E0101FA07F722FA06F3F1401F43C5E985
:10051800007100263146BDE8F087C2F12003D840BB
:100528000CFA02FC21FA03F3914001434FEA1C47FD
:100538001FFA8CFEB3FBF7F007FB10360B0C43EAEF
:10054800064300FB0EF69E4204FA02F408D91CEB9F
:10055800030300F1FF382FD29E422DD9023863449D
:100568009B1B89B2B3FBF7F607FB163341EA03413D
:1005780006FB0EF38B4208D91CEB010106F1FF388C
:1005880016D28B4214D9023E6144C91A46EA004683
:1005980038E72E46284605E70646E3E61846F8E615
:1005A8004B45A9D2B9EB020864EB0C0E0138A3E75E
:1005B8004646EAE7204694E74046D1E7D0467BE73F
:1005C800023B614432E7304609E76444023842E7B7
:1005D800704700BFFEE700BF0B480C4A904203D0AB
:1005E800121A0B4914F090F80A480B4A904203D0AB
:1005F800121A002114F096F804F066FE14F060F860
:1006080000F05CFFFEE700BF000000241C0400248B
:10061800084B0108200400241C3B0024704700BF3D
:100628002DE9F04F2DED068B83B00092002A00F0E3
:100638005F8100258146B14CA846B14FB14E0D46A9
:10064800DFF84CA3DFF84CB3AC4803F0C5FCAE4B65
:10065800D4ED9B7AF7EE006A93ED007ADFEDAB5AA2
:1006680037EEC77A94ED736AA94B76EEC66A87EDC2
:10067800006AB4EEE57AC3ED007AA64BC6ED006ACF
:10068800F1EE10FAC4F8643206DCDFEDA36AB4EECA
:10069800E67AF1EE10FA0ED5B1EE000A9A4B9F48B1
:1006A800C3ED007A27EE800A994B20EE270A83EDE6
:1006B800000A03F07BF99A4B94EDA37AD3ED007A04
:1006C800DFED986A77EE677A974B83ED007AF4EE60
:1006D800E67AF1EE10FA06DCDFED946AF4EEE67ADB
:1006E800F1EE10FA0AD5B1EE000A8C4827EE000A9E
:1006F80003F034FA8C4B8A4A1B6813609FED8C8A8E
:10070800B7EE000AD4ED936AF0EE487A9FED897A45
:10071800894B8248E6EE877A70EE677AA7EEE70A99
:1007280083ED000A03F0B8FA844804F015FB28B1F9
:10073800834804F011FB002800F000847F4804F08F
:100748000BFB002800F07A847D4804F005FBB7EE27
:10075800000A94ED7B7ADFED7B7A7B4BA7EE270AC4
:100768006E4883ED000A03F0C9FAF3EE007A94EDBF
:100778008B7AB6EE000A754B6848A7EE270A83ED18
:10078800000A03F011FB724803F0A6FD714B724A90
:100798001B785A48137003F02BFC6E4B1870002816
:1007A80000F0B9836D4AD4ED837AD2ED000ADFED0B
:1007B8005D6A37EEE07A6A4BC4F80432B4EEE67A42
:1007C800684BC3ED007AF1EE10FA0AD5DFED666AE0
:1007D800B4EEE67AF1EE10FA03DDF0EE670AC2ED48
:1007E800007A624A1368013313600022604B1A6072
:1007F800D9F80030DFED5F7A03EB88035E4A47489B
:1008080093ED000A5D4B9FED5E9A83ED000A20EEA2
:10081800270AD9F8043003EB880320EE200A93ED69
:10082800007A67EE277A82ED007A67EEA00A02F076
:10083800B5FF524BD6ED007AD3ED008A474B3748C7
:1008480068EEA78A93ED00AA03F0C0FAD7ED007A04
:10085800494A60EE277A414B92ED008A96ED007A7C
:1008680067EE897A2D48D3ED009A28EE078AE8EEDC
:100878008A7ACAED007A03F0ADFAD7ED007A4FEA2A
:100888008801404B20EE270A1B6820EE090AA8EED3
:10089800290A8BED000A0B2B00F23683DFE813F0F0
:1008A800D80282024602E801AC018D012B01FD004D
:1008B8003403C10082000C000023324ADAED007ACA
:1008C80013602A686B680A440B442F49C2ED007A0A
:1008D800DBF800201A600B682C4A934200F3178358
:1008E80001330B6008F10108009B43457FF4ACAE6F
:1008F80003B0BDEC068BBDE8F08F00BF50040024A8
:100908003C0000241800002450070024ACC52737F9
:100918003800002417B7D138ACC527B754070024CE
:10092800480700240AD7233C3C0700240AD723BCE5
:10093800CDCCCC3DD95F663F1400002418070024B5
:100948001C0700240000C84238070024340700248C
:10095800F00600244004002440070024240000245A
:100968006F12833ADC0D0024CDCCCCBD3C040024AE
:1009780048040024F9E9003ED40D00242C07002483
:100988007D3F553F440400244C040024FFED020041
:1009980030070024D80D00249A99993F9A99593F15
:1009A8009A9959BF1FED047ADAED007A5FED056A6E
:1009B80020EE070A67EE877AF4EEE67AF1EE10FA8F
:1009C80000F339841FED0A7AF4EE477AF1EE10FA53
:1009D80048BFF0EE477A1FED0F7ACAED007AB4EE01
:1009E800C70AF1EE10FA00F312851FED137AB4EE80
:1009F800470AF1EE10FA48BFB0EE470ABB4BBC4AB3
:100A0800186813688BED000A834280F04C8201332A
:100A180001911360B74B93ED008AB74BB0EE480ACB
:100A2800AEE19FEDB67AF7EE006ADAED007A20EED5
:100A3800070A67EE877AF4EEE67AF1EE10FA40F3E9
:100A48000184F0EE667AB7EE007ACAED007AB4EE69
:100A5800C70AF1EE10FA40F3EB84B0EE470AA34B55
:100A6800A34A186813688BED000A834280F01B8242
:100A78000133019113609F4B93ED008A9E4BB0EEBA
:100A8800480A186803F08EFB9D4B9FED9E0A186874
:100A980003F088FBB0EE480A18E2DFED987AF7EE2B
:100AA800006A9AED007A20EE270A27EE277AB4EE3C
:100AB800E67AF1EE10FA40F3D083DFED937AB7EEE1
:100AC800007AB4EEC70AF1EE10FA40F3E8839FED1E
:100AD8008E7A864B864A18681368CAED007A834274
:100AE8008BED007A80F0DF81013301911360814B37
:100AF80093ED000ADEE1F3EE0B6ADFED807A9AED02
:100B0800007AB2EE026A20EE270A9FED805A27EE9D
:100B1800277AF0EE665AF0EE667A27EE064AF0EE8D
:100B2800664AE7EE075AE0EE007AE4EE074A20EE5E
:100B3800066A25EE877AE6EE006A27EE800AC7EE97
:100B4800247A80EE267AF4EEC57AF1EE10FA00F3F4
:100B58007683DFED6F6AF4EE667AF1EE10FA48BF3D
:100B6800F0EE667ADFED696ACAED007AB4EEE67AED
:100B7800F1EE10FA00F30984DFED656AB4EE667AE7
:100B8800F1EE10FA48BFB0EE667A584B584A18682A
:100B980013688BED007A834280F0858101339FEDE5
:100BA800590A01911360534A534B92ED008A186811
:100BB80003F0F8FAB0EE480AE7E0DAED007A9FEDC4
:100BC800557AF4EEC77AF1EE10FA40F3FD82DFEDC4
:100BD800527A9FED507AB4EEC70AF1EE10FA00F39C
:100BE80005839FED4E7AB4EEC70AF1EE10FA40F194
:100BF8002A849FED4B7AFBE2B7EE007ADAED007AB1
:100C0800F4EEC77AF1EE10FA40F36583DFED457A2A
:100C1800B7EE007AB4EEC70AF1EE10FA40F37F831C
:100C28009FED407A314B324A18681368CAED007A52
:100C380083428BED007A80F0368101339FED310AD3
:100C4800019113602B4A2C4B92ED008A186803F02F
:100C5800A9FAB0EE480A2A4B186803F0A3FA324AF8
:100C68009FED280A106803F09DFAB0EE480A33E1B8
:100C7800DAED007A9FED277AF4EEC77AF1EE10FAF2
:100C880000F39F829FED257AF4EE477AF1EE10FA91
:100C980048BFF0EE477A9FED1F7ACAED007AB4EEAE
:100CA800C70AF1EE10FA00F3AF839FED1C7AB4EE99
:100CB800470AF1EE10FA48BFB0EE470A0B4B0C4A50
:100CC800186813688BED000A834280F0EC800133CA
:100CD8009FED0C0A01911360064A074B92ED008ABA
:100CE800186803F05FFAB0EE480AE9E01C00002437
:100CF8004804002424000024040000249A99993F01
:100D08000800002400000000721C473F022B473FE8
:100D1800022B47BF9A99593F4B5A493F9A9959BF55
:100D28004B5A49BF4BA35A3F0C000024B7EE007A38
:100D3800DAED007AF4EEC77AF1EE10FA40F30C839C
:100D4800F0EE477AB7EE007ACAED007AB4EEC70A39
:100D5800F1EE10FA40F36283B0EE470A9F4BA04AC7
:100D6800186813688BED000A834280F09C80013379
:100D78009FED9C0A019113609B4A9C4B92ED008A5F
:100D8800186803F00FFA9FED970A994B186803F05B
:100D980009FA984AB0EE480A106803F003FAB0EE70
:100DA800480A99E0F3EE0B6ADAED007AB2EE026ACD
:100DB8009FED915AB0EE667A27EE864AF0EE664AC3
:100DC800A7EEA77AF0EE665AE7EE844A20EE066AA6
:100DD800E0EE005A27EE877AE0EE066AC7EE247A3C
:100DE80020EE250A80EE267AF4EEC57AF1EE10FAA6
:100DF80000F31E82DFED816AF4EE667AF1EE10FAF6
:100E080048BFF0EE667ADFED7C6ACAED007AB4EE90
:100E1800E67AF1EE10FA00F3FE82DFED786AB4EEBE
:100E2800667AF1EE10FA48BFB0EE667A6B4B6C4A00
:100E3800186813688BED007A834234D201339FED32
:100E4800690A01911360684A684B92ED008A18E6B6
:100E5800F3EE0B6ADAED007AB2EE026A5F4B604A93
:100E6800F0EE665A1868B0EE667A136867EE864A3E
:100E7800B0EE665A8342A7EEA77A20EE066AE0EE45
:100E8800005AA7EEA45AE0EE066A27EE877A20EE0B
:100E9800250AC7EE057A80EE267ACAED007A8BED30
:100EA800007AC0F063827FF40CAD01339FED4D0AE8
:100EB800019113604D4B186803F074F99FED490ACE
:100EC8004B4B186803F06EF99FED460A494A1068C3
:100ED80003F068F99FED430A4949086803F062F98D
:100EE800424B186803F06CF9414B186803F068F935
:100EF800404A106803F064F94149086803F060F952
:100F0800DAED007A0199DCE4DAED007AD9E43D4BB8
:100F180001221A70E6E43C4B1B68B3F5FA5F06D26F
:100F28003A4B1B781BB13A4A1368013313602E4BB6
:100F3800354AD3ED000A0023136059E4354803F01D
:100F48000BFF002800F0C980334803F005FF314843
:100F580003F002FF00283FF4FAAB2F4803F0FCFE31
:100F680000287FF4F4AB2D4B94ED837AD3ED007A0F
:100F78002B4A77EE677AC4F804222A4AF4EEC87A34
:100F880082ED007AF1EE10FA7FF5E1ABDFED266A2B
:100F9800F4EEE67AF1EE10FA7FF7D9AB9FED230A6B
:100FA800DFED237AA7EE400A224883ED007A30EE7F
:100FB800270A02F09BFE204B1A4A1B78002B3FF4AD
:100FC800C6AB0F4B92ED000A186803F0EBF80C4B18
:100FD800186803F0F5F8FFF7BABB00BF1C0000243F
:100FE8004804002400000000240000240400002419
:100FF800080000240C000024022B473F022B47BFA7
:1010080010000024E40D00243C04002440070024C0
:10101800440400242007002424070024300000246E
:101028006F12833A34000024CDCCCCBD00409C46DE
:1010380000005C415407002428000024D54803F030
:101048008BFE002800F08380D34803F085FED1484A
:1010580003F082FE00283FF47AABCF4803F07CFE11
:1010680000287FF474ABCD4B94ED837AD3ED007AEE
:10107800DFEDCB6A77EE677ACA4AC4F80422F4EE49
:10108800E67AC94A82ED007AF1EE10FA7FF55FAB95
:10109800DFEDC66AF4EEE67AF1EE10FA7FF757ABA9
:1010A800DFEDC37A9FEDC30AC348A7EE270A83ED95
:1010B800007A02F01FFEC14BBB4A1B78002B3FF49D
:1010C80046ABBF4B92ED000A186803F06BF8BC4BB7
:1010D800186803F075F8FFF73ABBBA4B94ED837ABA
:1010E800D3ED007AAF4A77EE677AC4F80422B64A9D
:1010F800F4EEC87A82ED007AF1EE10FA7FF527ABAC
:10110800DFEDAA6AF4EEE67AF1EE10FA7FF71FAB8C
:101118009FEDA70ADFEDA77AA7EE400AA64883ED60
:10112800007A30EE270A02F0A7FDA44BA64A1B78E6
:10113800002B3FF40CABA54B92ED000A186803F0A6
:1011480031F8A24B186803F03BF8FFF700BBA04B3F
:1011580094ED837AD3ED007ADFED916A77EE677AC2
:10116800904AC4F80422F4EEE67A9A4A82ED007AAC
:10117800F1EE10FA7FF5EBAADFED8C6AF4EEE67A71
:10118800F1EE10FA7FF7E3AADFED897A9FED890A7D
:101198008948A7EE270A83ED007A02F069FD874B9C
:1011A8008C4A1B78002B3FF4D2AA8B4B92ED000A95
:1011B800186802F0F7FF884B186803F001F8FFF78A
:1011C800C6BAF0EE477A66E59FED847AF4EEC77A00
:1011D800F1EE10FA40F14C819FED817ADFED817AD2
:1011E800B4EEC70AF1EE10FA7FF7FBAC9FED7E7AFA
:1011F8007E4B7F4A18681368CAED007A83428BEDEC
:10120800007ABFF450AE01339FED7A0A0191136062
:10121800714B794A186892ED008A02F0C3FF6B4B54
:10122800B0EE480A186802F0BDFFB0EE480A4DE675
:10123800F0EE457AE7E5F0EE667AFFF7CCBBF0EE24
:10124800457A8FE4BFEE007AF4EE477AF1EE10FAB1
:1012580048BFF0EE477AFFF7F6BBFFEE007AB4EE30
:10126800E77AF1EE10FA00F11D81F3EE0B7AB2EE97
:10127800026AF0EE675A27EE066AE7EE075AE7EECB
:10128800067A27EE257AF0EE676AC7EE267AB7EE79
:10129800007AB4EEC70AF1EE10FA3FF718ACBFEEC9
:1012A800007AB4EEC70AF1EE10FA00F10381B3EE4A
:1012B8000B7AB2EE026AF0EE475A20EE066AE0EECA
:1012C800005AA0EE067A20EE250AF0EE476A80EE74
:1012D800267AFFF7FEBBBFEE007AF4EEC77AF1EE8E
:1012E80010FA00F1DB80F3EE0B6A9FED447AB2EE60
:1012F800026A67EE877AB0EE667A27EE866AA7EE0C
:10130800A77AE7EE866A27EE877AC7EE267AB7EEDF
:10131800007AB4EEC70AF1EE10FA3FF781ACBFEEDF
:10132800007AB4EEC70AF1EE10FA00F1BF80F3EECE
:101338000B6A9FED327AB2EE026A20EE070AF0EEEF
:10134800665A20EE067AE0EE005AE0EE076A20EED2
:10135800250A80EE267A65E4BFEE007AF4EE477A35
:10136800F1EE10FA48BFF0EE477AEBE401339FED57
:10137800210A01911360184B1F4A186892ED008AE0
:1013880002F010FF9FED1B0A65E4B0EE667AFFF7E6
:10139800FCBB00BF20070024240700244C070024BE
:1013A800CDCCCC3D6F12833AD00D0024CDCCCCBD32
:1013B80000409C4600005C4154070024280000249B
:1013C8000C0000242C000024200000240800002425
:1013D8004407002428070024040000249A9959BFD0
:1013E8009A99593F4B5A49BF4B5A493F1C00002410
:1013F8004804002400000000240000249A99993F22
:101408004BA35ABF721C47BFB0EE470A56E4B0EE72
:10141800470AFFF7F3BAB0EE667A07E5BFEE007A3F
:10142800B4EE470AF1EE10FA48BFB0EE470A95E469
:10143800BFEE007AB4EE470AF1EE10FA48BFB0EEFC
:10144800470AFFF70CBBF3EE0B6A1FED147AB2EEF6
:10145800026A20EE070AF0EE665A20EE067AE0EEFF
:10146800005AE0EE076A20EE250A80EE267ABFE6EB
:10147800F3EE0B6A1FED1F7AB2EE026A67EE877A07
:10148800B0EE667A27EE866AA7EEA77AE7EE866A56
:1014980027EE877AC7EE267AFFF79BBB5FED287A9F
:1014A800FFF7B6BB5FED297AFFF709BB1FED2C7A72
:1014B800FFF7B8BB1FED2D7AFFF70BBB70B5454D95
:1014C8000121454C05F1400628462DED028B9FED84
:1014D800438A02F083FC3046DFED418AB0EE481AB9
:1014E800F0EE480AB0EE480A02F0B4FEB0EE481A30
:1014F800F0EE480A3046B0EE480A02F0ABFEB0EE15
:10150800481AF0EE480A3046B0EE480A02F0A2FE49
:10151800B0EE481AF0EE480A3046B0EE480A9FEDA1
:10152800318A02F097FE284602F06AFD9FED2E0AE6
:10153800204602F039FBB1EE000A204602F036FAE6
:101548009FED2A0A204602F009FBB0EE680A204601
:1015580002F08EFBB0EE480A204602F08DFB012116
:10156800204602F08DFB9FED220A204602F094FBF4
:101578009FED200A204602F0A9FBB0EE680A20463B
:1015880002F0B8FBB0EE480A204602F0AFFBB7EE17
:10159800000A204602F0B2FBB6EE000A204602F02E
:1015A80003FCB6EE000A204602F00CFC0121284696
:1015B80002F0EAFC0221284602F0F8FC0E4928460F
:1015C80002F0E0FC284602F003FD0020BDEC028B8F
:1015D80070BD00BF50040024540700240000000020
:1015E80000005C41805B9C460000FA46D7A3B03EF1
:1015F800FED4583F3333333F2906000810B5002383
:1016080011484FF60B74114A114903604361036294
:10161800C363C0E9AC43C0E9AE3312F097FF0D4B8A
:101628000D4AB1EE001AD3F800C0F3EE000A0B49D8
:101638000B4B12689FED0B0A0B48C1F800C01A60EB
:10164800BDE8104001F040BD500400240000002413
:101658002506000838000024240000245007002430
:10166800DC0D00240000FA465407002490ED080A17
:10167800D0ED076A90ED067A20EE260AD0ED007AC2
:10168800A7EE270A80ED080A80ED010A704700BF1F
:101698000023036003624360704700BF000000003E
:1016A800D0ED047AF4EE407AF1EE10FA00D17047EA
:1016B800B7EEC07A80ED040AD0ED036A9FED0C5BAB
:1016C80010B527EE050B0446B7EEE67A20EE070BB9
:1016D800B7EEC00B12F040FFF7EE007A84ED070A70
:1016E80077EEC07AC4ED067A10BD00BFAFF3008074
:1016F800182D4454FB2119C0F7EE004AB6EE005BE2
:10170800BFEE007B84EE806AB7EEC04AF0EE406A16
:1017180090ED040AA4EE057BC0ED026A80ED036A31
:10172800B7EEC77B80ED057AFFF7BABFF7EE004A40
:10173800DFED197AB6EE005BBFEE006B84EEA07A9F
:10174800B7EEE04A10B5A4EE056B04462DED028B0A
:10175800B0EE408AC0ED007AB0EE670AC0ED017ABB
:10176800C0ED047AC0ED067AB7EEC66BC0ED077A15
:10177800C0ED087AC0ED020A80ED037A80ED056AB3
:10178800FFF78EFFB0EE480A2046FFF789FF204694
:10179800BDEC028B10BD00BF0000000090ED097A7F
:1017A80090ED0B0AD0ED007A20EE070A90ED0A6A58
:1017B80090ED077AD0ED0C6AA7EE860AC0ED087A9C
:1017C800C0ED097AA6EE870A80ED060A80ED070AC1
:1017D80080ED010A704700BF002303604360036285
:1017E80043628361C3617047D0ED047AF4EE407AB6
:1017F800F1EE10FA00D17047B7EEC07A80ED040A16
:10180800D0ED036A9FED105B10B527EE050B04467B
:10181800B7EEE67A20EE070BB7EEC00B12F09CFE8F
:10182800F7EE007AB6EE007A84ED0C0A70EE277AAD
:1018380067EE877AB1EE677AC4ED0A7A84ED0B7A9F
:1018480010BD00BFAFF30080182D4454FB2119C010
:10185800B7EE006AB6EE005BB7EEE04AC6EE206A65
:10186800BFEE007B10B5A4EE057B04462DED028B80
:101878009FED228AF0EE408AC0ED020AB0EE480AD7
:1018880080ED008A80ED018AB7EEC77B80ED048A7F
:1018980080ED068A80ED078A80ED088A80ED098A46
:1018A80080ED0A8A80ED0B8A80ED0C8AC0ED036A10
:1018B80080ED057AFFF798FFB0EE680A204684EDC0
:1018C800008A84ED018A84ED088A84ED098A84ED12
:1018D800068A84ED078AFFF787FF84ED008A84ED86
:1018E800018A204684ED088A84ED098A84ED068AF7
:1018F80084ED078ABDEC028B10BD00BF000000001C
:10190800F7EE004AB6EE005BBFEE007B84EE806A1D
:10191800B7EEC04AF0EE406A90ED040AA4EE057BEB
:10192800C0ED026A10B5044680ED036AB7EEC77BC6
:1019380080ED057AFFF758FF002323606360236278
:101948006362A361E36110BD016A82681E4B30B413
:1019580003FB02131D4C056804EB830C436ACB1A86
:10196800CCF80050C56A0131002BC360D0ED0A5A8B
:10197800BCBF5B19C360A942A8BF00210162591E00
:1019880048BF4919104D05FB02F2016113440A448E
:101998000F4904EB830304EB82020978D3ED007A44
:1019A80007EE101AC0ED067AD2ED006AB8EEC77AD3
:1019B80036EEE76AC0ED076A30BCE5EE867A67EE78
:1019C800277AC0ED017A7047400D0300000000C07F
:1019D800E40D0024036A591A0029416102DAC36A36
:1019E8001944416182680448044B00FB021103EB6F
:1019F800810191ED000A7047400D0300000000C00E
:101A0800C36A07EE903AF8EEE77AF4EEC07AF1EEA0
:101A180010FA04D8013B00EE103AB8EEC00ADFED28
:101A2800077A80FE270AFDEEC07AB8EEE77AC0EDA5
:101A3800097A30EE470A80ED0A0A70470000000074
:101A4800DFED5A7AD0F8BC3180FE270AD0ED197A3A
:101A5800DFED575A03EE103A60EE277ADFED553A7C
:101A6800B8EEC33A9FED544A9FED546A67EEA55A03
:101A7800DFED534ADFED536A67EEA33A9FED525A02
:101A880027EE844AF4EEC35A9FED507A27EE866A11
:101A98004F4A67EEA44A80ED1B0A67EEA66AC2EDBC
:101AA800007A27EE855AC0ED083A27EE877AC0ED0E
:101AB800095AF1EE10FA80ED0A4A80ED0B6AC0ED82
:101AC8000C4AC0ED0D6A80ED0E5A80ED0F7A04DBEA
:101AD800013B07EE903AF8EEE75AD0F88832DFED8E
:101AE8003D7A05EE103AC5FEA75AFDEEE57AB8EE46
:101AF800C55AF8EEE74AC0ED6D7AB4EEC56A75EEE0
:101B0800E45AF1EE10FAC0ED6E5A04DB013B07EE21
:101B1800903AB8EEE76AD0F8FC32DFED2E7A05EE9F
:101B2800903A86FE276AFDEEC67AF8EEE55AB8EED8
:101B3800E75AC0EDA07AF4EEE56A36EE456AF1EEB2
:101B480010FA80EDA16A04DB013B07EE903AF8EE4B
:101B5800E76AD0F8C833DFED1F7A06EE103AC6FE02
:101B6800A76AFDEEE67AB8EEC66AF8EEE75AC0ED67
:101B7800BD7AB4EEC67A76EEE56AF1EE10FAC0EDFB
:101B8800BE6A04DB013B07EE903AB8EEE77ADFED78
:101B9800117A87FE277AFDEEC77AF8EEE76AC0ED7C
:101BA800F07A37EE667A80EDF17A704717B7D13858
:101BB80000288B45000028440000E1440080684567
:101BC8000000634400C883450000264500B0454531
:101BD800EC0D0024000000009FED5B7BB7EEC04ACF
:101BE800B4EEC74BF1EE10FA26D55B495B4A5C4B65
:101BF800C0F8A810C0F8AC20C0F8B0305649574A11
:101C0800574BC0F8D410C0F8D820C0F8DC3052497F
:101C1800524A534BC0F80011C0F80421C0F80831EB
:101C28004D4BDFED507A9FED507AC0F82C3180EDA6
:101C38004C7AC0ED4D7A70479FED453BB4EEC34BEF
:101C4800F1EE10FA39DDB4EEC74B4849484A494B22
:101C5800F1EE10FAC0F8A810C0F8AC20C0F8B03007
:101C6800CCD44249424A434BC0F8D410C0F8D820DB
:101C7800C0F8DC309FED347BB4EEC74BF1EE10FAC0
:101C8800C5D43A493A4A3B4BC0F80011C0F8042180
:101C9800C0F808319FED2C7BB4EEC74BF1EE10FA7B
:101CA800BED4324BDFED347A9FED347AC0F82C3154
:101CB80080ED4C7AC0ED4D7A7047B7EE002B80ED81
:101CC8002A0AF7EE006ABFEE001B32EE442BC6EE7E
:101CD800805A81EE026BB4EEC74BF1EE10FAC0EDFC
:101CE8002B5AB7EEC66B80ED2C6A87D4B4EEC34B83
:101CF800F1EE10FAB5DCB4EEC74B80ED350AC0ED55
:101D0800365A80ED376AF1EE10FA80D4B4EEC34B40
:101D1800F1EE10FAB5DCB4EEC74B80ED400AC0ED29
:101D2800415A80ED426AF1EE10FA3FF579AFB4EE10
:101D3800C34BF1EE10FAB4DCB0EE657A80ED4B0AD5
:101D4800F0EE467A73E700BF2D431CEBE2361A3FEC
:101D58002B8716D9CEF7EF3F17B7D13800401C466E
:101D6800470380BF470380BF00401C4677BE7F3FC4
:101D7800CD20803FD3007AC4D3007AC4CD20803FE1
:101D880010B52DED028BB0EE408A044600F5E070E8
:101D9800FFF786FC04F54070B0EE480ABDEC028BF4
:101DA800BDE81040FFF77CBC10B52DED028BB0EEFE
:101DB800408A044600F5F270FFF716FD04F54970F5
:101DC800B0EE480ABDEC028BBDE81040FFF70CBD31
:101DD80038B50446002500F5E070C4F84C51C4F845
:101DE8005051C4F88851C4F88C51C4F85451C4F8FF
:101DF8005851C4F89051C4F89451FFF749FC04F5C0
:101E0800F270FFF7E9FC04F54070C4F81852C4F802
:101E18001C52C4F85452C4F85852C4F82052C4F89A
:101E28002452C4F85C52C4F86052C4F88C52C4F806
:101E38009052C4F8C852C4F8CC52C4F89452C4F8AA
:101E48009852C4F8D052C4F8D452FFF721FC04F5D4
:101E58004970FFF7C1FC04F57370C4F85853C4F80F
:101E68005C53C4F89453C4F89853C4F86053C4F846
:101E78006453C4F89C53C4F8A053FFF7ADFC04F5B1
:101E88008060FFF7A9FCC4F84451C4F8485138BD34
:101E9800014600F1580351F8402F2DE9F047054657
:101EA800144608462DED0C8B9EB050F8046FB442D2
:101EB800B8BF34468342F8D107EE904A95ED1A7AB6
:101EC80095ED07DA0846B8EEE7CADFEDE67AD5ED14
:101ED80019CAE54EA7EE27CA346014463CEE0DCA6F
:101EE8002CEE2CCABDEECCCA50F8047FBC42B8BF59
:101EF8003C468342F8D107EE904A346008461446BF
:101F0800F8EEE7BADFEDD97AE7EE27BA7BEE8DBABD
:101F18006BEEACBAFDEEEBBA50F8047FBC42B8BF2A
:101F28003C468342F8D107EE904A3460084614468E
:101F3800B8EEE7BADFEDCE7AA7EE27BA3BEE0DBAD8
:101F48002BEE2CBABDEECBBA50F8047FBC42B8BF1A
:101F58003C468342F8D107EE904A3460084614465E
:101F6800F8EEE7AADFEDC37AE7EE27AA7AEE8DAAA4
:101F78006AEEACAAFDEEEAAA50F8047FBC42B8BFEC
:101F88003C468342F8D107EE904A3460084614462E
:101F9800B8EEE7AADFEDB87AA7EE27AA3AEE0DAABF
:101FA8002AEE2CAABDEECAAA50F8047FBC42B8BFDC
:101FB8003C468342F8D107EE904A346008461446FE
:101FC800F8EEE79ADFEDAD7AE7EE279A79EE8D9A8B
:101FD80069EEAC9AFDEEE99A50F8047FBC42B8BFAE
:101FE8003C468342F8D107EE904A3460B8EEE79A4F
:101FF800DFEDA37AA7EE279A39EE0D9A29EE2C9AEF
:10200800BDEEC99A51F8040F8242B8BF02468B420E
:10201800F8D107EE902ADFED9B6ADFF87092002472
:10202800F8EEE77A9FED988AD9F800304FF4007AF5
:10203800B0EE480A0FA8E7EE267A013332600DF1B8
:10204800040814940FAFC9F800300DAE11938DED4C
:102058000F8AF0EE678A8DED108A8DED158A8DED69
:10206800168A8DED198ACDF868A0CDE91244CDE91C
:102078001744FFF7C5FCD9F80030B0EE480A4046CF
:10208800013306948DED0CCAC9F8003003938DED29
:102098000D8A8DED0E8A8DED1C8A8DED1D8A8DEDD4
:1020A8000F8A8DED108A8DED018A8DED028A8DEDF6
:1020B800078A8DED088A8DED0B8ACDE90444CDE9B8
:1020C8000944FFF79DFCB8E80F000FC7B8E80F00F8
:1020D8000FC798E80F0087E80F004422314605F53E
:1020E800A6708DED1B8A12F00FFBD9F80030B0EE08
:1020F800480A304601331294CDED18BAC9F80030B9
:102108000F938DED0D8A8DED0E8A8DED138A8DED71
:10211800148A8DED178ACDE91044CDE91544FFF7EF
:102128006FFC05F5C87CB0EE480A0FCEACE80F008E
:102138000FCEACE80F0096E80F00CDE912448CE80A
:102148000F0014940FA88DED0F8A8DED108A8DED78
:10215800158A8DED168ACDE91744D9F800308DED32
:10216800198A0133CDF868A0C9F800301193FFF738
:1021780047FCD9F80030B0EE480A01A806940133AC
:102188008DED0CBA8DED0D8AC9F8003003938DEDF5
:102198000E8A8DED1C8A8DED1D8A8DED0F8A8DEDD1
:1021A800108A8DED018A8DED028A8DED078A8DEDFD
:1021B800088A8DED0B8ACDE90444CDE90944FFF77F
:1021C8001FFC0DF1040E0DF13C0CBEE80F00ACE84D
:1021D8000F00BEE80F00ACE80F0098E80F0087E892
:1021E8000F000DA9442205F506708DED1B8A12F02B
:1021F8008BFAD9F80030B0EE480A0DA801331294D2
:10220800CDED18AAC9F800300F938DED0D8A8DED2C
:102218000E8A8DED138A8DED148A8DED178ACDE91E
:102228001044CDE91544FFF7EBFB0DF1340E05F52D
:10223800177CB0EE480ABEE80F00ACE80F00BEE815
:102248000F00ACE80F0096E80F00CDE912448CE8C7
:102258000F0014940FA88DED0F8A8DED108A8DED67
:10226800158A15E000002844E80D002400288B4555
:102278000000E144008068450000634400C88345CD
:102288000000264500B0454500000000E00D002490
:102298008DED168ACDE91744D9F800308DED198AED
:1022A8000133CDF868A0C9F800301193FFF7A8FBF7
:1022B800D9F80030B0EE480A01A8069401338DED34
:1022C8000CAA8DED0D8AC9F8003003938DED0E8AA6
:1022D8008DED1C8A8DED1D8A8DED0F8A8DED108A8E
:1022E8008DED018A8DED028A8DED078A8DED088AC4
:1022F8008DED0B8ACDE90444CDE90944FFF780FB55
:102308000DF1040E0DF13C0CBEE80F00ACE80F0017
:10231800BEE80F00ACE80F0098E80F0087E80F0050
:102328000DA9442205F523708DED1B8A12F0ECF9F6
:10233800D9F80030B0EE480A0DA801331294CDED5B
:10234800189AC9F800300F938DED0D8A8DED0E8A1D
:102358008DED138A8DED148A8DED178ACDE9104421
:10236800CDE91544FFF74CFB0DF1340E05F5347C2F
:10237800B0EE480ABEE80F00ACE80F00BEE80F0058
:10238800ACE80F0096E80F00CDE912448CE80F0086
:1023980014940FA88DED0F8A8DED108A8DED158A96
:1023A8008DED168ACDE91744D9F80030CDF868A02C
:1023B80001338DED198AC9F800301193FFF720FB1E
:1023C800D9F80030B0EE480A01A8069401338DED23
:1023D8000C9A8DED0D8AC9F8003003938DED0E8AA5
:1023E8008DED1C8A8DED1D8A8DED0F8A8DED108A7D
:1023F8008DED018A8DED028A8DED078A8DED088AB3
:102408008DED0B8ACDE90444CDE90944FFF7F8FACC
:102418000DF1040E0DF13C0CBEE80F00ACE80F0006
:10242800BEE80F00ACE80F0098E80F0087E80F003F
:102438000DA9442205F556708DED1B8A12F064F93A
:1024480078EE8D7AD9F800300DAF0DA8B0EE480AB5
:1024580067EEAC7A01331094C9F80030FDEEE77AE4
:102468000F938DED0D8A8DED0E8A8DED138A8DED0E
:10247800148A8DED178ACDED187ACDE91144CDE98E
:102488001544FFF7BDFA05F567740FCF0FC40FCFDA
:102498000FC496E80F0084E80F001EB0BDEC0C8B4B
:1024A800BDE8F087D0ED177AB7EE007AF4EEC07A7F
:1024B80010B5F1EE10FA044658BFF0EE407AF4EE8B
:1024C800C77AF1EE10FA35D49FED1E6AC7EE276A77
:1024D80087EE867A84ED197A04F57370C4ED187A5C
:1024E800C4ED236AB0EE670AFFF70AFA94ED180AFA
:1024F80004F58060FFF704FA94ED197A231F04F1BC
:102508001802D3ED017A0433F8EEE77A934267EEC6
:10251800877AFDEEE77AC3ED107AF2D1204694ED82
:102528001B0AFFF78DFAFFF7B3FC2046BDE8104001
:10253800FFF74EBCF0EE476A9FED037AF0EE667A3D
:10254800C8E700BF0082E846D2EE0C382DE9F84F04
:10255800F44F044600F5737A00F580698446F7EE77
:10256800007AB8EE007A0025B6EE006ADFF8F4E3E8
:10257800F0EE006ADFEDEC1A9FEDEC2A4FF0010B4C
:10258800DFEDEB2A4FF400789FEDEA3ADFEDEA3A07
:102598009FEDEA4ADFEDEA4A9FEDEA5ADFEDEA5A93
:1025A800EA4E0FCF2DED068B9FEDE98AB0EE609ACB
:1025B800DFEDE88AF0EE409ADFEDE70AB0EE480A70
:1025C8009FEDE6AAACE80F0097E807008CE8070043
:1025D800C4ED1B7A04F5AA70C4ED0A1A84ED0B2A1F
:1025E800C4ED0C2A84ED0D3AC4ED0E3A84ED0F4A81
:1025F800C4ED194A84ED1A1AC4ED090A84ED08AA33
:1026080084ED078AC4ED178AC4ED188A84ED1C8A04
:1026180084ED1D8A84ED1E8AC4ED217AC4ED247AE6
:10262800C4ED297A84ED2C7AC4ED347A84ED377AB6
:1026380084ED225AC4ED235AC4F8A0E0C4F8B8E0E7
:1026480084ED2A6AC4ED2B6AC4F8CCE0C4F8E4E04F
:1026580084ED356AC4ED366AC4F8F8E084ED1F8A63
:1026680084F8805084F8BCB084F8E8B084F814B1D9
:1026780084ED258A84ED268AC4ED278A84ED2D8A87
:1026880084ED308A84ED318AC4ED328A84ED388A4B
:1026980084ED3B8A84ED3C8AC4ED3D8A3368C4ED01
:1026A8003F7A5B44C4ED4A7A84ED427A84ED4D7AF0
:1026B800C4F810E184ED406A84ED4B6AC4ED416AC8
:1026C800C4ED4C6AC4F824E1C4F83CE1C4F85C31B8
:1026D80084ED438A84F840B184ED468A84ED478AC4
:1026E800C4ED488A84ED4E8A84ED518A84ED528A7D
:1026F80084ED558A84ED568AC4F8685184ED5B8A66
:1027080084ED5C8A84ED5F8AC4F88081C4E95855F9
:10271800C4E95D553360FFF773F93368B0EE480AD2
:1027280004F5C87084ED538A5B4484ED548A84EDC3
:10273800628AC4F8983184ED638A84ED558A84ED01
:10274800568A84ED618A84ED648A84ED658AC4F8CA
:10275800A45184ED6A8A84ED6B8A84ED6E8AC4F88C
:10276800BC813360C4E96755C4E96C55FFF748F983
:10277800F0EE680A9FED7A0A04F5E070FEF7D6FFDE
:10278800F0EE680AB2EE040A04F5F270FFF760F89A
:102798003368B0EE480A04F508705B4484ED888A13
:1027A80084ED898AC4F82832C4F8345284ED8E8ABC
:1027B80084ED8F8A84ED928AC4F84C823360C4E930
:1027C8008B55C4E99055FFF71BF93368B0EE480AFA
:1027D80004F517705B4484ED868A84ED878AC4F813
:1027E800643284ED958A84ED968A84ED888A84ED36
:1027F800898A84ED948A84ED978A84ED988AC4F84E
:10280800705284ED9D8A84ED9E8A84EDA18AC4F875
:1028180088823360C4E99A55C4E99F55FFF7F0F8F8
:102828003368B0EE480A04F525705B4484EDA58A48
:1028380084EDA68AC4F89C32C4F8A85284EDAB8A09
:1028480084EDAC8A84EDAF8AC4F8C0823360C4E9F1
:10285800A855C4E9AD55FFF7D3F83368B0EE480A78
:1028680004F534705B4484EDA38A84EDA48AC4F82B
:10287800D83284EDB28A84EDB38A84EDA58A84EDDA
:10288800A68A84EDB18A84EDB48A84EDB58AC4F849
:10289800E45284EDBA8A84EDBB8A84EDBE8AC4F81A
:1028A800FC823360C4E9B755C4E9BC55FFF7A8F802
:1028B800F0EE680A9FED2A0A04F54070FEF736FF2D
:1028C800F0EE680AB2EE040A04F54970FEF7C0FF9C
:1028D8003368B0EE480A04F558705B4484EDD88A32
:1028E80084EDD98AC4F86833C4F8745384EDDE8A59
:1028F80084EDDF8A84EDE28AC4F88C833360C4E90E
:10290800DB55C4E9E055FFF77BF83368B0EE480AB9
:1029180004F567705B44C4F8C88384EDD68AC4F8AC
:10292800A43329E03C4701080000E14400806845E1
:102938000000634400C883450000264500B04545B3
:102948003AA1893F6F12033B0000803CE00D002450
:10295800000000000000FA4600288B4500002844CB
:102968000042AC466F120338CDCCCC3D9A99193E43
:102978008FC2F53DEC51383E84EDD78A84EDE58A67
:1029880084EDE68A84EDD88A84EDD98A84EDE48AD8
:1029980084EDE78A84EDE88AC4F8B05384EDED8AC3
:1029A80084EDEE8A84EDF18A3360C4E9EA55C4E91E
:1029B800EF55FFF725F8B2EE040AF0EE680A504624
:1029C800FEF746FFF0EE680AB2EE040A4846FEF744
:1029D8003FFFB0EE690A204684ED079AFFF762FDD3
:1029E800B3EE040A5046FEF7FFFEB3EE040A48466B
:1029F800FEF7FAFE5FED247A94ED297AB4EE677A51
:102A0800F1EE10FA07D094ED287AC4ED297A67EE32
:102A1800277AC4ED2E7A5FED2B7A94ED347AB4EEF2
:102A2800677AF1EE10FA07D094ED337AC4ED347A70
:102A380067EE277AC4ED397A5FED337A94ED3F7A01
:102A4800B4EE677AF1EE10FA07D094ED3E7AC4ED51
:102A58003F7A67EE277AC4ED447A5FED3A7A94EDCF
:102A68004A7AB4EE677AF1EE10FA07D094ED497A13
:102A7800C4ED4A7A67EE277AC4ED4F7A4FF07A5060
:102A88004FF07C534FF080414FF04042C4F8C000F3
:102A98004FF07D50C4F8EC30C4F818012046C4F853
:102AA800A830C4F8AC10C4F8B020C4F8D430C4F8C6
:102AB800D810C4F8DC20C4F80031C4F80411C4F8F4
:102AC8000821C4F82C31C4F83011C4F83421BDEC05
:102AD800068BBDE8F88F00BFB7EE007AD0ED2D7AEF
:102AE80010B5F4EEC77A044600F5AA70F1EE10FAB4
:102AF80040F3F18077EEC77A94ED2A7A0123F4EE59
:102B0800C77A84F8BC30C4ED2D7AF1EE10FA80F261
:102B1800DA80D4ED2B6A67EEA66AB0EE005A94ED1F
:102B28002E6ABFEE007AD4ED1F5A76EE277A94ED1E
:102B3800080AA6EE857AC4ED2D7AA5EE870A84EDFB
:102B4800267AFEF75DFFB7EE007AD4ED387A04F501
:102B58000870F4EEC77AF1EE10FA40F3D68077EEFB
:102B6800C77A94ED357A0123F4EEC77A84F8E83011
:102B7800C4ED387AF1EE10FA80F29D80D4ED366A11
:102B880067EEA66AB0EE005A94ED396ABFEE007A95
:102B9800D4ED1F5A76EE277A94ED0A0AA6EE857AC6
:102BA800C4ED387AA5EE870A84ED317AFEF728FF5E
:102BB800B7EE007AD4ED437A04F52570F4EEC77ABF
:102BC800F1EE10FA40F3948077EEC77A94ED407AEC
:102BD8000123B4EEE77A84F81431C4ED437AF1EEB8
:102BE80010FA60D9D4ED416A67EEA66AB0EE005AD1
:102BF80094ED446ABFEE007AD4ED1F5A76EE277A38
:102C080094ED0C0AA6EE857AC4ED437AA5EE870A00
:102C180084ED3C7AFEF7F4FEB7EE007AD4ED4E7AF6
:102C280004F55870F4EEC77AF1EE10FA15DD77EE78
:102C3800C77A94ED4B7A0123F4EEC77A84F84031D1
:102C4800C4ED4E7AF1EE10FA12DB002384F840311D
:102C5800D4ED4D6AD6EEA76A0EE094ED4B7AF4EE09
:102C6800C77AF1EE10FAF0DA94F84031002BEFD081
:102C7800D4ED4C6A67EEA66AB0EE005A94ED4F6A3E
:102C8800BFEE007AD4ED1F5A76EE277A94ED0E0A3D
:102C9800A6EE857AC4ED4E7AA5EE870A84ED477ACA
:102CA800FEF7AEFE10BD002384F81431D4ED426A5D
:102CB800D6EEA76A9AE7002384F8E830D4ED376A9D
:102CC800D6EEA76A5EE7002384F8BC30D4ED2C6A00
:102CD800D6EEA76A21E794ED2A7AF4EEC77AF1EEE8
:102CE80010FAF0DA94F8BC30002B7FF412AFEDE75D
:102CF80094ED407AF4EEC77AF1EE10FAD3DA94F84C
:102D08001431002B7FF46EAFD0E794ED357AF4EEF2
:102D1800C77AF1EE10FACEDA94F8E830002B7FF497
:102D28002DAFCBE72DE9F04F04462DED088B83B08E
:102D3800B0EE408AB0EE609ACDE90012FFF7CCFE03
:102D480094F88030002B40F0B181636F94ED510A04
:102D580004F5AA7094ED527A04F5C87638EE000AA4
:102D6800D4ED616A77EE090AD4ED567AA367B7EE17
:102D7800009BB0EE407A84ED510AC4ED520A04F586
:102D8800087984ED530A04F51778A7EEA67A04F5B6
:102D9800347704F5677A04F58065B6EE008AE6EEC6
:102DA800C77A84ED627A84ED557AC4ED547AFEF7D9
:102DB800CBFDD4F850313046C4F89031FEF7C4FD4D
:102DC800D4F8943104F5E070C4F8C031FEF74EFC35
:102DD80004F5F27084ED790A94ED21AA94ED65BAB0
:102DE800FEF7DCFC94ED217AB7EECAAAB7EECBBAAF
:102DF80094ED945A20EE070A94ED1E7A39EE4AAB08
:102E0800D4ED895AB7EEC76A4846B7EEC07AABEE3A
:102E18000A7B26EE077BB7EEC77BF0EE477A84ED98
:102E2800867AE5EE857AE5EE675AC4ED957AC4EDC3
:102E3800887AC4ED875AFEF787FDD4F81C324046DD
:102E4800C4F85C32FEF780FDD4EDB16AD4ED527A55
:102E580004F5257094EDA67AC4EDA37AE7EE267AF8
:102E6800A6EEE77AC4EDB27AC4EDA57A84EDA47A29
:102E7800FEF76AFDD4F890323846C4F8D032FEF72F
:102E880063FDD4F8D43204F54070C4F80033FEF77B
:102E9800EDFB94ED217A04F5497084EDC90AB7EE8B
:102EA800C77A94EDB5AAB7EECAAA39EE479BFEF7E2
:102EB80075FC94ED217A04F5587294EDE45A20EEED
:102EC800070A94ED1E7AD4EDD95A1046B7EEC76AB0
:102ED8009346B7EEC07AAAEE097B26EE077BB7EEDB
:102EE800C77BF0EE477A84EDD67AE5EE857AE5EE93
:102EF800675AC4EDE57AC4EDD87AC4EDD75AFEF71F
:102F080023FDD4F85C135046C4F89C13FEF71CFD4F
:102F1800D4ED1E6A94ED987A3046D4EDE87A27EE1F
:102F2800267AD4F8501167EEA67AC4F8CC1384ED4B
:102F3800527A216CC4ED517AFEF74CFDD4EDF37A48
:102F4800616C304637EE800A84EDF30AFEF742FDE5
:102F5800D4EDF37AA16C484637EE800A84EDF30A83
:102F6800FEF738FDD4EDF37AE16C404637EEC00A3F
:102F780084EDF30AFEF72EFDD4EDF37A216D384681
:102F880037EE800A84EDF30AFEF724FDD4EDF37AD8
:102F9800616D584637EEC00A84EDF30AFEF71AFD54
:102FA800D4EDF37AA16D504637EEC00A84EDF30AEA
:102FB800FEF710FDD4EDF37AD4F89012384637EEC8
:102FC800C00A84EDF30A2960216CFEF703FDD5EDF4
:102FD800007A3846616C37EE800A85ED000AFEF704
:102FE800F9FCD5ED007A5846A16C37EE800A85EDDC
:102FF800000AFEF7EFFCD5ED007A5046E16C37EE9B
:10300800C00A85ED000AFEF7E5FCD5ED007A3046EA
:10301800216D37EE800A85ED000AFEF7DBFCD5ED61
:10302800007A4846616D37EEC00A85ED000AFEF762
:10303800D1FCD5ED007AA16D404637EEC00A85ED8A
:10304800000AFEF7C7FCD5ED007A04F5737037EE79
:10305800C00A85ED000AFEF7A1FB20EE080A009BD6
:10306800284683ED000AFEF799FB20EE080A019B2B
:1030780083ED000AD4ED236A94ED247AD4ED217A05
:10308800E6EE877AF5EEC07AF1EE10FA11D4B7EED3
:10309800007AF4EE477AF1EE10FA77FE277AC4ED5B
:1030A800217A03B0BDEC088BBDE8F08F4FF07E535A
:1030B8004CE6DFED047AC4ED217A03B0BDEC088B51
:1030C800BDE8F08F000000004FF07E534FF07D51B7
:1030D800E44A2DE9F04F044600F1440BE24E4FF468
:1030E800007804F1780A04F1AC0704F582792DED33
:1030F800048B9FEDDE8AA5B0DFEDDD8AB0EE409A45
:103108000163F0EE609ADB49F0EE680AC362B2EE42
:10311800040AC363D84B8163426380ED008AC0ED23
:10312800018A80ED038A80ED048A80ED058A80EDAE
:10313800068A80ED078A80ED0A8A58462362636210
:10314800CE4B84ED108AA3608DED021AFEF780FB4A
:1031580004F1D003F0EE680AB2EE040A50461D46A8
:10316800FEF776FBF0EE680A9FEDC50A3846FEF7D3
:10317800DDFAF0EE680AB2EE040A28460195FEF779
:1031880067FB33680025B0EE480A48460133C4F8A7
:10319800185184ED418AC4F80C3184ED428A84EDDB
:1031A800478A84ED488A84ED4B8AC4F830813360BD
:1031B800C4E94455C4E94955FEF722FC3368B0EE2A
:1031C800480A04F59E700133C4F8505184ED4F8AC3
:1031D800C4F8443184ED508A84ED558A84ED568ACA
:1031E80084ED598AC4F868813360C4E95255C4E94A
:1031F8005755FEF705FC3368B0EE480A04F5C07071
:103208000133C4F8945184ED4D8AC4F8883184EDB3
:103218004E8A84ED5C8A84ED5D8A84ED4F8A84ED64
:10322800508A84ED5B8A84ED608A84ED618A84ED3E
:10323800668A84ED678A84ED6A8AC4F8AC81336053
:10324800C4E96355C4E96855FEF7DAFB3368B0EEA4
:10325800480A04F5E2700133C4F8D85184ED5E8A57
:10326800C4F8CC3184ED5F8A84ED6D8A84ED6E8A72
:1032780084ED608A84ED618A84ED6C8A84ED718ABC
:1032880084ED728A84ED778A84ED788A84ED7B8A6E
:10329800C4F8F0813360C4E97455C4E97955FEF780
:1032A800AFFB3368B0EE480A04F502700133C4F886
:1032B8001C5284ED6F8AC4F8103284ED708A84ED54
:1032C8007E8A84ED7F8A84ED718A84ED728A84ED2A
:1032D8007D8A84ED828A84ED838A84ED888A84EDF0
:1032E800898A84ED8C8AC4F834823360C4E98555B0
:1032F800C4E98A55FEF784FB9DED021AF0EE690ACF
:1033080004F51170B0EE490A84ED808A84ED818A53
:1033180084ED8F8A84ED908A84ED828A84ED838A95
:1033280084ED8E8AFFF712F99FED567A3368B0EE76
:10333800480AC9EE077A189501338DED138A8DED89
:10334800148A3360159304F5CF638DED198A83EDE4
:10335800008A4D4B84ED019A1E9313AB8DED1A8AAA
:1033680018468DED1D8ACDE91655CDE91B55C4EDDE
:10337800027AFEF745FB04F59A7304F5BC7204F56E
:10338800DE7102930DF14C0E04EB080303920491D5
:10339800CC460593F0EE680A9FED3C0A4FF04409CD
:1033A800BEE80F00ACE80F00BEE80F00ACE80F0065
:1033B8009EE80F008CE80F000DF14C0C6046FEF7FC
:1033C800B5F90DF14C0CF0EE680AB0EE480ABCE80D
:1033D8000F000FC7BCE80F000FC7DCF800300DF175
:1033E8004C0C3B606046FEF733FA0DF14C0C019F24
:1033F800B0EE480AD4ED028A94ED0C9ABCE80F00AE
:103408000FC7BCE80F000FC7BCE80F000FC7DCF8F8
:1034180000308DED158A3B6015AF8DED168A384664
:1034280007AFCDE9185533681A9501338DED1B8A1E
:103438008DED1C8A336017938DED1F8ACDF880803F
:10344800CDE91D55FEF7DCFA9FED110ADFED117A83
:10345800384628EE800A336868EEA78A0C9501334F
:1034680026E000BF0000203FE00D0024000000001F
:103478000000FA4672F97F3F00401C463AA1893F96
:103488000042AC460082E8460AEE020000E0AB4685
:1034980000000D4300008D440000D6420000564451
:1034A8000080BD4300803D4500808A4300800A4576
:1034B8008DED138ABDEEC00A8DED148AFDEEE88A03
:1034C80033600993B8EE400A8DED228ACDED128A59
:1034D8008DED238A8DED158A8DED168A8DED078A7F
:1034E8008DED088A8DED0D8A8DED0E8A8DED118A90
:1034F800CDE90A55CDE90F55FEF782FABC4615AF5E
:10350800BCE80F000FC7BCE80F000FC79CE80F000E
:1035180087E80F004A4613A9029815AF8DED219A46
:1035280011F0F2F83368B0EE480A3846D4ED028A52
:10353800013394ED0C9A1A9507AF336017938DED0C
:10354800158A8DED168A8DED1B8A8DED1C8A8DED01
:103558001F8ACDF88080CDE91855CDE91D55FEF7B5
:103568004FFA1FED330A5FED337A384628EE800AAA
:10357800336868EEA78A0C9501338DED138ABDEE8A
:10358800C00A8DED148AFDEEE88A33600993B8EE1F
:10359800400A8DED228ACDED128A8DED238A8DEDBC
:1035A800158A8DED168A8DED078A8DED088A8DEDC9
:1035B8000D8A8DED0E8A8DED118ACDE90A55CDE97A
:1035C8000F55FEF71DFABC4615AFBCE80F000FC734
:1035D800BCE80F000FC79CE80F0087E80F0013A98D
:1035E8004A46039815AF8DED219A11F08DF833688E
:1035F80015AAB0EE480AD4ED028A0133104694EDBC
:103608000D9A1A95336017938DED158A8DED168AEC
:103618008DED1B8A8DED1C8A8DED1F8ACDF880807B
:10362800CDE91855CDE91D55FEF7EAF91FED640AF5
:103638005FED647A07AA28EE800A336868EEA78AE5
:10364800104601330C95BDEEC00A8DED138AFDEED0
:10365800E88A33600993B8EE400A8DED148ACDEDFF
:10366800128A8DED228A8DED238A8DED158A8DEDD6
:10367800168A8DED078A8DED088A8DED0D8A8DED00
:103688000E8A8DED118ACDE90A55CDE90F55FEF761
:10369800B7F90DF11C0CBCE80F000FC7BCE80F0010
:1036A8000FC79CE80F0087E80F0013A94A46049843
:1036B8008DED219A11F028F8336815AAB0EE480A62
:1036C800D4ED028A01331046676B1A95336017935D
:1036D800CDF880808DED158A8DED168A8DED1B8ACB
:1036E8008DED1C8A8DED1F8ACDE91855CDE91D5544
:1036F800FEF786F91FED940A5FED947A07AA28EE83
:10370800800A336868EEA78A104601330C95BDEE2F
:10371800C00A8DED138AFDEEE88A336007AE09937F
:10372800B8EE400A8DED148A8DED228A8DED238A3C
:103738008DED158A8DED168A8DED078A8DED088A37
:103748008DED0D8A8DED0E8A8DED118ACDED128AE3
:10375800CDE90A55CDE90F55FEF752F915AD0FCE53
:103768000FC50FCE0FC596E80F0085E80F004A4633
:1037780013A90598219710F0C7FF5846B3EE040A1D
:10378800FEF732F85046B3EE040AFEF72DF820464D
:1037980025B0BDEC048BBDE8F08F00BFF0EE407A99
:1037A80090ED080A70B5044600F1AC0600F1D005AA
:1037B8002DED028BC0ED117A3046C4ED1E0AFDF7DF
:1037C8006FFF94ED070A2846FEF70EF804F144004F
:1037D800FDF7E4FFB0EE408A04F17800FDF7DEFF64
:1037E800304638EE000A84ED2B0AFDF73FFF2846E5
:1037F80084ED340AFDF7D2FFD4F8D43004F5827092
:10380800434DC4F80431FEF79FF8D4ED5B6AD4ED5C
:10381800427A04F59E7094ED507AC4ED4D7AE7EE45
:10382800267AA6EEE77AC4ED5C7AC4ED4F7A84ED89
:103838004E7AFEF789F8D4ED6C6AD4ED4E7A04F529
:10384800C07094ED617AC4ED5E7AE7EE267AA6EE52
:10385800E77AC4ED6D7AC4ED607A84ED5F7AFEF79D
:1038680073F8D4ED7D6AD4ED5F7A04F5E27094EDD7
:10387800727AC4ED6F7AE7EE267AA6EEE77AC4ED9F
:103888007E7AC4ED717A84ED707AFEF75DF8D4ED36
:103898008E6AD4ED707A04F5027094ED837AC4EDE3
:1038A800807AE7EE267AA6EEE77AC4ED8F7AC4ED41
:1038B800827A84ED817AFEF747F8D4ED814A94ED57
:1038C800107AB7EE006B94ED425A04F5CF63B7EE69
:1038D800C73A04F1140227EE247A04F11801B7EE6E
:1038E800C55A04F5117036EE436BC5ED004AB7EEC4
:1038F800C77ABDEC028BA5EE067BBDE87040F7EEFB
:10390800C70BB0EE600AC3ED000AFFF70BBA00BFA1
:10391800F00D002410B504464430FDF75DFF04F1B6
:103928007800FDF759FF04F1AC00FDF7B1FE04F192
:10393800D000FDF751FF002304F51170C4F80431DD
:10394800C4F80831C4F83431C4F83831C4F87031D7
:10395800C4F87431C4F83C31C4F84031C4F8783143
:10396800C4F87C31C4F8B431C4F8B831C4F8803133
:10397800C4F88431C4F8BC31C4F8C031C4F8F83193
:10398800C4F8FC31C4F8C431C4F8C831C4F80032F2
:10399800C4F80432C4F83C32C4F84032C4F80832DF
:1039A800C4F80C32BDE81040FEF712BADFED607AB9
:1039B800D0F8003480FE270AD0EDAA7ADFED5D5AF0
:1039C80003EE103A60EE277ADFED5B3AB8EEC33AC1
:1039D8009FED5A4A9FED5A6A67EEA55ADFED594A9C
:1039E800DFED596A67EEA33A9FED585A27EE844AED
:1039F800F4EEC35A9FED567A27EE866A554A67EE6B
:103A0800A44A80EDAC0A67EEA66AC2ED007A27EEFA
:103A1800855AC0ED993A27EE877AC0ED9A5AF1EEA9
:103A280010FA80ED9B4A80ED9C6AC0ED9D4AC0ED7E
:103A38009E6A80ED9F5A80EDA07A04DB013B07EE79
:103A4800903AF8EEE75AD0F8CC34DFED437A05EE39
:103A5800103AC5FEA75AFDEEE57AB8EEC55AF8EE5B
:103A6800E74AC0EDFE7AB4EEC56A75EEE45AF1EEA7
:103A780010FAC0EDFF5A04DB013B07EE903AB8EEAE
:103A8800E76AD0F8403500F59462DFED337A05EE49
:103A9800903A86FE276AFDEEC67AF8EEE55AB8EE49
:103AA800E75A17EE901AF4EEE56AC0F8C41436EE39
:103AB800456AF1EE10FA82ED0A6A04DB013B07EE73
:103AC800903AF8EEE76AD0F80C3600F21452DFEDBF
:103AD800227A06EE103AC6FEA76AFDEEE67AB8EE3E
:103AE800C66AF8EEE75A17EE901AB4EEC67AC0F82E
:103AF800381576EEE56AF1EE10FAC2ED0A6A04DBD3
:103B0800013B07EE903AB8EEE77ADFED137A00F55D
:103B1800BC6387FE277AFDEEC77AF8EEE76A17EEF0
:103B2800902AC0F8042637EE667A83ED0A7A704741
:103B380017B7D13800288B45000028440000E1441D
:103B4800008068450000634400C88345000026459E
:103B580000B04545EC0D002400000000D0ED017ACE
:103B6800D0F8303120EE270A07EE903AF8EEE77ADF
:103B7800B4EEE70AF1EE10FA04DB013B00EE103A6E
:103B8800B8EEC00ADFED077A80FE270AFDEEC07A9C
:103B9800B8EEE77AC0ED4A7A30EE470A80ED4B0A74
:103BA800704700BF0000000010B5044600F5117012
:103BB80084ED010AFEF776FCD4ED016A9FED277AC1
:103BC800204694ED000AC6EE877AC4ED027AFFF724
:103BD800C5FF94ED020ADFED227A04F59E7020EE0F
:103BE800270AFDF70DFF94ED020ADFED1E7A04F5B2
:103BF800C07020EE270AFDF703FF94ED020ADFEDFF
:103C08001A7A04F5E27020EE270AFDF7F9FEDFEDD7
:103C1800177A94ED020A04F5027020EE270AFDF7E0
:103C2800EFFE94ED010A04F14400FDF769FE94EDFE
:103C3800010A04F17800FDF763FE94ED010A04F12E
:103C4800AC00FDF759FD04F1D00094ED010AFDF731
:103C580057FE2046BDE81040FFF75CBE0082E846EC
:103C680000000D430000D6420080BD4300808A4317
:103C780080ED070A704700BF80ED080A704700BF53
:103C8800F7EE007A9FED037A002947FE277AC0ED08
:103C9800107A704700000000F7EE007A80ED0E0AF7
:103CA800B4EEE70AF1EE10FA04DDB0EE670A80ED33
:103CB800AE0A7047B5EEC00AF1EE10FAF7D59FEDDF
:103CC800020A80EDAE0A70470000000000F25C4175
:103CD80000F59A6200F29C5380EDF20A81ED0E0A1B
:103CE80082ED0E0A83ED0E0A704700BF00F51170D1
:103CF800FEF746B800F51170FEF756B8DFED267AE4
:103D080090EDBA7A60EE277AF4EE477AF1EE10FA7F
:103D180007D090EDB97AC0EDBA7A67EE277AC0ED90
:103D2800BF7ADFED1E7A90EDC57A60EE277AF4EE61
:103D3800477AF1EE10FA07D090EDC47AC0EDC57A53
:103D480067EE277AC0EDCA7ADFED157A90EDD07A62
:103D580060EE277AF4EE477AF1EE10FA07D090ED8C
:103D6800CF7AC0EDD07A67EE277AC0EDD57A9FED8D
:103D78000D7AD0EDDB7A20EE070AB4EE670AF1EE91
:103D880010FA07D0D0EDDA7A80EDDB0A27EE800A48
:103D980080EDE00A704700BFCDCCCC3D9A99193E22
:103DA8008FC2F53DEC51383EF3EE007A90EDAA7AD9
:103DB80080EDAD0A60EE277A67EE877AC0EDB07ABB
:103DC800704700BF00F51170FDF706BF90ED060AB9
:103DD800704700BF90ED050A704700BF2DE9F0431A
:103DE80004462DED028BB5B0039107F0EFFD039962
:103DF800204607F0F3FE302120460DF1CE0707F0EC
:103E08000BFE204607F004FE2046B0EE408A07F07D
:103E18001FFE504A07EE900A4F490DF1400C0A92D6
:103E280002F17D424D4BF8EE677A02F201429FEDB6
:103E38004C0A664614ADC8EE278ACDE90B124949EB
:103E4800494ACDE90D12494A0F9240F60172ADF880
:103E580014200FCBACE80700059904F52870ACF8DE
:103E6800003000F01FFA424B012204F52C7019684B
:103E780000F05CF93F4B04F53270C4F8C83200F02A
:103E88008FFE3D4B04F53370C4F8CC3200F088FE49
:103E980040F6023304F53470A4F8D0324FF480733E
:103EA800A4F8D23200F07CFE344B04F53570C4F827
:103EB800D43200F075FE36F8023B2846123502224D
:103EC800ADF81830069900F035FAAF42F3D104F195
:103ED8001807042314A90722384604F5E0760025BC
:103EE8009FED278A00F03AFAE9B23846013500F02A
:103EF80059FCF0EE480A0146B0EE680A3046002345
:103F0800012200F091F8072D06F12006ECD10CAE45
:103F18000AAD0EAF4034B1464FF0010835F8021B28
:103F2800204636F8022B603437F8023BADF81C10F7
:103F3800ADF82020ADF824300799CDF80080DDE9F0
:103F4800082300F05FF9A945E8D135B0BDEC028B34
:103F5800BDE8F083010501090000010E584701087A
:103F680000000000030B060902080108010702000F
:103F78009C470108020C000103020001010C00012A
:103F88006F12033B07F024BD70B5054607F044FDEA
:103F980005F5E07405F52876284607F05FFD20460C
:103FA800203400F097F8B442F6D170BD70B50546DC
:103FB80007F012FD05F5E07405F52876284607F0A8
:103FC8004DFD2046203400F085F8B442F6D170BD8E
:103FD800183000F0D1BB00BF38B500F5E07400F52B
:103FE80028752046203400F051F8AC42F9D138BD8C
:103FF80090F8AA02A0F1FF00B0FA80F040097047DB
:1040080010B50446403000F03FF904F1A00000F07C
:104018003BF904F5807000F037F904F5B070BDE89D
:10402800104000F031B900BFF6EE007A9FED166A35
:1040380020EE207A0160F7EE006A80ED036A80EDD9
:10404800020A27EE277AC6EE877AF4EEE67AF1EED0
:1040580010FA11DDF0EE667A4FF07E514FF0000C49
:1040680002760022C0ED017AC0F814C001614376DF
:104078008276C0ED070A7047F4EEC67AF1EE10FAC0
:10408800EAD5F0EE467AE7E7000000000268037E12
:10409800128807EE902AFBEEC87A1BB1B7EE007AB9
:1040A80077EE677AD0ED056A90ED047A77EEE67AD6
:1040B800437E67EE877A0BB1F1EE677A90ED030ADB
:1040C80090ED017A77EEC07AA7EE270A80ED030A11
:1040D800704700BF837E80ED020AABB9D0ED077A46
:1040E80027EE800AF6EE007AB7EE007A20EE270A6D
:1040F800C7EE007AF4EEC77AF1EE10FA07DDF0EEBB
:10410800477AC0ED017A7047DFED067AE8E7F5EE09
:10411800C07AF1EE10FAF4D5DFED037AC0ED017A3A
:10412800704700BF6F12033B0000000070B584B0F9
:10413800002504461646ADF80C102B462A4603996E
:10414800009500F031FCA582A67504B070BD00BFD3
:1041580030B52DED028B83B0044601231B30ADF83A
:1041680004101546BDF80410B0EE408A018063774C
:1041780000F016FDB7EE007AB5FA85F300220021AB
:104188002576C7EE087A5B09A16084ED048AA576D6
:104198006376C4E90022C4ED057A03B0BDEC028B56
:1041A80030BD00BFDFED057A80ED020A60EE277AA8
:1041B800FCEEE77AC0ED017A704700BF00FF7F4749
:1041C800D0ED037AB7EE007A90ED056A0346DFED8D
:1041D8000C6AE6EE267AF4EEC77AF1EE10FAC8BF5A
:1041E80077EEC77A90ED027AB4EEE77AC0ED037AFB
:1041F8001B30F1EE10FACCBF597E997E00F0BABDA3
:104208000000F04230B585B004469FED110A9DF8D4
:104218002050ADF80C100399ADF808202A46ADF8E7
:1042280004308DED000AFFF793FF9DED000A2A4642
:10423800029904F12000FFF78BFF9DED000A2A4642
:10424800019904F1400005B0BDE83040FFF780BF98
:1042580000007A4410B52DED028BF0EE608A04461A
:10426800B0EE418AFFF79EFF04F12000B0EE680A25
:10427800FFF798FFB0EE480A04F14000BDEC028B4E
:10428800BDE81040FFF78EBF10B50446FFF798FF52
:1042980004F12000FFF794FF04F14000BDE810404E
:1042A800FFF78EBF70B5044682B0C1F30726CDB2C2
:1042B800ADF8041000F020FE4FF480724FF0012397
:1042C8002060A01DA571A280E671A36002B0BDE8C0
:1042D800704000F065BC00BF38B5044600F00CFE25
:1042E800002223682271834210D00122A57AE37A42
:1042F800954020602271A01D6DB243B900F02CFDDD
:1043080040B22843C0B27F28A0720AD038BD00F05E
:1043180023FDB0FA80F040092843C0B27F28A0727C
:10432800F4D100F0E9FD07EE900AF8EE677AC4EDE3
:10433800037A38BD00B583B04FF0000E4FF0030C80
:104348004274ADF80410BDF8043080F810E0A0F80D
:1043580002C0038003B05DF804FB00BF2DE9F04FF5
:10436800DFF81C8300258DB0C04C037008F14003B2
:104378004260074601920E46202229464046C4F86C
:104388006831C4F86481CDE90255CDE90455CDE919
:104398000655CDE90855CDE90A5510F0C3F9202294
:1043A800294604F5A170C4F83151C4F83551C4F850
:1043B8003951C4F83D5110F0B5F9019B84F84852C1
:1043C80084F830317A68002A6AD02B4604F598714F
:1043D800454606F1100A9E46F01856F803B0E21852
:1043E8000EF1010ED0F80CC0D0F80490D0F8088077
:1043F80044F803B0C2F80CC04FF0000CC2F80490A7
:10440800C2F80880008A25F802CB10821AF8032027
:1044180001F8012F002A70D07A684FF0010012339A
:10442800724584F84802D7D84FF4802290489DF806
:10443800043008214FF000084FF00009C4F8843117
:104448000023C4E95B020122C4F8743184F8803186
:10445800C4E95E2194F84812C4E96489A9B3C4F890
:104468009821002284F8813184F888313B78C4E9A6
:104478006722002B38D0012200200121013B84F85B
:10448800A421C4E96C01082B30D8DFE813F0BD0083
:10449800C200C700CC00D100D600DB00E100E80074
:1044A8009DF804300121C4F87421C4F884314FF414
:1044B800802384F880216E4AC4E95B230823002204
:1044C800C4E95E130023C4E964230123002284F8AD
:1044D8008131002384F888310323C4F898313B786C
:1044E800C4E96722002BC6D184F8A431614801F0E1
:1044F8007FFD034638B1FFBEFEE77A681233724586
:104508003FF66AAF90E702A95A48029301F0CEFE3F
:104518008246002876D1042240F2FF710A90CDE944
:10452800081294F83021002A00F0F3804FF00608B2
:104538000AEBCA034FEACA0904EB43035B7C072B67
:1045480007D8DFE803F0595C5653504D4A04072357
:1045580007930FFA8AF6D14406EBC60604EB49091D
:1045680004EB46077500384600F01AFB99F810303E
:10457800042B00F3AA80022B00F3BD8000F0B98061
:1045880004EB0A03002283F8202114F81630002BCC
:1045980078D0022B00F08A80012B40F0B2807B7823
:1045A800012B00F0B080002B334B18BF002305A966
:1045B8003048CDE9053801F047F9002840F0AC80D3
:1045C8000AF1010A94F830315FFA8AFA534540F249
:1045D800A0802A4B53F82A80AAE706230793B8E756
:1045E80005230793B5E704230793B2E7032307934B
:1045F800AFE702230793ACE700230793A9E701235A
:104608000793A6E7FFBEFEE703224023C4E96A2317
:104618006CE707226023C4E96A2367E70F22802337
:10462800C4E96A2362E71F22A023C4E96A235DE77D
:104638003F22C023C4E96A2358E77F22E023C4E964
:104648006A2353E7FF224FF48073C4E96A234DE7D6
:1046580040F2FF124FF49073C4E96A2346E740F230
:10466800FF324FF4A073C4E96A233FE7F80D002432
:1046780000200240640F00240002B025A047010872
:10468800000000307B78062B37D0072B3DD0022B5B
:104698004AD0032B4AD0002B4CD0012B48D0042BF6
:1046A8004AD0052B254B18BF002380E77B78042BC5
:1046B80025D0052B2BD08BB3012B31D0022B31D039
:1046C800032B1F4B18BF002371E70323043504EBAA
:1046D8000A0B4FF0000925448BF82031284609F1D0
:1046E800010900F05DFA9BF8203104354B45F5DCF3
:1046F8004BE70123EAE70223E8E7124B57E7124B9F
:1047080055E7002353E7114B51E7114B4FE7114B86
:104718004DE70DB0BDE8F08FFFBEFEE70E4B46E754
:104728000E4B44E70E4B42E70E4B40E70E4B3EE77D
:104738000E4B3CE70E4B3AE70E4B38E70000B84FFC
:10474800002090360800900C1000C0102000F014D3
:104758008000501D000180210004002A0008302E2E
:10476800001060320040C03A0080F03E000052471E
:10477800000021430000844B38B5094C40F2FF7219
:104788004FF0011104F5B675284601F03DFD94F887
:104798003021D4F864112846BDE8384001F0A8BAA1
:1047A800F80D0024034B0F29D3F8640198BF00EBE0
:1047B80041007047F80D0024214B02689A4200D04E
:1047C8007047204A00232048D2F8D81030B51F4C33
:1047D80041F0200183B0C4F8D001092004F5E87540
:1047E800C4E975034FF48060C2F8D810D2F8D82015
:1047F8004FF40061C4E9773094F8480202F02002CF
:10480800C4F8E4114FF40051984201922846C4F8C4
:10481800E811C4E97C33019B14BF00234FF4807373
:10482800C4F8EC3101F068FF08B1FFBEFEE704F5FB
:10483800B673C4F8B851C4F8083203B030BD00BF2D
:10484800002002400044025840000240F80D0024B5
:10485800014802F0C9BA00BFC80F002402682DE958
:10486800F84F4B4B9A4201D0BDE8F88F494D95F867
:104878004832002BF8D095F83031002B77D000243F
:1048880005F10C0905F5A17605F59877A04613E022
:1048980003F0010117F811BCA9F1080000F06AFA49
:1048A800BBF1010F25D895F83031013409F112090F
:1048B8000236A2B293422BD917F8012F002AF4D05E
:1048C800D5F864310021327833F81400D5F868310E
:1048D80003EB041323F81200338801339BB23380AF
:1048E8005FFA83FA3A789A42D2D88A46A6F80080C4
:1048F800D0E7CAF34001A9F1040000F03BFABBF18C
:10490800020FCAF38001CED0484600F033FACAE756
:10491800002395F84802204909229842C5F8D83161
:104928004FF48060C5F8D011C5F8D4214FF4006168
:104938004FF40052C5F8DC3108BF4FF48073C5F856
:10494800E821C5E9780100221448C5E97B32C5F899
:10495800F42101F0D1FE08B1FFBEFEE795F8302141
:10496800D5F864110E48BDE8F84F01F0C1B90A49FD
:1049780009224FF48060C5F8D831C5E974124FF4A4
:1049880000614FF40052C5E97730C5E97912DAE7DA
:1049980000200240F80D002440000240C80F002407
:1049A800640F0024704700BF10B592B0ADF8041032
:1049B8000180C9B2149C0B29C460C0E901233FD00F
:1049C80090F801C0BCF10F0F3AD8022A3FD0032A51
:1049D80002D0012A00D000220E92012B02D0022B15
:1049E80018BF0023022C0F932CD0032C2AD0012CA3
:1049F80028D000230A29109327D85C4A02EB812289
:104A080002610A2914D8DFE801F0A39587796B5D64
:104A18004F4133250600564BD3F8E01041F480612E
:104A2800C3F8E010D3F8E03003F480630C930C9BD8
:104A380001230DA9104603FA0CF30D9302F026FD8D
:104A480012B010BD0A291094D7D90022D8E7112234
:104A58000E92C2E7464BD3F8E01041F40071C3F858
:104A6800E010D3F8E03003F400730B930B9BDFE7FF
:104A78003F4BD3F8E01041F48071C3F8E010D3F84D
:104A8800E03003F480730A930A9BD1E7384BD3F8DC
:104A9800E01041F08001C3F8E010D3F8E03003F0F3
:104AA80080030993099BC3E7314BD3F8E01041F029
:104AB8004001C3F8E010D3F8E03003F04003089356
:104AC800089BB5E72A4BD3F8E01041F02001C3F862
:104AD800E010D3F8E03003F020030793079BA7E723
:104AE800234BD3F8E01041F01001C3F8E010D3F8DD
:104AF800E03003F010030693069B99E71C4BD3F8AC
:104B0800E01041F00801C3F8E010D3F8E03003F0FA
:104B180008030593059B8BE7154BD3F8E01041F08C
:104B28000401C3F8E010D3F8E03003F00403049361
:104B3800049B7DE70E4BD3F8E01041F00201C3F867
:104B4800E010D3F8E03003F002030393039B6FE710
:104B5800074BD3F8E01041F00101C3F8E010D3F897
:104B6800E03003F001030293029B61E70000025862
:104B78000044025808B5012143780069994089B278
:104B880002F08CFE003818BF012008BD01230A4638
:104B98004178006903FA01F189B202F085BE00BFCD
:104BA8008378022B30B504468FB037D0032B33D02F
:104BB800012B31D000230A93E378012B2AD0022B52
:104BC80028D000230B93002320460C9300F0B6FC5A
:104BD8000546204600F0BAFC23780990082B13D824
:104BE800DFE803F01F3245586B7E91A40500594B4E
:104BF800D3F8E02042F48072C3F8E020D3F8E03024
:104C080003F480730893089B09A9284602F03EFC28
:104C18000FB030BD0B93D6E70A93CDE711230A9363
:104C2800CAE74C4B09A92846D3F8E02042F0010214
:104C3800C3F8E020D3F8E03003F001030093009BB1
:104C480002F024FC0FB030BD424B09A92846D3F826
:104C5800E02042F00202C3F8E020D3F8E03003F08D
:104C680002030193019B02F011FC0FB030BD394BD8
:104C780009A92846D3F8E02042F00402C3F8E0204E
:104C8800D3F8E03003F004030293029B02F0FEFB2A
:104C98000FB030BD2F4B09A92846D3F8E02042F0C9
:104CA8000802C3F8E020D3F8E03003F008030393C8
:104CB800039B02F0EBFB0FB030BD264B09A9284639
:104CC800D3F8E02042F01002C3F8E020D3F8E03037
:104CD80003F010030493049B02F0D8FB0FB030BD1F
:104CE8001C4B09A92846D3F8E02042F02002C3F85B
:104CF800E020D3F8E03003F020030593059B02F091
:104D0800C5FB0FB030BD134B09A92846D3F8E020E6
:104D180042F04002C3F8E020D3F8E03003F040034B
:104D28000693069B02F0B2FB0FB030BD094B09A9F0
:104D38002846D3F8E02042F08002C3F8E020D3F8F8
:104D4800E03003F080030793079B02F09FFB0FB04E
:104D580030BD00BF0044025838B5054600F0EEFBF0
:104D68000446284600F0F2FB01462046BDE83840DC
:104D780002F094BD70B506460D4600F0DFFB044610
:104D8800304600F0E3FB2A1E0146204618BF0122E8
:104D9800BDE8704002F088BD704700BF08B500F05C
:104DA800DDFCBDE8084001F0BDBB00BF064808B502
:104DB80003680BB102F07CFD044803681BB1BDE831
:104DC800084003F049B908BD5014002448100024D5
:104DD800064808B503680BB102F06AFD0448036889
:104DE8001BB1BDE8084003F037B908BD50140024D2
:104DF80048100024064808B503680BB102F058FDB6
:104E0800044803681BB1BDE8084003F025B908BD94
:104E18005014002448100024364BDA6A520062D538
:104E28009A6A9A6A9A6A9B6A180600D500BE314B3C
:104E38009B6A990600D500BE2E4B9B6ADA0600D500
:104E480000BE2C4B9B6A1B0700D500BE294B9B6AF2
:104E5800980700D500BE274B9B6AD90700D500BE2E
:104E6800244B9B6A1A0400D500BE224B9B6A9B0404
:104E780000D500BE1F4B9B6AD80400D500BE1D4B51
:104E88009B6A190500D500BE1A4B9B6A5A0500D5C6
:104E980000BE184B9B6A9B0500D500BE154B9B6A4C
:104EA800D80500D500BE134B9B6A990100D500BEFA
:104EB800104B9B6ADA0100D500BE0E4B9B6A1B03A0
:104EC80000D500BE0B4B9B6A580300D500BE094BAA
:104ED8009B6A990300D500BE064B9B6ADA0306D489
:104EE80000BE00BEFEE7DB6A9B07FAD5F8E700BE06
:104EF800F6E700BF00ED00E000F03CBC00F040BC6D
:104F08000A4B9B6803F17843B3F5003F0BD3084B7A
:104F1800986848B19868012806D09868022803D094
:104F28009B68032070470120704700BF00ED00E038
:104F3800000080382DE9F041CEB004464C22002113
:104F48000AA80FF0EFFB2022002102A80FF0EAFBCD
:104F5800BC2200211EA80FF0E5FB022003F0F0FCA4
:104F68002368012B4FF0000354D0534A02250193C4
:104F7800C820D16A514B21F00101D162D26A02F0F6
:104F8800010201929A6942F440429A619B6903F4D2
:104F980040430193019B494A93699B04FCD54849C6
:104FA8000224002201268B6A04274FF0080823F008
:104FB800030323438B62052316900AA818934FF422
:104FC80080331096179419941597CDF86880CDE919
:104FD8001B222122CDE91344CDE90A2303F0DEFC8C
:104FE80000B1FEE73F220323294602A8CDE90223A8
:104FF80000220823CDE9042340224023CDE90623DB
:1050080040234FF48062CDE9082303F0F5FF0346FF
:10501800B8B1FEE7294A04250093F0209169264B90
:1050280041F440419161926902F440420092DA6A87
:1050380042F00102DA62DB6A03F001030093009B8D
:10504800A9E720224FF4805125934FF440152B9265
:1050580080222D931EA83093269135914FF48071AC
:10506800249234920C223394439140F227112092D7
:105078001022CDF884802A971F96CDE92E34CDE9E9
:105088003B334FF48033CDE92246319300244693D5
:105098000623CDE93E4527934FF48063094C2C93B2
:1050A8001E94CDE9281204F003FA00B1FEE703F0DC
:1050B8006DFC4EB0BDE8F08100040058004802586D
:1050C800004402580F130F0370B584B0012401F097
:1050D800D7F94FF480764FF04052194B68460025B7
:1050E800ADF800400396CDE9012301F0E7F9192254
:1050F8004FF0404368468DF8082001938DF80F4023
:10510800ADF80D608DF801408DF80A5001F0D6F920
:1051180002230B2268468DF80F508DF801304FF0AE
:1051280062538DF808200193ADF80D408DF80A40C0
:1051380001F0C4F9042001F0B1F904B070BD00BF5A
:105148000E00010330B50D46044685B0D1E90001D3
:1051580084E8030000F0D2FAAB79A3B30AF0EEFEBC
:1051680007F0E6FF09F054FB0AF0E0FB2B798BBB54
:105178006B799BB1BFF34F8FBFF36F8F2A4B002220
:10518800C3F85022BFF34F8FBFF36F8F5A6942F4B1
:1051980000325A61BFF34F8FBFF36F8F4FF0FF326A
:1051A8000023002400256946204802928DF80C301F
:1051B800CDE9004509F04CFF1C4809F0B1FF08F0A3
:1051C80005FC05B030BD2046FFF7B4FE2046FFF7CA
:1051D8007BFFC3E7144C0023C4F88430BFF34F8F20
:1051E800D4F8801043F6E07EC1F34E3CC1F3C90108
:1051F8004FEA4C1C0CEA0E000B4640EA8372013B56
:10520800C4F860225A1CF8D1ACF1200C1CF1200F14
:10521800F0D1BFF34F8F636943F480336361BFF309
:105228004F8FBFF36F8FA3E700ED00E04410002419
:1052380004F012B81C4B9B6803F17842B2F5003FAA
:1052480025D3B3F5803F20D303F16042B2F5003F88
:105258001FD303F15C42B2F5002F1CD303F1704257
:10526800B2F5902F19D303F14842B2F5803F16D317
:1052780003F18042B2F1806F13D303F1E043B3F539
:10528800000F2CBF0820072070470120704700201E
:10529800704702207047032070470420704705209C
:1052A80070470620704700BF00ED00E00348002368
:1052B800034A044903600FF049B900BF44100024B1
:1052C80000000024A14D000810B4204C0022204BFF
:1052D80083B0D4F888101F4841F47001C4F88810CE
:1052E80019681D4C41F0010119601A6119680840DC
:1052F8001A4918609A61DA611A629A62DA621A6364
:105308005A639A63DA631A645A64186820F480202E
:1053180018601A66D3F8DC2042F06042C3F8DC203B
:10532800D3F8DC300193019B23681940B1F1005F89
:1053380003D20B4B0122C3F80821044B4FF0006243
:105348009A6003B05DF8044B704700BF00ED00E0C1
:10535800004402587FEDF6EA0010005C0000FFFFF1
:105368000080005100F57171D0F8040405F016BFF3
:10537800C1EBC10300EB8303D0F80404D3F808227F
:1053880005F03ABFC1EBC10300EB8303D0F8040476
:105398009A6C05F06FBF00BFD0F8040406F00EB891
:1053A800C16810B5044619B1022900D0FEE70121F1
:1053B800D4F8040405F0ECFFD4F80404BDE8104068
:1053C80005F0BEBF10B50446D0F8040405F0E4FFAC
:1053D8002268D2F8003E43F00103C2F8003E236A77
:1053E80023B1034A136943F00603136110BD00BFDC
:1053F80000ED00E0D0F8040405F0D8BFD0F80404AC
:1054080005F0ECBFD0F8040405F0E6BFD0F80404BA
:1054180005F0E6BFD0F8040405F0E4BF9446D0F8E0
:1054280098021A4608B5634603F07AF9032802D8A9
:10543800024B185C08BD022008BD00BFF0470108F8
:10544800D0F8980208B503F0F9F9032802D8024BFE
:10545800185C08BD022008BDF0470108D0F8980282
:1054680008B503F02FFA032802D8024B185C08BDD0
:10547800022008BDF04701080A06D0F8983206D481
:10548800C1EBC10103EB810191F8FE01704701F006
:105498007F01C1EBC10103EB810191F83E00704728
:1054A800D0F8980208B503F025F9032802D8024B72
:1054B800185C08BD022008BDF0470108D0F8980222
:1054C80008B503F093F9032802D8024B185C08BD0D
:1054D800022008BDF0470108D0F8980208B503F08B
:1054E8005DF9032802D8024B185C08BD022008BDEC
:1054F800F0470108D0F8C00206F022BAD0F8C0027E
:1055080006F036BAD0F8C00206F03EBA704700BFBF
:10551800D0F8C00206F024BAD0F8C00206F024BAC7
:10552800D0F8D00308B502F083FD032802D8024B57
:10553800185C08BD022008BDF4470108024B027838
:1055480053F82200704700BF18480108024B427800
:1055580033F81200704700BFF84701088CB00A28DA
:1055680014D8DFE800F01523313F4D5B6977859348
:1055780006004D4BD3F8E02042F48062C3F8E020E7
:10558800D3F8E03003F480630B930B9B0CB07047A7
:10559800454BD3F8E02042F00102C3F8E020D3F8ED
:1055A800E03003F001030193019BEFE73E4BD3F892
:1055B800E02042F00202C3F8E020D3F8E03003F024
:1055C80002030293029BE1E7374BD3F8E02042F055
:1055D8000402C3F8E020D3F8E03003F00403039397
:1055E800039BD3E7304BD3F8E02042F00802C3F81E
:1055F800E020D3F8E03003F008030493049BC5E7E8
:10560800294BD3F8E02042F01002C3F8E020D3F889
:10561800E03003F010030593059BB7E7224BD3F85E
:10562800E02042F02002C3F8E020D3F8E03003F095
:1056380020030693069BA9E71B4BD3F8E02042F012
:105648004002C3F8E020D3F8E03003F040030793AA
:10565800079B9BE7144BD3F8E02042F08002C3F885
:10566800E020D3F8E03003F080030893089B8DE72F
:105678000D4BD3F8E02042F48072C3F8E020D3F851
:10568800E03003F480730993099B7FE7064BD3F856
:10569800E02042F40072C3F8E020D3F8E03003F4CD
:1056A80000730A930A9B71E700440258704700BFD1
:1056B8000F4B1B780BB90120704710B504464FF407
:1056C8007A700C4AB0FBF3F31068B0FBF3F000F00B
:1056D800C1FE0F2C00D808B1012010BD00222146C0
:1056E8004FF0FF3000F056FE034B00201C6010BD49
:1056F80048000024400000244C00002438B5032052
:10570800124D00F035FE124C03F0D6FB114A124937
:105718009369C3F30323CB5C03F01F0320FA03F35D
:105728000E202B60926902F00F028A5C02F01F02C1
:10573800D3402360FFF7BCFF10B10124204638BDD9
:105748000446FFF7B3FF204638BD00BF40000024E1
:105758004400002400440258E0470108034A044B6F
:1057680011681B780B441360704700BF141700249E
:1057780048000024014B1868704700BF1417002424
:1057880038B50446FFF7F6FF0546631C02D0044B04
:105798001B781C44FFF7EEFF431BA342FAD338BD26
:1057A80048000024014B1868000C70470010005C8A
:1057B800704700BF806B08B5FFF7FAFF08BD00BF50
:1057C800836B5A6D12F0500F5A6D10B51DD11968C0
:1057D80042F400725A650A6812F0080FCA681BD0B2
:1057E80012F4406F0DD1CA6894040AD45A6D22F499
:1057F80080725A655A6DD10403D45A6D42F0010281
:105808005A651846FFF72AF810BDD2060AD4DB6C91
:10581800BDE81040DB6C18479007E7D01846FFF743
:105828001DF8F1E71846FFF7BDF810BD806B08B505
:10583800436D43F040034365836D43F00403836580
:10584800FFF7B0F808BD00BFF0B5002283B00192A1
:1058580090F85020012A00F01C81034601201A68A4
:1058680083F850009468640700F18A800C68C4F3D8
:105878001305002D40F08F80C4F38464A0404D6868
:105888004FF01F0ED6694FEA951C30430CF00C0CF4
:10589800D06105F01F0002F1300584400EFA00FEC9
:1058A8005CF8050020EA0E0004434CF805409068B7
:1058B80040076ED4956815F0080547D10C68072095
:1058C80002F11406B94F4FEAD45CC4F304540CF047
:1058D800040C00FA04FE886800FA04F45CF8060078
:1058E80020EA0E0020434CF80600386800F07040AB
:1058F800B0F1805F00F0C580D068D668C70600F1B7
:10590800E880C6F382064869760000FA06F60F6951
:10591800042F00F0C18002F16004086854F827C021
:1059280000F0F8400CF0004C40EA0C00304344F81A
:105938002700487E0E69012854F8260008BF4FF05A
:10594800004520F00040054344F826509068C407FD
:1059580014D4CE68086806F01807954CD2F8C050E1
:10596800FC40C0F31307044025EA07052C43C2F89E
:10597800C040904CA64246D0002816DB002003E029
:105988005A6D42F020025A65002283F8502003B075
:10599800F0BD9068DAE794FAA4F5B5FA85F5C4F392
:1059A800846405F01F05A84069E783498A4200F02E
:1059B800B68001F580718A4200F0B1807F4D804C3D
:1059C800A968A46801F0E076E44304F00104002C1F
:1059D80000F0B4807B4CA04200F0FC807A4CA042DE
:1059E80000F01A81794CA042C8D14902C6D4744942
:1059F8008A42C3D1AA68002022F0E072324342F4FE
:105A08008002AA60C0E7002F6AD090FAA0F4B4FA26
:105A180084F4013404F01F04092C00F2A48090FAE5
:105A2800A0F4B4FA84F490FAA0F5B5FA85F5013437
:105A380001260135A40605F01F0504F0F84406FA0E
:105A480005F52C4390FAA0F0B0FA80F0304400F04D
:105A58001F0000EB400000052043C60D02F11405AD
:105A6800C0F30450072406F0040604FA00F774593A
:105A780024EA07048F6807FA00F020437051086889
:105A88007AE7D6684869C6F38206760000FA06F611
:105A98003DE7022003B0F0BD106E0C6800F0F8403E
:105AA800A506B0EB846F30D0506E00F0F840854208
:105AB80026D0906E00F0F84085422BD0D06E00F0D2
:105AC800F84085427FF442AFD06E20F00040D066A7
