:020000040800F2
:10000000000002208906000885060008C545000892
:100010008506000885060008850600080000000027
:10002000000000000000000000000000850600083D
:100030008506000800000000850600084945000804
:100040008506000885060008850600088506000864
:100050008506000885060008850600088506000854
:100060008506000885060008850600083DD40008BE
:1000700049D40008FD3F000855D4000861D40008A9
:1000800091F3000831C900088506000885060008BC
:100090008506000885060008850600088506000814
:1000A0008506000885060008850600088506000804
:1000B000A9E70008B5E70008C1E7000865C900081E
:1000C0008506000871C900088506000819E00008C7
:1000D00025E00008C5F10008F1F1000825F200084C
:1000E0008506000885060008000000008506000857
:1000F00085060008850600088506000885060008B4
:100100008506000885060008CDE7000831E00008F4
:1001100059F200088DF200088506000885060008DF
:10012000850600088506000855E0000889E00008FB
:10013000C5F3000885060008850600088506000846
:1001400000000000000000000000000000000000AF
:10015000850600088506000885060008C1F200082B
:100160007DC9000885060008594500087D4500083E
:1001700085060008A14500088506000885060008D8
:100180008506000885060008F5F2000829F3000836
:100190003DE0000849E000088506000885060008E3
:1001A0008506000885060008850600088506000803
:1001B00021D100088506000885060008850600088C
:1001C00085060008850600088506000885060008E3
:1001D00085060008850600088506000885060008D3
:1001E00085060008850600088506000885060008C3
:1001F00085060008850600088506000885060008B3
:1002000085060008850600088506000885060008A2
:100210008506000885060008850600088506000892
:100220008506000885060008850600080000000015
:100230008506000885060008000000008506000805
:100240008506000885060008850600088506000862
:100250008506000885060008850600088506000852
:100260008506000885060008850600088506000842
:1002700085060008850600085DF300080000000000
:1002800085060008850600088506000800000000B5
:080290000000000085060008D3
:1002A00010B5054C237833B9044B13B10448AFF3B0
:1002B00000800123237010BD100400240000000002
:1002C0003C73010808B5034B1BB103490348AFF366
:1002D000008008BD00000000140400243C730108E5
:1002E00001F0FF01102A2BDB10F0070F08D010F8E7
:1002F000013B013A8B422DD010F0070F42B3F6D1EB
:10030000F0B441EA012141EA014122F007047FF003
:1003100000070023F0E80256083C85EA010586EA5A
:10032000010685FA47F5A3FA87F586FA47F6A5FA96
:1003300087F68EB9EED1F0BC01F0FF0102F00702A2
:1003400032B110F8013B013A83EA010313B1F8D14D
:100350000020704701387047002D06BF354603382E
:10036000073815F0010F07D1013015F4807F02BF67
:10037000013015F4C03F0130F0BC0138704700BFB8
:1003800053B94AB9002908BF00281CBF4FF0FF31FC
:100390004FF0FF3000F074B9ADF1080C6DE904CEF8
:1003A00000F006F8DDF804E0DDE9022304B0704750
:1003B0002DE9F047089D04468E46002B4DD18A4218
:1003C000944669D9B2FA82F252B101FA02F3C2F14B
:1003D000200120FA01F10CFA02FC41EA030E9440DC
:1003E0004FEA1C48210CBEFBF8F61FFA8CF708FBFD
:1003F00016E341EA034306FB07F199420AD91CEBD5
:10040000030306F1FF3080F01F81994240F21C8106
:10041000023E63445B1AA4B2B3FBF8F008FB10334E
:1004200044EA034400FB07F7A7420AD91CEB040483
:1004300000F1FF3380F00A81A74240F20781644453
:10044000023840EA0640E41B00261DB1D4400023D8
:10045000C5E900433146BDE8F0878B4209D9002D3C
:1004600000F0EF800026C5E9000130463146BDE8C6
:10047000F087B3FA83F6002E4AD18B4202D3824230
:1004800000F2F980841A61EB030301209E46002DDF
:10049000E0D0C5E9004EDDE702B9FFDEB2FA82F234
:1004A000002A40F09280A1EB0C014FEA1C471FFA92
:1004B0008CFE0126200CB1FBF7F307FB131140EA79
:1004C00001410EFB03F0884208D91CEB010103F146
:1004D000FF3802D2884200F2CB804346091AA4B208
:1004E000B1FBF7F007FB101144EA01440EFB00FEDC
:1004F000A64508D91CEB040400F1FF3102D2A64541
:1005000000F2BB800846A4EB0E0440EA03409CE7DF
:10051000C6F12007B34022FA07FC4CEA030C20FA8C
:1005200007F401FA06F31C43F9404FEA1C4900FAAC
:1005300006F3B1FBF9F8200C1FFA8CFE09FB181129
:1005400040EA014108FB0EF0884202FA06F20BD99C
:100550001CEB010108F1FF3A80F08880884240F2EC
:100560008580A8F102086144091AA4B2B1FBF9F030
:1005700009FB101144EA014100FB0EFE8E4508D92B
:100580001CEB010100F1FF346CD28E456AD90238B0
:10059000614440EA0840A0FB0294A1EB0E01A14295
:1005A000C846A64656D353D05DB1B3EB080261EB03
:1005B0000E0101FA07F722FA06F3F1401F43C5E9DD
:1005C000007100263146BDE8F087C2F12003D84013
:1005D0000CFA02FC21FA03F3914001434FEA1C4755
:1005E0001FFA8CFEB3FBF7F007FB10360B0C43EA47
:1005F000064300FB0EF69E4204FA02F408D91CEBF7
:10060000030300F1FF382FD29E422DD902386344F4
:100610009B1B89B2B3FBF7F607FB163341EA034194
:1006200006FB0EF38B4208D91CEB010106F1FF38E3
:1006300016D28B4214D9023E6144C91A46EA0046DA
:1006400038E72E46284605E70646E3E61846F8E66C
:100650004B45A9D2B9EB020864EB0C0E0138A3E7B5
:100660004646EAE7204694E74046D1E7D0467BE796
:10067000023B614432E7304609E76444023842E70E
:10068000704700BFFEE700BF0B480C4A904203D002
:10069000121A0B4913F06EFF0A480B4A904203D01E
:1006A000121A002113F074FF04F0E4F913F03EFF76
:1006B00000F09AF8FEE700BF000000240C040024BC
:1006C0006C73010810040024BC390024704700BF7B
:1006D000002A75D0013A2DE9F04F530804460D4623
:1006E0000026DFF8F0B0DFF8F080364FDFF8ECA03E
:1006F000DFF8EC902DED028B83B00193B2EE048A0B
:10070000D4ED010AD4ED007A9FED2F7A60EE880ACD
:100710009BED000A67EE887A2C4860EE870A67EE48
:10072000877A60EE800A27EE800A02F05DFA274899
:1007300002F01AFF254888ED000A02F019FFD8EDF3
:10074000007AF0EE485A9FED227A731CF4EEC87AD4
:1007500099ED006ADAED006A17EE102A87ED000ABB
:10076000F1EE10FA00DC03D5F0EE477A88ED007A5E
:10077000B4EEE50A67EE867AF1EE10FA00DC00D5F9
:100780003A6094ED007A08350834019AE7EE267A4B
:1007900096421E4645ED027AD7ED007A99ED006A41
:1007A00054ED016A67EE867A9AED007AE6EE877A72
:1007B00045ED017AA2D103B0BDEC028BBDE8F08F0C
:1007C000704700BF7C0C0024CDCCCC3D100700242A
:1007D000000000001800002404070024100000247A
:1007E0002C000024000000000021594D5948B7EEAC
:1007F000008A594C08B502F0BFFE9FED580A5848D0
:1008000002F026FC9FED550A284600F001FB9FED03
:10081000550A284600F0E6FA534B514893ED000A7A
:1008200085ED008A02F0D0FB504B9FED510A93ED0D
:10083000007A4B48B4EEC07AF1EE10FAB4EEC87A02
:10084000CCBF01230023F1EE10FA03F0010358BFDF
:10085000002338FE000A07EE903AF8EEE77A67EEDA
:10086000877A37EE800A02F0C1FB424B3C4893ED99
:10087000000A02F029FD404B394893ED000A02F0CE
:100880003FFD3E4BB6EE007A3548D3ED007AF8EEE8
:10089000E77AF4EEC77AF1EE10FACCBF012100211D
:1008A00002F04AFD364B2E4893ED000A02F050FD4F
:1008B000344B2B4893ED000A02F074FD324B28486C
:1008C00093ED000A02F0C0FD304B254893ED000A7D
:1008D00002F092FD2E4B224893ED000A02F0DCFD5F
:1008E0002C4B1F4893ED000A02F02CFE2A4B1C48AB
:1008F00093ED000A02F034FE3021164802F012FF98
:100900001448264902F00CFF124802F01DFF11485E
:1009100002F01EFF0F4802F03BFF0E4802F024FFDA
:10092000F7EE007A94ED007AB4EEE77A9FED066B6D
:10093000F1EE10FA05D5B7EEC77A37EE067BF7EE83
:10094000C77BC4ED007AE2E7F168E388B5F8E43EDE
:100950002C04002454040024FC06002400803B479F
:10096000100700246F12833B280000240C0700248A
:1009700000000000000700241400002408000024E8
:10098000040000240C000024780C0024240000241F
:1009900020000024080700241C000024D1060008C1
:1009A00010B500230E484FF60B740E4A0E49036033
:1009B00043610362C363C0E9A043C0E9A23313F0FB
:1009C00089F9B7EE001AF3EE000A9FED080A08480D
:1009D00001F090FE0748BDE8104000F0E9B900BF03
:1009E0005404002400000024CD06000800803B478A
:1009F000100700242C04002410B52DED028BB7EE57
:100A0000008A0023B7EEE04A9FED236AB6EE005B52
:100A1000C0ED020AC8EE206A036043600446036129
:100A20008361C361BFEE007B0362F0EE408AA4EEF7
:100A3000057BC0ED036A26EE860AB7EEC77B80ED24
:100A4000057A13F017FCB7EEE87A94ED036A84EDAB
:100A5000070AB7EEC66AC4ED048A9FED0D5B27EE68
:100A6000057B78EE405A27EE060BC4ED065AB7EE2A
:100A7000C00B13F0FFFB38EE408A204684ED070AD6
:100A800084ED068ABDEC028B10BD00BFAFF3008081
:100A9000182D4454FB2119C00000008090ED080A75
:100AA000D0ED076A90ED067A20EE260AD0ED007AA6
:100AB000A7EE270A80ED080A80ED010A704700BF03
:100AC0000023036003624360704700BF0000000022
:100AD00010B52DED028BB7EE008AD0ED047AB7EE9B
:100AE000C02A80ED020AB6EE003B0446C8EE005A6A
:100AF000BFEE006BB7EEE70AA2EE036B9FED0E4B65
:100B000020EE040BC0ED035AB7EEC67BB7EEE56AE4
:100B100080ED057A20EE060BB7EEC00B13F0AAFBB2
:100B200038EE408A84ED070A84ED068ABDEC028B1C
:100B300010BD00BFAFF30080182D4454FB2119C035
:100B4000B7EEC07A80ED040A90ED036A9FED0C5B6E
:100B5000B7EEC66A27EE050B10B520EE060B04466D
:100B6000B7EEC00B13F086FBF7EE007A84ED070AB0
:100B700077EEC07AC4ED067A10BD00BFAFF30080F7
:100B8000182D4454FB2119C0F7EE005A9FED386A26
:100B9000BFEE007B38B5C5EEA06A00250446B7EE6F
:100BA000E05A2DED068BB6EE009BC0ED020AB0EECA
:100BB00040AA05604560B7EE008BA5EE097B056194
:100BC0008561C56105624562C0ED036A26EE860A4D
:100BD0008562C5620563B7EEC77B80ED057A13F0C9
:100BE00049FBB7EEC06AB7EECA7A94ED035A84EDBA
:100BF0000C0A36EE086B84ED04AAB7EEC55A2560E0
:100C0000656026EE096B25626562A561E5619FED71
:100C1000164BB7EEC66B27EE047B84ED0A6A27EE0F
:100C2000050BF1EE467AB7EEC00BC4ED0B7A13F06C
:100C300021FBB7EEC07A20462560656037EE087B61
:100C400025626562A56127EE097B84ED0C0AE561EA
:100C5000BDEC068BB7EEC77BF1EE477A84ED0A7ADE
:100C6000C4ED0B7A38BD00BF182D4454FB2119C0C8
:100C70000000008090ED097A90ED0B0AD0ED007A2B
:100C800020EE070A90ED0A6A90ED077AD0ED0C6A23
:100C9000A7EE860AC0ED087AC0ED097AA6EE870AAB
:100CA00080ED060A80ED070A80ED010A704700BF5B
:100CB000002303604360036243628361C361704742
:100CC0009FED155BB7EEC07A80ED040A90ED036AE4
:100CD00027EE050BB7EEC66A10B520EE060B0446EC
:100CE000B7EEC00B13F0C6FAB7EE005BB7EEC07AF2
:100CF00084ED0C0AB6EE006B37EE057B27EE067B23
:100D0000B7EEC77BF1EE477A84ED0A7AC4ED0B7A31
:100D100010BD00BFAFF30080182D4454FB2119C053
:100D2000F7EE007A80ED020AB7EEC04ABFEE006B24
:100D300087EE807AD0ED047AB7EEE70A10B52DED94
:100D4000028BB6EE008B04469FED175BA4EE086B9A
:100D500080ED037A20EE050BB7EEC75A20EE050BA7
:100D6000B7EEC66BB7EEC00B80ED056A13F082FAE2
:100D7000B7EE006BB7EEC07A002384ED0C0A236057
:100D800037EE067B63602362636227EE087BA36114
:100D9000E361BDEC028BB7EEC77BF1EE477A84EDE1
:100DA0000A7AC4ED0B7A10BD182D4454FB2119C0EA
:100DB00000214FF0000C4FF07E5201608160816194
:100DC00080F824C0054980F804C0DFF814C0C26070
:100DD000C2610261C0F820C0416170473EC3AE37B6
:100DE00000803B4790ED086AF7EE006A80ED030A49
:100DF00020EE060A90ED067AD0ED077A77EEC77AF4
:100E000086EE807AC0ED047A80ED057A704700BFE7
:100E100090ED036AF7EE006A80ED080A20EE060AFC
:100E200090ED067AD0ED077A77EEC77A86EE807A73
:100E3000C0ED047A80ED057A704700BF08B5034A1B
:100E4000A421034B034813F02DFB00BFD855010824
:100E5000B0550108045601089FED5B7BB7EEC04A10
:100E6000B4EEC74BF1EE10FA26D55B495B4A5C4BFA
:100E7000C0F8A410C0F8A820C0F8AC305649574AB2
:100E8000574BC0F8CC10C0F8D020C0F8D43052492D
:100E9000524A534BC0F8F410C0F8F820C0F8FC30A8
:100EA0004D4BDFED507A9FED507AC0F81C3180ED4C
:100EB000487AC0ED497A70479FED453BB4EEC34B8D
:100EC000F1EE10FA39DDB4EEC74B4849484A494BB8
:100ED000F1EE10FAC0F8A410C0F8A820C0F8AC30A9
:100EE000CCD44249424A434BC0F8CC10C0F8D02081
:100EF000C0F8D4309FED347BB4EEC74BF1EE10FA5E
:100F0000C5D43A493A4A3B4BC0F8F410C0F8F8202F
:100F1000C0F8FC309FED2C7BB4EEC74BF1EE10FA1D
:100F2000BED4324BDFED347A9FED347AC0F81C31F9
:100F300080ED487AC0ED497A7047B7EE002B80ED1E
:100F4000290AF7EE006ABFEE001B32EE442BC6EE14
:100F5000805A81EE026BB4EEC74BF1EE10FAC0ED91
:100F60002A5AB7EEC66B80ED2B6A87D4B4EEC34B1A
:100F7000F1EE10FAB5DCB4EEC74B80ED330AC0EDEC
:100F8000345A80ED356AF1EE10FA80D4B4EEC34BDA
:100F9000F1EE10FAB5DCB4EEC74B80ED3D0AC0EDC2
:100FA0003E5A80ED3F6AF1EE10FA3FF579AFB4EEAC
:100FB000C34BF1EE10FAB4DCB0EE657A80ED470A6F
:100FC000F0EE467A73E700BF2D431CEBE2361A3F82
:100FD0002B8716D9CEF7EF3F17B7D13800401C4604
:100FE000470380BF470380BF00401C4677BE7F3F5A
:100FF000CD20803FD3007AC4D3007AC4CD20803F77
:1010000038B50446002500F5C470C4F83C51C4F856
:101010004051C4F86451C4F86851C4F84451C4F84C
:101020004851C4F86C51C4F87051FFF749FD04F5FC
:10103000D670FFF73DFE04F51E70C4F8E051C4F809
:10104000E451C4F80852C4F80C52C4F8E851C4F88A
:10105000EC51C4F81052C4F81452C4F82C52C4F81D
:101060003052C4F85452C4F85852C4F83452C4F838
:101070003852C4F85C52C4F86052FFF721FD04F501
:101080002770FFF715FE04F54770C4F8D052C4F876
:10109000D452C4F8F852C4F8FC52C4F8D852C4F878
:1010A000DC52C4F80053C4F80453FFF701FE04F502
:1010B0005470FFF7FDFDC4F83451C4F8385138BD01
:1010C000024600F1580C52F8403F30B452F8041F69
:1010D0008B42B8BF0B466245F8D107EE903A90EDCF
:1010E0001A7ADFEDEB4AF8EEE77A9FEDEA5ADFED88
:1010F000EA5ADFEDEA6AB0EE674A9FEDE96AF0EE80
:10110000673A90ED073A9FEDE72AA7EE244ADFED14
:10111000E62AF0EE674AE54CE7EE263ADFEDE46AB0
:101120002368E7EE054AB0EE675A591C34EE034ACD
:101130009D1CA7EE255AF0EE675A73EE833A74EEC3
:10114000834AE7EE065AB0EE676A35EE035AA7EE19
:10115000266AF0EE676AE7EE227A75EE835AE7EECA
:10116000026A90ED197A63EE873A36EE036A77EEFB
:10117000837AFDEEE33A76EE836A24EE074A64EE64
:10118000874A25EE075A65EE875A26EE076A66EE0D
:10119000876A67EE877AB8EEE37ABDEEC44AFDEE61
:1011A000E44AB5EEC07ABDEEC55AFDEEE55AF1EE61
:1011B00010FABDEEC66AFDEEE66AFDEEE77A0CD8DF
:1011C00013EE902A013A03EE102AB8EEC33AB5EEB8
:1011D000C03AF1EE10FA40F152819FEDB63A00228A
:1011E000F8EEC42A9FEDB37AC0F84C110021C0F884
:1011F0005421F4EEC72A80ED563A80ED4F7A80ED07
:10120000507AF1EE10FA80ED517A80ED527AC0F802
:101210005011C0ED573A80ED587A80ED597A80ED43
:101220005A7A0CD814EE102A013A03EE902AF8EEFE
:10123000E33AF4EEC73AF1EE10FA40F13D81B8EE30
:10124000E43ADFED9C3A0022C0F87451C0ED5B3AFD
:101250005D1DB4EEE33AC0ED5C3A80ED607A80ED5E
:10126000614AF1EE10FAC0E95E2103F104010DD8E4
:1012700014EE90CA0CF1FF3C07EE10CAB8EEC77A24
:10128000B4EEE37AF1EE10FA40F11F81B8EEC54AF0
:101290009FED887AC0F8F0110021C0F8F821B4EE73
:1012A000C74AC0ED7F3A80ED787A80ED797AF1EE29
:1012B00010FA80ED7A7A80ED7B7AC0F8F411C0EDF7
:1012C000804A80ED817A80ED827A80ED837A0CD835
:1012D00015EE102A013A04EE902AF8EEE44AF4EEF4
:1012E000C74AF1EE10FA40F1F980B8EEE54ADFEDB9
:1012F000714A0022C0F81852C0ED844A03F1080573
:10130000B4EEE44AC0ED854A80ED897A80ED8A5AD0
:10131000F1EE10FAC0E9872103F107010DD815EEAF
:1013200090CA0CF1FF3C07EE10CAB8EEC77AB4EED3
:10133000E47AF1EE10FA40F1DA80B8EEC65A9FED89
:101340005D7AC0F83C120021C0F84422B4EEC75ABE
:10135000C0ED924A80ED8B7A80ED8C7AF1EE10FA36
:1013600080ED8D7A80ED8E7AC0F84012C0ED935AF0
:1013700080ED947A80ED957A80ED967A0CD816EE11
:10138000102A013A05EE902AF8EEE55AF4EEC75A13
:10139000F1EE10FA40F1B480B8EEE65ADFED455AAE
:1013A0000022C0F86452C0ED975A03F10B05B4EE69
:1013B000E55AC0ED985A80ED9C7A80ED9D6AF1EE79
:1013C00010FAC0E99A2103F10A010DD816EE90CA6D
:1013D0000CF1FF3C07EE10CAB8EEC77AB4EEE57A1E
:1013E000F1EE10FA40F19580B8EEE76A9FED317AA0
:1013F0000C33C0F8E8220022C0F8E012B4EEC76A4D
:1014000080EDB47A80EDB57A80EDB67AF1EE10FA1F
:1014100080EDB77AC0F8E422C0EDBB5AC0EDBC6ADB
:1014200080EDBD7A80EDBE7A80EDBF7A23600BD867
:1014300017EE903A013B06EE903AF8EEE66AF4EECB
:10144000C76AF1EE10FA11D500230021C0F8085345
:10145000C0F81023C0F80033C0F80433C0F80C13F0
:1014600080EDC57AC0EDC67A30BC7047BDEEE67A35
:1014700017EE102AB8EEC77A36EEC77AE4E7BDEE6B
:10148000C37A17EE102AB8EEC77A33EE473AA7E6CA
:1014900000288B450000E144008068450000284496
:1014A000000063440000264500B04545800C002440
:1014B00000C8834500000000BDEEE37A17EE101A65
:1014C000B8EEC77A33EEC77AB9E6BDEEC74AF8EE92
:1014D000C43A14EE102A77EE633AD7E6BDEEE47A0A
:1014E00017EE101AB8EEC77A34EEC77AFDE6BDEEF5
:1014F000C75AF8EEC54A15EE102A77EE644A1CE783
:10150000BDEEE57A17EE101AB8EEC77A35EEC77A57
:1015100042E7BDEEC76AF8EEC65A16EE102A77EE1D
:10152000655A61E7F7EE007A90ED2C7AB4EEE77A2F
:10153000F1EE10FA40F35A8137EE677AD0ED297A4E
:101540000123B4EEE77A80F8B83080ED2C7AF1EE22
:1015500010FA80F24381D0ED2A5A67EE255AF0EE58
:10156000004A90ED1F6AFFEE006AD0ED087AD0F8CD
:101570005C3190ED2D5AE5EEA46A05EE903A35EE19
:10158000077AF8EEE55A80ED2C7AE6EE267AC0ED81
:10159000266AF4EEE57AF1EE10FA04DB013B07EE81
:1015A000903AF8EEE77AF5EEC07AF1EE10FA00F133
:1015B0006081BDEEE77A17EE103AB8EEC77A77EEA3
:1015C000C77AF7EE006A90ED367AC0F85431C0ED74
:1015D000567AB4EEE67AF1EE10FA40F33D8137EE3A
:1015E000667AD0ED337A0123F4EEC77A80F8E030E2
:1015F00080ED367AF1EE10FA40F2E880D0ED345A00
:1016000067EE255AF0EE004AD0ED0A7AFFEE006A46
:10161000D0F8003290ED375AE5EEA46A05EE903A24
:1016200035EE077AF8EEE55A80ED367AE6EE267A60
:10163000C0ED306AF4EEE57AF1EE10FA04DB013B1E
:1016400007EE903AF8EEE77AF5EEC07AF1EE10FA8E
:1016500000F1FE80BDEEE77A17EE103AB8EEC77AD9
:1016600077EEC77AF7EE006A90ED407AC0F8F8316D
:10167000C0ED7F7AB4EEE67AF1EE10FA40F3DB804B
:1016800037EE667AD0ED3D7A0123F4EEC77A80F822
:10169000083180ED407AF1EE10FA40F28F80D0ED03
:1016A0003E5A67EE255AF0EE004AD0ED0C7AFFEE76
:1016B000006AD0F84C3290ED415AE5EEA46A05EE8E
:1016C000903A35EE077AF8EEE55A80ED407AE6EE8C
:1016D000267AC0ED3A6AF4EEE57AF1EE10FA04DB10
:1016E000013B07EE903AF8EEE77AF5EEC07AF1EEBC
:1016F00010FA00F19C80BDEEE77A17EE103AB8EED2
:10170000C77A77EEC77AF7EE006A90ED4A7AC0F8AA
:101710004432C0ED927AB4EEE67AF1EE10FA7ADD58
:1017200037EE667AD0ED477A0123B4EEE77A80F897
:10173000303180ED4A7AF1EE10FA37DAD0ED485ABE
:1017400067EE255AF0EE004AD0ED0E7AFFEE006A01
:10175000D0F8F03290ED4B5AE5EEA46A05EE903ADF
:1017600035EE077AF8EEE55A80ED4A7AE6EE267A0B
:10177000C0ED446AF4EEE57AF1EE10FA04DB013BC9
:1017800007EE903AF8EEE77AF5EEC07AF1EE10FA4D
:1017900039D4BDEEE77A17EE103AB8EEC77AC0F842
:1017A000E83277EEC77AC0EDBB7A7047002380F845
:1017B0003031D0ED495AD5EE875AC3E7002380F87F
:1017C0000831D0ED3F5AD5EE875A6CE7002380F8F8
:1017D000E030D0ED355AD5EE875A13E7002380F874
:1017E000B830D0ED2B5AD5EE875AB8E6D0ED297A2D
:1017F000B4EEE77AF1EE10FAF0DA90F8B830002B98
:101800007FF4A9AEEDE7DFED1D7A0023C0EDBB7AD2
:10181000C0F8E8327047D0ED477AB4EEE77AF1EEDF
:1018200010FAC3DA90F83031002B87D1C1E7DFED31
:10183000137A002367E7D0ED3D7AB4EEE77AF1EE54
:1018400010FABBDA90F80831002B7FF428AFB8E724
:10185000DFED0A7A002305E7D0ED337AB4EEE77ABC
:10186000F1EE10FAB2DA90F8E030002B7FF4C6AE59
:10187000AFE7DFED027A0023A3E600BF000000001F
:101880002DE9F04F2DED048B8FB00446CDE90C12FD
:10189000FFF748FE90F88030002B40F08683436FBE
:1018A000D4ED4D7AB7EE008B94ED527A30EE270AE4
:1018B000D4ED4E7AD4ED586A77EEA00AA367F0EE25
:1018C000407AD4F85011D4F84C21EE4BE7EE267A4A
:1018D000ED4D03FB0213D4F85C01C4ED4E0A05EB99
:1018E000830384ED4D0A84ED4F0AE64EA6EEE77AB7
:1018F000C4ED597AC4ED517A84ED507AC3ED007A83
:10190000D4F85431D4ED566ACB1A01F1010148BF25
:101910001B18814208BF0021C4F85011591E48BF4E
:101920000918D84800FB02F213440A4405EB83036C
:1019300005EB8202D3ED007A92ED007AD4F84031C3
:1019400037EE677AC4F86C31D4E95D21E6EE877A28
:1019500000FB021006FB02F205EB8000C4ED527A98
:101960000360D4F87C31D4F88401CB1A01F1010171
:10197000D4ED606A48BF1B18814208BF0021C4F83B
:101980007811591E134448BF091804F5C47005EBBB
:1019900083030A44D3ED007A05EB820292ED007ACC
:1019A00037EE677AE6EE877AC4ED5C7AC4ED627A48
:1019B000FFF774F894ED217A04F5D67084ED6B0A84
:1019C000B7EEC77A94ED5C9AB7EEC99A38EE478BBA
:1019D000FFF750F994ED217AD4ED7B5A20EE070AF7
:1019E00094ED1E7A94ED815AB7EEC76AD4F8F831B7
:1019F000B7EEC07AD4F80002D4E97C21A9EE087BC6
:101A0000CB1A06FB021601F1010148BF1B1805EBBA
:101A100086068142B7EE008B08BF002126EE077BC9
:101A2000B7EEC77BF0EE477A84ED787AE5EE857AFB
:101A3000E5EE675AC4ED827AC4ED7A7AC4ED795A3C
:101A4000C6ED007AC4F8F411591ED4ED7F6A48BF80
:101A500009188C488B4E00FB02F213440A4405EB34
:101A6000830305EB8202D3ED007A92ED007AD4F87D
:101A7000E43137EE677AC4F81032D4E98621E6EE15
:101A8000877A00FB021005EB8000C4ED7B7A0360CF
:101A9000D4F82032D4ED4E5AD4F82802CB1AF0EE06
:101AA000657A01F1010194ED946A48BF1B1894ED29
:101AB0008E7A814294ED895AE7EE067A08BF0021BA
:101AC000C4F81C12591E48BF09186E48A6EE677A62
:101AD00000FB02F213440A4405EB830305EB820288
:101AE000F0EE476A93ED007A92ED006AC4ED8B5AEE
:101AF000C4ED8C6A76EE476AD4F84432C4ED957A28
:101B0000A5EE267AC4ED8D7AD4E98F2100FB021070
:101B1000CB1A01F1010105EB800084ED857AC0ED5F
:101B2000007AD4F84C02D4ED926A48BF1B18814267
:101B300008BF0021C4F84012591E48BF0918514877
:101B400000FB02F213440A4405EB830305EB820217
:101B5000D3ED007A92ED007AD4F8303237EE677A1E
:101B6000C4F85C32D4E99921E6EE877A00FB0210D2
:101B700006FB02F205EB8000C4ED8E7A0360D4F818
:101B80006C32D4F87402CB1A01F10101D4ED9C6AD5
:101B900048BF1B18814208BF0021C4F86812591EB3
:101BA000134448BF091804F51E7005EB83030A446B
:101BB000D3ED007A05EB820292ED007A37EE677A78
:101BC000E6EE877AC4ED987AC4ED9E7AFEF766FF5A
:101BD00094ED217A04F5277084EDA70AB7EEC77A51
:101BE00094ED989AB7EEC99A38EE478BFFF742F812
:101BF00094ED217AD4EDB75A20EE070A94ED1E7ABF
:101C000094EDBD5AB7EEC76AD4F8E812B7EEC07AC1
:101C1000D4F8F032D4E9B882A9EE087B0193511AC6
:101C200006FB082602F1010248BFC918019B05EB1B
:101C300086069A4208BF00224F1E26EE077BB7EEAB
:101C4000C77BF0EE477A84EDB47AE5EE857AE5EE6F
:101C5000675AC4EDBE7AC4EDB67AC4EDB55AC6ED86
:101C6000007AC4F8E42201D5019B1F44054ED4ED4F
:101C7000BB6A06FB08F00144384405EB810105EB23
:101C8000800003E0400D0300000000C0D1ED007AA9
:101C900090ED007AD4F8D41237EE677AD4F81803AE
:101CA000C4F800130290E6EE877AD4E9C2E306FB9B
:101CB0000E3605EB8606C4EDB77A3160D4F8101302
:101CC000591A03F1010348BF09180298834208BF5B
:101CD00000234E1EC4F80C3301D502980644C248B6
:101CE00094EDC55A00FB0EF0D4ED1E6AD4ED855A72
:101CF00001443044D4F878C165EEA65A05EB800063
:101D000094ED507A05EB810190ED006AD1ED007AF7
:101D1000206C36EE676AC4ED4E5ABCEB000684EDCB
:101D2000C77AE5EE067A66EEA76AC4EDC17AC4ED1D
:101D30004D6A02D5D4F884110E44AB49D4F874B17D
:101D400001FB0B66616C05EB86060391D6ED007A0C
:101D5000BCEB010637EE277A84EDC77A02D5D4F8BA
:101D600084110E44A04901FB0B66A16C05EB8606AD
:101D70000491D6ED007AD4F8F46137EE277A0A960A
:101D8000761A84EDC77A02D5D4F800120E44D4F83E
:101D9000F0110F460B91944901FB0766E16C05EBCE
:101DA00086060591D6ED007AD4F81C6237EE677A84
:101DB0000896761A84EDC77A02D5D4F828120E4414
:101DC000D4F818120F460991874901FB0766216D67
:101DD00005EB86060691D6ED007A0E46D4F8681219
:101DE00037EE277A8F1B84EDC77A02D5D4F8746258
:101DF00037447D4ED4F8649206FB0977666D05EB97
:101E000087070796961BD7ED007A37EE677A84ED41
:101E1000C77A01D5019F3E44DFF8CCA10AFB0866D2
:101E200005EB8606D6ED007AA66D37EE677AB3EB42
:101E3000060A84EDC77A01D5029FBA446A4F081A90
:101E4000D4ED8C7A07FB0EAA05EB8A0ADAED006A5C
:101E5000C4EDD47A37EE667A84EDC77A02D5D4F829
:101E600074723844DFF880A10AFB090005EB80009A
:101E700090ED007A039877EE877A091AC4EDD47A48
:101E800002D5D4F874020144574800FB091105EB50
:101E9000810191ED007A049977EE877A521AC4EDA8
:101EA000D47A01D501990A444F4901FB082205EB78
:101EB000820292ED007A059A77EEC77A9B1AC4EDFA
:101EC000D47A01D5029A1344474A02FB0E3305EB3C
:101ED000830393ED007A069B77EE877ABCEB030CC5
:101EE000C4EDD47A02D5D4F884319C443E4B079A91
:101EF00003FB0BCC0A9B05EB8C0C9F1A9CED007A24
:101F000077EEC77AC4EDD47A02D5D4F800321F44F4
:101F1000354B0B9A03FB0277089B05EB87079E1B4B
:101F200097ED007A77EEC77AC4EDD47A02D5D4F86B
:101F300028321E442C4BB6EE008A099A04F54770ED
:101F400003FB026605EB860595ED007A77EEC77A0E
:101F5000C4EDD47AFEF78EFE20EE080A0C9B04F541
:101F6000547083ED000AFEF785FE20EE080A0D9BF3
:101F700083ED000AD4ED236A94ED247AD4ED217A1E
:101F8000E6EE877AF5EEC07AF1EE10FA22D4B7EEDB
:101F9000007AF4EEC77AF1EE10FA09DD84ED217AC9
:101FA0000FB0BDEC048BBDE8F08F4FF07E5377E4AB
:101FB000F5EEC07AC4ED217AF1EE10FA0DDBF4EE05
:101FC000C77AF1EE10FAEBD9084B5A21084A0948B2
:101FD00012F068FA9FED087AE0E7084B5921044AAD
:101FE000044812F05FFA00BF400D0300605601087C
:101FF000205601080456010800000000145601088C
:10200000D0ED193AD0ED1B7AD0F8843167EEA37A7F
:102010009FED636A03EE903A9FED624ADFED624AFC
:1020200027EE866ADFED616AF8EEE33A9FED605ACB
:102030009FED607A27EE844ADFED5F5A67EEA44A8F
:10204000B4EEE36A9FED5D3A67EEA66A80ED084A5A
:1020500027EE855A80ED096A27EE877AC0ED0A4A95
:1020600067EEA55AC0ED0B6A67EE837A80ED0C5AD5
:10207000F1EE10FA80ED0D7AC0ED0E5AC0ED0F7A38
:1020800004DB013B06EE103AB8EEC66AB5EEC06A54
:10209000F1EE10FA6FD4FDEEC65A15EE902AF8EE66
:1020A000E55A36EE656AD0F8283280ED606A06EEB1
:1020B000103AC0F87C21B8EEC66AF4EEC66AF1EEBA
:1020C00010FA04DB013B06EE903AF8EEE66AF5EE14
:1020D000C06AF1EE10FA5ED4BDEEE66A16EE102A82
:1020E000B8EEC66A76EEC66AD0F87432C0ED896A78
:1020F00006EE903AC0F82022F8EEE66AB4EEE67AF0
:10210000F1EE10FA04DB013B07EE103AB8EEC77AA5
:10211000B5EEC07AF1EE10FA39D4FDEEC76A16EECC
:10212000902AF8EEE66A37EE667AD0F8183380ED3A
:102130009C7A07EE103AC0F86C22B8EEC77AF4EE3B
:10214000C77AF1EE10FA04DB013B07EE903AF8EEA5
:10215000E77AF5EEC07AF1EE10FA10D4BDEEE77A28
:1021600017EE103AB8EEC77AC0F8103377EEC77A98
:10217000C0EDC57A70479FED126A002293E7DFED4C
:10218000107A0023C0EDC57AC0F8103370479FED78
:102190000C7A0022C9E7DFED0A6A0022A4E700BF3B
:1021A00000288B45000028440000E1440080684579
:1021B0000000634400C883450000264500B0454543
:1021C00000000000D0ED177AB7EE007AF4EEC07A86
:1021D00010B5F1EE10FA044658BFF0EE407AF4EE76
:1021E000C77AF1EE10FA3FD49FED236AC7EE276A53
:1021F00087EE867A84ED197A04F54770C4ED187A73
:10220000C4ED236AB0EE670AFEF78AFD94ED180A62
:1022100004F55470FEF784FD94ED197A231F04F140
:102220001802D3ED017A0433F8EEE77A934267EEB1
:10223000877AFDEEE77AC3ED107AF2D1D4ED1B7AFE
:1022400020469FED0E7AF4EE477AF1EE10FA48BF81
:10225000F0EE477AC4ED1B7AFFF7D2FEFEF730FFAF
:10226000BDE81040FEF7CCBEF0EE476A9FED047A61
:10227000F0EE667ABEE700BF0082E84617B7D138B5
:10228000D2EE0C382DE9F84FDFF804E4044600F5EF
:10229000477A00F554798446F7EE007AB8EE007A72
:1022A0000025B6EE006ADFEDE85AF0EE006ADFEDD9
:1022B000E71A9FEDE72A0026DFEDE62A4FF40077C4
:1022C0009FEDE53A4FF0010BDFEDE43A9FEDE44A74
:1022D000DFEDE44A9FEDE45ADFF8B883BEE80F0073
:1022E0002DED068BACE80F009FEDE08AB0EE409A32
:1022F000DFEDDFAAF0EE608A9FEDDEAAF0EE480A7D
:10230000DFEDDD9A9FEDDD0A9EE807008CE807000F
:10231000C4ED1B7A04F5C470C4ED0B1A84ED0C2ACD
:10232000C4ED0D2A84ED0E3AC4ED0F3A84ED194A3E
:1023300084ED1A1AC4ED08AA84ED09AAC4ED0A9A1C
:10234000E56184ED178A84ED188A25676567A567BE
:10235000C4ED217AC4ED247AC4ED287A84ED2B7A79
:10236000C4ED327A84ED357AC4ED3C7AC4ED224A6C
:1023700084ED235AC4ED2D5A84ED296AC4ED2A6AEE
:10238000C4ED375A84ED336AC4ED346AC4ED415A62
:1023900084ED3D6AE56784F8806084F8B8B084F81D
:1023A000E0B084F808B1C4F89450C4F8985084EDB3
:1023B000278AC4F8B050C4F8BC50C4F8C05084EDAB
:1023C000318AC4F8D850C4F8E450C4F8E85084ED19
:1023D0003B8AC4ED467A84ED3F7A84ED497AC4EDB8
:1023E0003E6AC4ED4B5A84ED476AC4ED486AC4F8AE
:1023F000005184F830B1C4F80C51C4F8105184ED88
:10240000458AC4F82851C4F83451C4F83851C4F886
:102410004451C4F84851C4F85851C4F85C71C4F828
:102420003C51C4F84051C4F86451C4F86851C4F830
:102430006051C4F86C51C4F87051C4F88051C4F8AC
:102440008471C4E95466C4E95E66D8F800309A1C09
:10245000C4F84C315B44C8F80020C4F87431FEF76E
:10246000CBFAF0EE480AB2EE040A04F5D670FEF795
:102470008BFBD8F80030F0EE480A9FED800A03EBA2
:102480000B02C4F8F03104F51E70C4F8E851C4F82A
:1024900018229A1CC4F8EC51C4F83C22DA1C04330C
:1024A000C4F8FC51C4F80072C4F8E051C4F8E45117
:1024B000C4F80852C4F80C52C4F80452C4F81052BC
:1024C000C4F81452C4F82452C4F82872C4F8345220
:1024D000C4F83852C4F84852C4F84C72C4F82C52AC
:1024E000C4F83052C4F85452C4F85852C4F8505288
:1024F000C4E97D66C4E98766C4E99066C4F85C52A5
:10250000C4F86422C4F86052C4F87052C4F87472FB
:10251000C8F80030C4E99A66FEF76EFAF0EE480A91
:10252000B2EE040A04F52770FEF72EFBD8F800304F
:10253000B2EE040A504603EB0B02C4F8E032023359
:10254000F0EE480AC4F80823C4F8D852C4F8DC52A4
:10255000C4F8EC52C4F8F072C4F81873C4F8D0523E
:10256000C4F8D452C4F8F852C4F8FC52C4F8F45277
:10257000C4F80053C4F80453C4F81453C8F8003026
:10258000C4E9B966C4E9C366FEF7FEFAF0EE480A8C
:10259000B2EE040A4846FEF7F7FAB0EE490A2046C2
:1025A000C4ED078AFFF70EFEB3EE040A5046FEF7AD
:1025B00087FBB3EE040A4846FEF782FBDFED307A74
:1025C00094ED287AB4EE677AF1EE10FA07D0D4EDE4
:1025D000276AC4ED287A87EEA67A84ED2D7ADFED9E
:1025E000297A94ED327AB4EE677AF1EE10FA07D0D8
:1025F000D4ED316AC4ED327A87EEA67A84ED377A6B
:10260000DFED217A94ED3C7AB4EE677AF1EE10FAC0
:1026100007D0D4ED3B6AC4ED3C7A87EEA67A84ED10
:10262000417ADFED1A7A94ED467AB4EE677AF1EEEC
:1026300010FA31D0D4ED456AC4ED467A87EEA67A19
:1026400084ED4B7A28E000BF3EC3AE37008068457A
:102650000000634400C883450000264500B045459E
:10266000D671CE3F6F12033BAAAA2A3C00803B479B
:102670000000284400288B450000E1440042AC469D
:10268000CDCCCC3D9A99193E8FC2F53DEC51383EE8
:1026900050550108800C00244FF07A504FF07C53C5
:1026A0004FF080414FF04042C4F8BC004FF07D50E5
:1026B000C4F8E430C4F80C012046C4F8A430C4F8CF
:1026C000A810C4F8AC20C4F8CC30C4F8D010C4F8BA
:1026D000D420C4F8F430C4F8F810C4F8FC20C4F8CE
:1026E0001C31C4F82011C4F82421BDEC068BBDE8D0
:1026F000F88F00BF4FF07E534FF07D52E4492DE933
:10270000F0472DED048BC36200F14409C363044616
:10271000E04B90B09FEDE08A00F17808DFEDDF8AB2
:10272000B0EE409A026300F1AC0ADD4AB2EE040A50
:102730000362F0EE609A4362F0EE680AD94B04F14E
:10274000D005416300268263836080ED008AC0ED7E
:10275000018A80ED038A80ED048A80ED058A80ED90
:10276000068A80ED078A80ED0A8A80ED108A484645
:102770008DED011AFEF708FAB2EE040A4046F0EEBB
:10278000680AC94FFEF700FAF0EE680A9FEDC70A23
:102790005046FEF731F9B2EE040AF0EE680A284618
:1027A000FEF7F2F93B684FF400729DED011A591CD7
:1027B000C4F80C31C4F81C21F0EE690AC4F83011D9
:1027C000991CC4F84021B0EE490AC4F8702104F500
:1027D000F07084ED418A84ED428A84ED468A84ED6E
:1027E0004A8A84ED4B8A84ED4F8A84ED488A84EDD1
:1027F000498A84ED528A84ED538A84ED518A84EDAE
:10280000568A84ED578A84ED5B8A84ED548A84ED80
:10281000558A84ED5E8A84ED5F8A84ED5D8AC4E921
:102820004466C4E94D66C4E95966C4F86011C4F849
:10283000A021C4F8D021DA1C84ED628AC4F890216A
:102840001A1D053384ED638AC4F8C02184ED678ABC
:1028500084ED608A84ED618A84ED6A8A84ED6B8AF6
:1028600084ED698A84ED6E8A84ED6F8A84ED738AC3
:1028700084ED6C8A84ED6D8A84ED768A84ED778AA6
:1028800084ED758A3B60C4E96566C4E97166FFF74B
:10289000F9FC9FED877A3B6804F26452C9EE077A2F
:1028A0009FED840A82ED008A03A8C4F80C3101333D
:1028B00084ED019A3B60804BF0EE680A84ED418A1A
:1028C000C4F81C3184ED428A84ED468AC4E944662A
:1028D000C4ED027AFEF790F80DF10C0ED446F0EE3E
:1028E000680AB0EE480ABEE80F00ACE80F00BEE888
:1028F0000F00ACE80F00DEF8003003A8CCF8003081
:10290000FEF742F9D4ED027ADFED6C6A0DF10C0CA2
:102910009FED6B7AAE4667EEA66AD4ED0C5A27EEB1
:10292000877A3D68FDEEE66A05F1010ABDEEC77AD9
:10293000B8EEE66AB8EE477ABCE80F00B4EEC67AA5
:10294000AEE80F00BCE80F00AEE80F00BCE80F00D7
:10295000F1EE10FAAEE80F00DCF80030CEF80030EF
:10296000C0F2398116EE903A013B07EE103AB8EE0C
:10297000C77AB5EEC07AF1EE10FA40F12C819FEDE6
:10298000515A00239FED506AEA1C27EE855AC4ED88
:10299000506A27EE866A9FED407AC4F830A1BDEEFA
:1029A000C55AC4F83861BDEEC66A84ED4F8A84ED1D
:1029B000487AF8EEC56A84ED497AB8EE466A84ED45
:1029C0004A7A84ED4B7AC4ED515AB4EEE66A84ED4E
:1029D000527A84ED537AC4F83431F1EE10FA0EDBFA
:1029E00015EE101A013906EE101AB8EEC66AB5EEE9
:1029F000C06AF1EE10FA02D5B0EE476A07E0BDEE0C
:102A0000C67A17EE103AB8EEC77A36EE476ADFEDAF
:102A10002F6A691DC4ED5D5ADFED2D5A67EEA66A77
:102A200084ED5B6A67EEA55A9FED1B7AFDEEE66AC0
:102A3000C4F868310023C4F86021FDEEE55A626BEA
:102A4000F8EE666A84ED547A84ED557AB8EEE56A5C
:102A500084ED567A84ED577A84ED5C5AF4EEC66ABA
:102A600084ED5E7A84ED5F7AC4F86431F1EE10FA99
:102A700036DB15EE900A013806EE900AF8EEE66AAB
:102A8000F5EEC06AF1EE10FA2AD5F0EE476A2FE0B3
:102A90000000203F00401C460000000000803B4733
:102AA00072F97F3FD671CE3F800C00240042AC46C5
:102AB0000082E84600E0AB460AEE020000008D44CA
:102AC00000000D43000056440000D6420080BD4384
:102AD00000803D4500800A4500808A4300000000D8
:102AE000BDEEE67A17EE103AB8EEC77A76EEC76A10
:102AF0001FED086A1FED085AC4ED676A67EE866A23
:102B000067EE857A1FED0B7AC4F8901105F1080184
:102B1000FDEEE66AC4F89831FDEEE77A002307354A
:102B200084ED607AB8EEE66A84ED617AF8EE677A51
:102B300084ED627A84ED637AC4ED685AF4EEC67A65
:102B4000C4F8A42184ED6A7A84ED6B7AF1EE10FA70
:102B5000C4F89431396035DB16EE901A013907EE6E
:102B6000901AF8EEE77AF5EEC07AF1EE10FA29D570
:102B7000C4F8C8310023C4F8D4210022484684EDAB
:102B8000737AC4ED746AB3EE040AC4F8B031C4F8C1
:102B9000B431C4F8B831C4F8BC31C4F8C421C4F8A5
:102BA000D831C4F8DC31C4F8C051FEF789F840468A
:102BB000B3EE040AFEF784F8204610B0BDEC048B97
:102BC000BDE8F087BDEEE77A17EE103AB8EEC77AA7
:102BD00037EEC77ACCE7BDEEC76AB8EEC68A16EE06
:102BE000106A37EE488ACAE6F0EE407A90ED080A9D
:102BF00070B5044600F1AC0600F1D0052DED028B56
:102C0000C0ED117A3046C4ED1E0AFDF799FF94ED30
:102C1000070A2846FEF754F804F14400FEF72AF8A4
:102C2000B0EE408A04F17800FEF724F8304638EE22
:102C3000000A84ED2B0AFDF731FF284684ED340AA3
:102C4000FEF718F8B84AB94BD4F8D450D4E9431079
:102C5000C4F8045102FB010203EB82021560D4F8B0
:102C60001421D4F81C51821A00F10100D4ED465A07
:102C700048BF5219A84294ED516A08BF0020D4ED14
:102C80004B6AC4F81001501E48BF4019A64D05FB01
:102C900001F10A440144D4F8340103EB8202D2ED7D
:102CA000007A03EB8102D4F8301192ED007A05FB33
:102CB0000105D4F8382137EE677A03EB8505821ACF
:102CC00000F10100E5EE877AB0EE677AC4ED427A52
:102CD000C4ED487AA6EE867AE6EE476A84ED527A2B
:102CE00084ED4A7AC4ED496A85ED007AD4ED495AFB
:102CF000D4F84051F0EE657A94ED5D6A48BF521900
:102D000094ED577AA84294ED4F5AE7EE067A08BF41
:102D10000020C4F83401501E48BF4019824DA6EE71
:102D2000677A05FB01F10A44014403EB8202F0EEED
:102D3000476A92ED007A03EB8102D4F8601192EDBC
:102D4000006AC4ED545AC4ED5E7AC4ED556A76EE5D
:102D5000476AD4F86401D4F86821A5EE267A05FB09
:102D60000105C4ED567A821A03EB850500F10100D6
:102D700084ED4B7AC5ED007AD4ED555AD4F87051F4
:102D8000F0EE657A94ED696A94ED637A48BF521962
:102D9000A84294ED5B5AE7EE067A08BF0020C4F81B
:102DA0006401501E48BF40195F4DA6EE677A05FBCF
:102DB00001F10A440144D4F8940103EB8202F0EEDD
:102DC000476A92ED007A03EB8102D4F8901192EDFC
:102DD000006AC4ED616A76EE476A05FB0105D4F826
:102DE000982103EB8505C4ED605AA5EE267A821A78
:102DF000C4ED6A7A00F10100C4ED627A84ED577A7D
:102E0000C5ED007AB7EE007BD4F8A05194ED103AEE
:102E100048BF5219A842D4ED612AB7EEC33A08BFA1
:102E2000002094ED424AF0EE625AD4ED6F6AC4F885
:102E30009401501E94ED756A37EE437B48BF4019EC
:102E4000394DB7EEC44A94ED672A05FB01F1E6EE71
:102E5000865A0A44014427EE044B03EB820203EB3B
:102E60008101D2ED007AE6EE656AD4F8C00191EDF9
:102E7000007AD4F8C41137EE677AD4F8C82105FB7C
:102E80000015D4F8D0618A1A01F10101E2EE077A47
:102E900003EB850548BF9219B142C4ED765AC4EDE3
:102EA0006D6A08BF0021C4ED6E5AC4ED6C2AC4EDF2
:102EB000637AC5ED005A551ED4ED6D0A94ED107A73
:102EC00048BFAD19C4F8C41127EE207A1649D4EDD5
:102ED000735A00FB01F104F5F070B7EEC77A0A44AB
:102EE000294404F2645537EE047B03EB820203EBC2
:102EF000810304F11801F7EEC70BD2ED007A93EDD0
:102F0000007A04F1140237EE677AB0EE600AE5EE5B
:102F1000877ABDEC028BC4ED6F7AC5ED000ABDE87F
:102F20007040FEF7ADBC00BF400D0300000000C0C4
:102F300010B504464430FDF7BBFE04F17800FDF700
:102F4000B7FE04F1AC00FDF7BBFD04F1D000FDF7C6
:102F5000AFFE002304F5F070C4F80431C4F8083162
:102F6000C4F82031C4F82431C4F84831C4F84C31D5
:102F7000C4F82831C4F82C31C4F85031C4F85431A5
:102F8000C4F87831C4F87C31C4F85831C4F85C31E5
:102F9000C4F88031C4F88431C4F8A831C4F8AC3125
:102FA000C4F88831C4F88C31C4F8B031C4F8B431F5
:102FB000C4F8D831C4F8DC31C4F8B831C4F8BC3135
:102FC000BDE81040FEF71CB8DFED077A034600F5B8
:102FD000F070B4EEE70AF1EE10FA01D5B0EE670A30
:102FE00083ED930AFFF70CB817B7D138D0ED017A0B
:102FF000D0F81C3180ED000A20EE270A07EE903A47
:10300000F8EEE77AB4EEE70AF1EE10FA04DB013BE2
:1030100000EE103AB8EEC00AB5EEC00AF1EE10FAB2
:103020000CD4FDEEC07A17EE903AF8EEE77AC0F8CD
:10303000143130EE670A80ED460A70479FED030AAF
:10304000002380ED460AC0F81431704700000000EC
:10305000B5EEC00A10B5F1EE10FA40F3198104463E
:1030600000F5F07084ED010AFFF7ACF894ED010A69
:10307000DFED8B6AD4F81C31C0EE267A94ED007A2D
:1030800006EE903A20EE077AF8EEE66AB4EEE67ABB
:10309000F1EE10FAC4ED027A80F2EB80B5EEC07A60
:1030A000F1EE10FA00F1F080FDEEC76A16EE902AFC
:1030B000F8EEE66A77EE666AD4F840319FED797AE9
:1030C000C4ED466A06EE903A27EE877AC4F81421DA
:1030D000F8EEE66AB4EEE67AF1EE10FA80F2BA8023
:1030E000B5EEC07AF1EE10FA00F1BF80FDEEC76ACE
:1030F00016EE902AF8EEE66A77EE666AD4F870313A
:103100009FED697AC4ED4F6A06EE903A27EE877A12
:10311000C4F83821F8EEE66AB4EEE67AF1EE10FA79
:1031200080F28980B5EEC07AF1EE10FA00F18E805F
:10313000FDEEC76A16EE902AF8EEE66A77EE666A4A
:10314000D4F8A0319FED597AC4ED5B6A06EE903A4F
:1031500027EE877AC4F86821F8EEE66AB4EEE67ADC
:10316000F1EE10FA59DAB5EEC07AF1EE10FA5ED44B
:10317000FDEEC76A16EE902AF8EEE66A37EE667A3A
:10318000D4F8D031DFED4A6A84ED677A07EE103A61
:1031900067EEA67AC4F89821B8EEC77AF4EEC77A3B
:1031A000F1EE10FA2BDAF5EEC07AF1EE10FA30D427
:1031B000BDEEE77A17EE103AB8EEC77A77EEC77A27
:1031C000C4F8C83104F14400C4ED737AFDF7A8FDDA
:1031D00094ED010A04F17800FDF7A2FD94ED010AD7
:1031E00004F1AC00FDF774FC04F1D00094ED010A89
:1031F000FDF796FD2046BDE81040FFF799BE013B64
:1032000007EE903AF8EEE77AF5EEC07AF1EE10FAB2
:10321000CED5DFED287A0023D2E7013B07EE103A46
:10322000B8EEC77AB5EEC07AF1EE10FAA0D59FEDF0
:10323000217A0022A4E7013B07EE103AB8EEC77AE4
:10324000B5EEC07AF1EE10FA7FF572AFDFED196AD4
:10325000002275E7013B07EE103AB8EEC77AB5EEEB
:10326000C07AF1EE10FA7FF541AFDFED126A00226D
:1032700044E7013B07EE103AB8EEC77AB5EEC07AE4
:10328000F1EE10FA7FF510AFDFED0A6A002213E7C6
:10329000094B4FF4A271094A094811F003F900BF24
:1032A0000082E84600000D430000D6420080BD4386
:1032B00000808A43000000006C5601088056010817
:1032C0000456010800000000B0EE407AB1EE041B85
:1032D000B0EE000BB7EEC77A10B537EE411B0446CF
:1032E00010F0FEFC9FED047B20EE070BB7EEC00B49
:1032F00084ED070A10BD00BF0000000000807B4085
:10330000B0EE407AB1EE041BB0EE000BB7EEC77A18
:1033100010B537EE411B044610F0E2FC9FED047B34
:1033200020EE070BB7EEC00B84ED080A10BD00BFFE
:103330000000000000807B40F7EE007A9FED037AEA
:10334000002947FE277AC0ED107A70470000000080
:10335000F7EE007A80ED0E0AB4EEE70AF1EE10FA0D
:103360000FD804DDB0EE670A80ED950A7047B5EE20
:10337000C00AF1EE10FAF7D59FED060A80ED950A26
:10338000704708B5044A40F26911044B044811F033
:1033900089F800BF00000000B4560108A4560108D7
:1033A00004560108DFED127AB4EEE70A08B5F1EE33
:1033B00010FA1BDBB2EE047AB4EEC70AF1EE10FA93
:1033C00014D8C0EE076A9FED0B7A00F20C4200F5AC
:1033D0009663E6EE877AB1EE677AC0EDF97A80ED12
:1033E000D07A82ED097AC3ED097A08BDFDF726FD92
:1033F000000000003333333FB0EE407AB1EE041BDF
:10340000B0EE000BB7EEC77A10B537EE411B82B0B5
:10341000044610F065FC9FED0A7B04F55A7020EE1F
:10342000070BB7EEC00B8DED010AFDF789FB9DED93
:10343000010A04F58B6002B0BDE81040FDF780BBC7
:103440000000000000807B40B0EE407AB1EE041B2B
:10345000B0EE000BB7EEC77A10B537EE411B82B065
:10346000044610F03DFC9FED0A7B04F5637020EEEE
:10347000070BB7EEC00B8DED010AFDF721FC9DEDAA
:10348000010A04F27C4002B0BDE81040FDF718BC10
:103490000000000000807B40DFED267A90EDA07AEE
:1034A00060EE277AF4EE477AF1EE10FA07D0D0ED0D
:1034B0009F6AC0EDA07A87EEA67A80EDA57ADFED4F
:1034C0001E7A90EDAA7A60EE277AF4EE477AF1EE52
:1034D00010FA07D0D0EDA96AC0EDAA7A87EEA67AD5
:1034E00080EDAF7ADFED157A90EDB47A60EE277A51
:1034F000F4EE477AF1EE10FA07D0D0EDB36AC0EDE2
:10350000B47A87EEA67A80EDB97A9FED0D7AD0ED88
:10351000BE7A20EE070AB4EE670AF1EE10FA07D081
:1035200090EDBD7A80EDBE0AC0EE077AC0EDC37A99
:10353000704700BFCDCCCC3D9A99193E8FC2F53D66
:10354000EC51383EF3EE007A90ED917A80ED940ADA
:1035500060EE277A67EE877AC0ED977A704700BFF2
:1035600000F5F070FDF778BC90ED060A704700BFDB
:1035700090ED050A704700BF2DE9F04304462DED9C
:10358000028BB5B0039107F0F7FD0399204607F0D1
:10359000DFFE302120460DF1CE0707F0F7FD204673
:1035A00007F0F0FD2046B0EE408A07F00BFE504ACF
:1035B00007EE900A4F490DF1400C0A9202F17D424C
:1035C0004D4BF8EE677A02F201429FED4C0A6646D7
:1035D00014ADC8EE278ACDE90B124949494ACDE915
:1035E0000D12494A0F9240F60172ADF814200FCB2C
:1035F000ACE80700059904F51C70ACF8003000F049
:1036000027FA424B012204F52070196800F0BEF938
:103610003F4B04F52670C4F8983200F097FE3D4BFE
:1036200004F52770C4F89C3200F090FE40F6023397
:1036300004F52870A4F8A0324FF48073A4F8A232E5
:1036400000F084FE344B04F52970C4F8A43200F075
:103650007DFE36F8023B284612350222ADF81830BE
:10366000069900F03DFAAF42F3D104F118070423A4
:1036700014A90722384604F5C87600259FED278A4D
:1036800000F042FAE9B23846013500F061FCF0EE94
:10369000480A0146B0EE680A30460023012200F0D5
:1036A000F3F8072D06F12006ECD10CAE0AAD0EAFF3
:1036B0004034B1464FF0010835F8021B204636F879
:1036C000022B543437F8023BADF81C10ADF8202023
:1036D000ADF824300799CDF80080DDE9082300F02B
:1036E00067F9A945E8D135B0BDEC028BBDE8F083A0
:1036F000010501090000010E6C55010800000000E1
:10370000030B06090208010801070200D45601084C
:10371000020C000103020001010C00016F12033BC7
:1037200007F02CBD70B5054607F030FD05F5C874EF
:1037300005F51C76284607F04BFD2046203400F0A6
:10374000F9F8B442F6D170BD183000F0EBBB00BF01
:1037500038B500F5C87400F51C752046203400F01B
:10376000C5F8AC42F9D138BD10B50446403000F080
:1037700061F904F1940000F05DF904F1E80000F053
:1037800059F904F59E70BDE8104000F053B900BF30
:1037900010B5044600F51C7000F074F99FED391A5D
:1037A00004F14000F0EE410AB0EE410A00F028F9C1
:1037B0009FED341A04F19400F0EE410AB0EE410A94
:1037C00000F01EF99FED2F1A04F1E800F0EE410A17
:1037D000B0EE410A00F014F904F5267000F092FEF4
:1037E000F0BB9420204494ED771AD4ED6F0A94ED49
:1037F000670A00F005F904F5287000F083FEC0BBED
:103800009420204494ED8F1AD4ED870A94ED7F0A1A
:1038100000F0F6F894F8963204F52070C3B100F089
:103820007FFD00EE100A94F87A3204F59E7094ED54
:10383000971AB8EE400AA3F1FF03B3FA83F35B09CA
:1038400000EE903ABDE81040F8EE600A00F0D8B8FB
:1038500000F066FD80F00100C3B200EE103AE2E72E
:1038600004F5277000F04EFE002814BF4020E82029
:10387000B8E704F5297000F045FE002814BF402089
:10388000E820BEE700000000F6EE007A9FED166A21
:1038900020EE207A0160F7EE006A80ED036A80ED89
:1038A000020A27EE277AC6EE877AF4EEE67AF1EE80
:1038B00010FA11DDF0EE667A4FF07E514FF0000CF9
:1038C00002760022C0ED017AC0F814C0016143768F
:1038D0008276C0ED070A7047F4EEC67AF1EE10FA70
:1038E000EAD5F0EE467AE7E7000000000268037EC2
:1038F000128807EE902AFBEEC87A1BB1B7EE007A69
:1039000077EE677AD0ED056A90ED047A77EEE67A85
:10391000437E67EE877A0BB1F1EE677A90ED030A8A
:1039200090ED017A77EEC07AA7EE270A80ED030AC0
:10393000704700BF837E80ED020AABB9D0ED077AF5
:1039400027EE800AF6EE007AB7EE007A20EE270A1C
:10395000C7EE007AF4EEC77AF1EE10FA07DDF0EE6A
:10396000477AC0ED017A7047DFED067AE8E7F5EEB9
:10397000C07AF1EE10FAF4D5DFED037AC0ED017AEA
:10398000704700BF6F12033B0000000070B584B0A9
:10399000002504461646ADF80C102B462A4603991E
:1039A000009500F0D7FBA582A67504B070BD00BFDE
:1039B00030B585B004469FED110A9DF82050ADF852
:1039C0000C100399ADF808202A46ADF804308DEDAF
:1039D000000A08F011FE9DED000A2A46029904F142
:1039E0001C0008F009FE9DED000A2A46019904F129
:1039F000380005B0BDE8304008F0FEBD00007A4454
:103A000010B52DED028BF0EE608A0446B0EE418ACF
:103A100008F016FE04F11C00B0EE680A08F010FE73
:103A2000B0EE480A04F13800BDEC028BBDE810404E
:103A300008F006BE10B5044608F014FE04F11C00A0
:103A400008F010FE04F13800BDE8104008F00ABE8E
:103A500070B5044682B0C1F30726CDB2ADF80410AC
:103A600000F020FE4FF480724FF001232060A01D73
:103A7000A571A280E671A36002B0BDE8704000F0BD
:103A800065BC00BF38B5044600F00CFE0022236878
:103A90002271834210D00122A57AE37A95402060FA
:103AA0002271A01D6DB243B900F02CFD40B2284335
:103AB000C0B27F28A0720AD038BD00F023FDB0FA52
:103AC00080F040092843C0B27F28A072F4D100F0F2
:103AD000E9FD07EE900AF8EE677AC4ED037A38BD87
:103AE00000B583B04FF0000E4FF0030C4274ADF8F8
:103AF0000410BDF8043080F810E0A0F802C0038084
:103B000003B05DF804FB00BF2DE9F04FDFF81C8324
:103B100000258DB0C04C037008F140034260074699
:103B200001920E46202229464046C4F86831C4F866
:103B30006481CDE90255CDE90455CDE90655CDE9BD
:103B40000855CDE90A5510F023FD2022294604F539
:103B5000A170C4F83151C4F83551C4F83951C4F8D2
:103B60003D5110F015FD019B84F8485284F8303126
:103B70007A68002A6AD02B4604F59871454606F10A
:103B8000100A9E46F01856F803B0E2180EF1010E26
:103B9000D0F80CC0D0F80490D0F8088044F803B0F6
:103BA000C2F80CC04FF0000CC2F80490C2F80880B4
:103BB000008A25F802CB10821AF8032001F8012FA1
:103BC000002A70D07A684FF001001233724584F8F1
:103BD0004802D7D84FF4802290489DF8043008213D
:103BE0004FF000084FF00009C4F884310023C4E905
:103BF0005B020122C4F8743184F88031C4E95E218B
:103C000094F84812C4E96489A9B3C4F89821002241
:103C100084F8813184F888313B78C4E96722002B2D
:103C200038D0012200200121013B84F8A421C4E9FD
:103C30006C01082B30D8DFE813F0BD00C200C700CC
:103C4000CC00D100D600DB00E100E8009DF8043094
:103C50000121C4F87421C4F884314FF4802384F81E
:103C600080216E4AC4E95B2308230022C4E95E1365
:103C70000023C4E964230123002284F88131002356
:103C800084F888310323C4F898313B78C4E967226B
:103C9000002BC6D184F8A431614801F07FFD0346B2
:103CA00038B1FFBEFEE77A68123372453FF66AAF5D
:103CB00090E702A95A48029301F0CEFE82460028FE
:103CC00076D1042240F2FF710A90CDE9081294F8EF
:103CD0003021002A00F0F3804FF006080AEBCA03F7
:103CE0004FEACA0904EB43035B7C072B07D8DFE8E4
:103CF00003F0595C5653504D4A04072307930FFABB
:103D00008AF6D14406EBC60604EB490904EB4607E4
:103D10007500384600F01AFB99F81030042B00F3B8
:103D2000AA80022B00F3BD8000F0B98004EB0A03E7
:103D3000002283F8202114F81630002B78D0022BB3
:103D400000F08A80012B40F0B2807B78012B00F0DC
:103D5000B080002B334B18BF002305A93048CDE9B4
:103D6000053801F047F9002840F0AC800AF1010A5B
:103D700094F830315FFA8AFA534540F2A0802A4B1A
:103D800053F82A80AAE706230793B8E70523079389
:103D9000B5E704230793B2E703230793AFE70223B2
:103DA0000793ACE700230793A9E701230793A6E74E
:103DB000FFBEFEE703224023C4E96A236CE7072223
:103DC0006023C4E96A2367E70F228023C4E96A23DA
:103DD00062E71F22A023C4E96A235DE73F22C023D4
:103DE000C4E96A2358E77F22E023C4E96A2353E742
:103DF000FF224FF48073C4E96A234DE740F2FF12BB
:103E00004FF49073C4E96A2346E740F2FF324FF45F
:103E1000A073C4E96A233FE7880C00240020024015
:103E2000F40D00240002B025D8560108000000302F
:103E30007B78062B37D0072B3DD0022B4AD0032BA3
:103E40004AD0002B4CD0012B48D0042B4AD0052B54
:103E5000254B18BF002380E77B78042B25D0052B4A
:103E60002BD08BB3012B31D0022B31D0032B1F4B26
:103E700018BF002371E70323043504EB0A0B4FF04E
:103E8000000925448BF82031284609F1010900F08A
:103E90005DFA9BF8203104354B45F5DC4BE70123F7
:103EA000EAE70223E8E7124B57E7124B55E70023F6
:103EB00053E7114B51E7114B4FE7114B4DE70DB055
:103EC000BDE8F08FFFBEFEE70E4B46E70E4B44E722
:103ED0000E4B42E70E4B40E70E4B3EE70E4B3CE7E6
:103EE0000E4B3AE70E4B38E70000B84F00209036F3
:103EF0000800900C1000C0102000F0148000501D2D
:103F0000000180210004002A0008302E00106032D9
:103F10000040C03A0080F03E0000524700002143BC
:103F20000000844B38B5094C40F2FF724FF001118C
:103F300004F5B675284601F03DFD94F83021D4F81B
:103F400064112846BDE8384001F0A8BA880C002466
:103F5000034B0F29D3F8640198BF00EB4100704771
:103F6000880C0024214B02689A4200D07047204AF6
:103F700000232048D2F8D81030B51F4C41F0200162
:103F800083B0C4F8D001092004F5E875C4E97503CD
:103F90004FF48060C2F8D810D2F8D8204FF40061F6
:103FA000C4E9773094F8480202F02002C4F8E41122
:103FB0004FF40051984201922846C4F8E811C4E930
:103FC0007C33019B14BF00234FF48073C4F8EC31A1
:103FD00001F068FF08B1FFBEFEE704F5B673C4F850
:103FE000B851C4F8083203B030BD00BF0020024011
:103FF0000044025840000240880C0024014802F0AE
:10400000C9BA00BF580E002402682DE9F84F4B4B87
:104010009A4201D0BDE8F88F494D95F84832002BFF
:10402000F8D095F83031002B77D0002405F10C0939
:1040300005F5A17605F59877A04613E003F0010198
:1040400017F811BCA9F1080000F06AFABBF1010FE2
:1040500025D895F83031013409F112090236A2B29F
:1040600093422BD917F8012F002AF4D0D5F86431E8
:104070000021327833F81400D5F8683103EB0413CB
:1040800023F81200338801339BB233805FFA83FA3E
:104090003A789A42D2D88A46A6F80080D0E7CAF386
:1040A0004001A9F1040000F03BFABBF1020FCAF392
:1040B0008001CED0484600F033FACAE7002395F8D5
:1040C0004802204909229842C5F8D8314FF480604F
:1040D000C5F8D011C5F8D4214FF400614FF4005257
:1040E000C5F8DC3108BF4FF48073C5F8E821C5E995
:1040F000780100221448C5E97B32C5F8F42101F0AB
:10410000D1FE08B1FFBEFEE795F83021D5F8641165
:104110000E48BDE8F84F01F0C1B90A4909224FF431
:104120008060C5F8D831C5E974124FF400614FF4CE
:104130000052C5E97730C5E97912DAE7002002407C
:10414000880C002440000240580E0024F40D002486
:10415000704700BF10B592B0ADF804100180C9B22D
:10416000149C0B29C460C0E901233FD090F801C022
:10417000BCF10F0F3AD8022A3FD0032A02D0012AFD
:1041800000D000220E92012B02D0022B18BF002378
:10419000022C0F932CD0032C2AD0012C28D00023E2
:1041A0000A29109327D85C4A02EB812202610A296E
:1041B00014D8DFE801F0A39587796B5D4F41332573
:1041C0000600564BD3F8E01041F48061C3F8E010CC
:1041D000D3F8E03003F480630C930C9B01230DA90A
:1041E000104603FA0CF30D9302F026FD12B010BD39
:1041F0000A291094D7D90022D8E711220E92C2E7DB
:10420000464BD3F8E01041F40071C3F8E010D3F846
:10421000E03003F400730B930B9BDFE73F4BD3F8C5
:10422000E01041F48071C3F8E010D3F8E03003F4FB
:1042300080730A930A9BD1E7384BD3F8E01041F022
:104240008001C3F8E010D3F8E03003F08003099355
:10425000099BC3E7314BD3F8E01041F04001C3F8AC
:10426000E010D3F8E03003F040030893089BB5E773
:104270002A4BD3F8E01041F02001C3F8E010D3F846
:10428000E03003F020030793079BA7E7234BD3F805
:10429000E01041F01001C3F8E010D3F8E03003F073
:1042A00010030693069B99E71C4BD3F8E01041F0EE
:1042B0000801C3F8E010D3F8E03003F008030593D9
:1042C000059B8BE7154BD3F8E01041F00401C3F8D0
:1042D000E010D3F8E03003F004030493049B7DE77F
:1042E0000E4BD3F8E01041F00201C3F8E010D3F810
:1042F000E03003F002030393039B6FE7074BD3F80F
:10430000E01041F00101C3F8E010D3F8E03003F011
:1043100001030293029B61E7000002580044025827
:1043200008B5012143780069994089B202F08CFEFA
:10433000003818BF012008BD01230A4641780069F2
:1043400003FA01F189B202F085BE00BF8378022B27
:1043500030B504468FB037D0032B33D0012B31D08A
:1043600000230A93E378012B2AD0022B28D00023C4
:104370000B93002320460C9300F0B6FC0546204624
:1043800000F0BAFC23780990082B13D8DFE803F07B
:104390001F3245586B7E91A40500594BD3F8E0209D
:1043A00042F48072C3F8E020D3F8E03003F4807365
:1043B0000893089B09A9284602F03EFC0FB030BDC7
:1043C0000B93D6E70A93CDE711230A93CAE74C4B28
:1043D00009A92846D3F8E02042F00102C3F8E02002
:1043E000D3F8E03003F001030093009B02F024FCBB
:1043F0000FB030BD424B09A92846D3F8E02042F067
:104400000202C3F8E020D3F8E03003F00203019386
:10441000019B02F011FC0FB030BD394B09A92846B1
:10442000D3F8E02042F00402C3F8E020D3F8E030F3
:1044300003F004030293029B02F0FEFB0FB030BDB9
:104440002F4B09A92846D3F8E02042F00802C3F810
:10445000E020D3F8E03003F008030393039B02F05D
:10446000EBFB0FB030BD264B09A92846D3F8E0205E
:1044700042F01002C3F8E020D3F8E03003F010035C
:104480000493049B02F0D8FB0FB030BD1C4B09A96C
:104490002846D3F8E02042F02002C3F8E020D3F809
:1044A000E03003F020030593059B02F0C5FB0FB03D
:1044B00030BD134B09A92846D3F8E02042F0400252
:1044C000C3F8E020D3F8E03003F040030693069BE6
:1044D00002F0B2FB0FB030BD094B09A92846D3F852
:1044E000E02042F08002C3F8E020D3F8E03003F08F
:1044F00080030793079B02F09FFB0FB030BD00BF06
:104500000044025838B5054600F0EEFB0446284644
:1045100000F0F2FB01462046BDE8384002F094BDB1
:1045200070B506460D4600F0DFFB0446304600F04D
:10453000E3FB2A1E0146204618BF0122BDE8704059
:1045400002F088BD704700BF08B500F0DDFCBDE893
:10455000084001F0BDBB00BF064808B503680BB1B9
:1045600002F07CFD044803681BB1BDE8084003F07D
:1045700049B908BDE0120024D80E0024064808B549
:1045800003680BB102F06AFD044803681BB1BDE883
:10459000084003F037B908BDE0120024D80E00240B
:1045A000064808B503680BB102F058FD04480368DB
:1045B0001BB1BDE8084003F025B908BDE012002496
:1045C000D80E0024364BDA6A520062D59A6A9A6A8B
:1045D0009A6A9B6A180600D500BE314B9B6A990601
:1045E00000D500BE2E4B9B6ADA0600D500BE2C4BD0
:1045F0009B6A1B0700D500BE294B9B6A980700D514
:1046000000BE274B9B6AD90700D500BE244B9B6A8E
:104610001A0400D500BE224B9B6A9B0400D500BE45
:104620001F4B9B6AD80400D500BE1D4B9B6A190521
:1046300000D500BE1A4B9B6A5A0500D500BE184B28
:104640009B6A9B0500D500BE154B9B6AD80500D51B
:1046500000BE134B9B6A990100D500BE104B9B6AAC
:10466000DA0100D500BE0E4B9B6A1B0300D500BECD
:104670000B4B9B6A580300D500BE094B9B6A9903FC
:1046800000D500BE064B9B6ADA0306D400BE00BE0E
:10469000FEE7DB6A9B07FAD5F8E700BEF6E700BF46
:1046A00000ED00E000F03CBC00F040BC0A4B9B6811
:1046B00003F17843B3F5003F0BD3084B986848B13A
:1046C0009868012806D09868022803D09B680320C8
:1046D00070470120704700BF00ED00E00000803807
:1046E0002DE9F041CEB004464C2200210AA80FF07B
:1046F0004FFF2022002102A80FF04AFFBC22002118
:104700001EA80FF045FF022003F0F0FC2368012BE8
:104710004FF0000354D0534A02250193C820D16AB8
:10472000514B21F00101D162D26A02F001020192E3
:104730009A6942F440429A619B6903F440430193B1
:10474000019B494A93699B04FCD5484902240022F5
:1047500001268B6A04274FF0080823F00303234344
:104760008B62052316900AA818934FF48033109695
:10477000179419941597CDF86880CDE91B22212252
:10478000CDE91344CDE90A2303F0DEFC00B1FEE7D6
:104790003F220323294602A8CDE902230022082351
:1047A000CDE9042340224023CDE9062340234FF4E2
:1047B0008062CDE9082303F0F5FF0346B8B1FEE7B8
:1047C000294A04250093F0209169264B41F4404189
:1047D0009161926902F440420092DA6A42F0010269
:1047E000DA62DB6A03F001030093009BA9E7202251
:1047F0004FF4805125934FF440152B9280222D9336
:104800001EA83093269135914FF4807124923492F2
:104810000C223394439140F2271120921022CDF8BC
:1048200084802A971F96CDE92E34CDE93B334FF48F
:104830008033CDE922463193002446930623CDE907
:104840003E4527934FF48063094C2C931E94CDE989
:10485000281204F003FA00B1FEE703F06DFC4EB03D
:10486000BDE8F08100040058004802580044025896
:104870000F130F0370B584B0012401F0D7F94FF482
:1048800080764FF04052194B68460025ADF8004045
:104890000396CDE9012301F0E7F919224FF04043D7
:1048A00068468DF8082001938DF80F40ADF80D6033
:1048B0008DF801408DF80A5001F0D6F902230B2241
:1048C00068468DF80F508DF801304FF062538DF827
:1048D00008200193ADF80D408DF80A4001F0C4F9AD
:1048E000042001F0B1F904B070BD00BF0E00010357
:1048F00030B50D46044685B0D1E9000184E80300D7
:1049000000F0D2FAAB79A3B30AF0DCFE07F0D4FFD3
:1049100009F042FB0AF0CEFB2B798BBB6B799BB184
:10492000BFF34F8FBFF36F8F2A4B0022C3F8502283
:10493000BFF34F8FBFF36F8F5A6942F400325A6151
:10494000BFF34F8FBFF36F8F4FF0FF320023002470
:1049500000256946204802928DF80C30CDE90045CB
:1049600009F03AFF1C4809F09FFF08F0F3FB05B07F
:1049700030BD2046FFF7B4FE2046FFF77BFFC3E7BC
:10498000144C0023C4F88430BFF34F8FD4F8801048
:1049900043F6E07EC1F34E3CC1F3C9014FEA4C1C23
:1049A0000CEA0E000B4640EA8372013BC4F8602219
:1049B0005A1CF8D1ACF1200C1CF1200FF0D1BFF340
:1049C0004F8F636943F480336361BFF34F8FBFF34D
:1049D0006F8FA3E700ED00E0D40E002404F012B8BE
:1049E0001C4B9B6803F17842B2F5003F25D3B3F529
:1049F000803F20D303F16042B2F5003F1FD303F1A3
:104A00005C42B2F5002F1CD303F17042B2F5902F37
:104A100019D303F14842B2F5803F16D303F1804227
:104A2000B2F1806F13D303F1E043B3F5000F2CBF55
:104A3000082007207047012070470020704702209F
:104A400070470320704704207047052070470620F8
:104A5000704700BF00ED00E003480023034A04490B
:104A600003600FF037B900BFD40E0024000000240B
:104A70004545000810B4204C0022204B83B0D4F8E8
:104A800088101F4841F47001C4F8881019681D4C43
:104A900041F0010119601A61196808401A4918604B
:104AA0009A61DA611A629A62DA621A635A639A63E5
:104AB000DA631A645A64186820F4802018601A6651
:104AC000D3F8DC2042F06042C3F8DC20D3F8DC30BD
:104AD0000193019B23681940B1F1005F03D20B4B96
:104AE0000122C3F80821044B4FF000629A6003B022
:104AF0005DF8044B704700BF00ED00E00044025831
:104B00007FEDF6EA0010005C0000FFFF008000511E
:104B100000F57171D0F8040405F016BFC1EBC103B4
:104B200000EB8303D0F80404D3F8082205F03ABF61
:104B3000C1EBC10300EB8303D0F804049A6C05F0C9
:104B40006FBF00BFD0F8040406F00EB8C16810B5FE
:104B5000044619B1022900D0FEE70121D4F804046B
:104B600005F0ECFFD4F80404BDE8104005F0BEBF2A
:104B700010B50446D0F8040405F0E4FF2268D2F82A
:104B8000003E43F00103C2F8003E236A23B1034A0A
:104B9000136943F00603136110BD00BF00ED00E090
:104BA000D0F8040405F0D8BFD0F8040405F0ECBF39
:104BB000D0F8040405F0E6BFD0F8040405F0E6BF21
:104BC000D0F8040405F0E4BF9446D0F898021A46E1
:104BD00008B5634603F07AF9032802D8024B185C43
:104BE00008BD022008BD00BF28570108D0F8980270
:104BF00008B503F0F9F9032802D8024B185C08BD88
:104C0000022008BD28570108D0F8980208B503F023
:104C10002FFA032802D8024B185C08BD022008BDF9
:104C2000285701080A06D0F8983206D4C1EBC10112
:104C300003EB810191F8FE01704701F07F01C1EBA8
:104C4000C10103EB810191F83E007047D0F8980252
:104C500008B503F025F9032802D8024B185C08BDFB
:104C6000022008BD28570108D0F8980208B503F0C3
:104C700093F9032802D8024B185C08BD022008BD36
:104C800028570108D0F8980208B503F05DF9032809
:104C900002D8024B185C08BD022008BD2857010845
:104CA000D0F8C00206F022BAD0F8C00206F036BA38
:104CB000D0F8C00206F03EBA704700BFD0F8C0027C
:104CC00006F024BAD0F8C00206F024BAD0F8D00317
:104CD00008B502F083FD032802D8024B185C08BD1A
:104CE000022008BD2C570108024B027853F822001D
:104CF000704700BF50570108024B427833F812004A
:104D0000704700BF305701088CB00A2814D8DFE87C
:104D100000F01523313F4D5B6977859306004D4BBD
:104D2000D3F8E02042F48062C3F8E020D3F8E0300A
:104D300003F480630B930B9B0CB07047454BD3F887
:104D4000E02042F00102C3F8E020D3F8E03003F0A5
:104D500001030193019BEFE73E4BD3F8E02042F0C3
:104D60000202C3F8E020D3F8E03003F0020302931C
:104D7000029BE1E7374BD3F8E02042F00402C3F88E
:104D8000E020D3F8E03003F004030393039BD3E760
:104D9000304BD3F8E02042F00802C3F8E020D3F80B
:104DA000E03003F008030493049BC5E7294BD3F8D4
:104DB000E02042F01002C3F8E020D3F8E03003F026
:104DC00010030593059BB7E7224BD3F8E02042F090
:104DD0002002C3F8E020D3F8E03003F0200306936C
:104DE000069BA9E71B4BD3F8E02042F04002C3F832
:104DF000E020D3F8E03003F040030793079B9BE7E4
:104E0000144BD3F8E02042F08002C3F8E020D3F83E
:104E1000E03003F080030893089B8DE70D4BD3F837
:104E2000E02042F48072C3F8E020D3F8E03003F4CD
:104E300080730993099B7FE7064BD3F8E02042F487
:104E40000072C3F8E020D3F8E03003F400730A9353
:104E50000A9B71E700440258704700BF0F4B1B7854
:104E60000BB90120704710B504464FF47A700C4A14
:104E7000B0FBF3F31068B0FBF3F000F0C1FE0F2CB1
:104E800000D808B1012010BD002221464FF0FF30AC
:104E900000F056FE034B00201C6010BD38000024BB
:104EA000300000243C00002438B50320124D00F0EF
:104EB00035FE124C03F0D6FB114A12499369C3F335
:104EC0000323CB5C03F01F0320FA03F30E202B60B7
:104ED000926902F00F028A5C02F01F02D340236045
:104EE000FFF7BCFF10B10124204638BD0446FFF790
:104EF000B3FF204638BD00BF30000024340000243A
:104F00000044025818570108034A044B11681B78E3
:104F10000B441360704700BFA41500243800002420
:104F2000014B1868704700BFA415002438B504462B
:104F3000FFF7F6FF0546631C02D0044B1B781C44A8
:104F4000FFF7EEFF431BA342FAD338BD380000241D
:104F5000014B1868000C70470010005C704700BFE0
:104F6000806B08B5FFF7FAFF08BD00BF836B5A6D71
:104F700012F0500F5A6D10B51DD1196842F400722D
:104F80005A650A6812F0080FCA681BD012F4406F05
:104F90000DD1CA6894040AD45A6D22F480725A65FD
:104FA0005A6DD10403D45A6D42F001025A65184675
:104FB000FFF72AF810BDD2060AD4DB6CBDE810401A
:104FC000DB6C18479007E7D01846FFF71DF8F1E7AC
:104FD0001846FFF7BDF810BD806B08B5436D43F070
:104FE00040034365836D43F004038365FFF7B0F826
:104FF00008BD00BFF0B5002283B0019290F85020A8
:10500000012A00F01C81034601201A6883F8500031
:105010009468640700F18A800C68C4F31305002DBE
:1050200040F08F80C4F38464A0404D684FF01F0EA1
:10503000D6694FEA951C30430CF00C0CD06105F09A
:105040001F0002F1300584400EFA00FE5CF80500F6
:1050500020EA0E0004434CF80540906840076ED4E7
:10506000956815F0080547D10C68072002F1140671
:10507000B94F4FEAD45CC4F304540CF0040C00FAAA
:1050800004FE886800FA04F45CF8060020EA0E00CA
:1050900020434CF80600386800F07040B0F1805FA3
:1050A00000F0C580D068D668C70600F1E880C6F376
:1050B00082064869760000FA06F60F69042F00F0B0
:1050C000C18002F16004086854F827C000F0F8407D
:1050D0000CF0004C40EA0C00304344F82700487EB6
:1050E0000E69012854F8260008BF4FF0004520F053
:1050F0000040054344F826509068C40714D4CE6895
:10510000086806F01807954CD2F8C050FC40C0F370
:105110001307044025EA07052C43C2F8C040904C11
:10512000A64246D0002816DB002003E05A6D42F06C
:1051300020025A65002283F8502003B0F0BD906829
:10514000DAE794FAA4F5B5FA85F5C4F3846405F0BA
:105150001F05A84069E783498A4200F0B68001F53F
:1051600080718A4200F0B1807F4D804CA968A468AC
:1051700001F0E076E44304F00104002C00F0B48078
:105180007B4CA04200F0FC807A4CA04200F01A81D7
:10519000794CA042C8D14902C6D474498A42C3D1CD
:1051A000AA68002022F0E072324342F48002AA6032
:1051B000C0E7002F6AD090FAA0F4B4FA84F4013466
:1051C00004F01F04092C00F2A48090FAA0F4B4FAB1
:1051D00084F490FAA0F5B5FA85F50134012601357D
:1051E000A40605F01F0504F0F84406FA05F52C4363
:1051F00090FAA0F0B0FA80F0304400F01F0000EB0D
:10520000400000052043C60D02F11405C0F3045010
:10521000072406F0040604FA00F7745924EA070488
:105220008F6807FA00F02043705108687AE7D66863
:105230004869C6F38206760000FA06F63DE70220CA
:1052400003B0F0BD106E0C6800F0F840A506B0EB9E
:10525000846F30D0506E00F0F840854226D0906EBA
:1052600000F0F84085422BD0D06E00F0F840854227
:105270007FF442AFD06E20F00040D0663CE7760865
:10528000486906F0080600FA06F616E7800E441C88
:1052900004F01F06092E2DD8A406012004F0F844BE
:1052A000B040044306EB46000005ABE7506E20F02B
:1052B00000405066D3E7106E20F000401066C9E74A
:1052C000906E20F000409066CEE7264C2B4D04F502
:1052D0008074A96854F8F86CA468344301F0E0764F
:1052E000E44304F0010448E75A6D012042F0200233
:1052F0005A651FE706EB4600A50601241E3805F097
:10530000F84504FA06F60005354340F000702843DE
:1053100079E790FAA0F5B5FA85F590FAA0F4B4FA19
:1053200084F4013501260134AD0604F01F0405F0B4
:10533000F84506FA04F4254390FAA0F4B4FA84F48C
:10534000344404F01F0404EB4404A4F11E000005DF
:1053500040F00070DBE700BF0010005CFFFF0F00B3
:105360000000FF470020024000630258006002581E
:10537000000084CB000052C70000B8CF00230240D9
:1053800008023FF5D1AE17498A427FF4CDAE164AE6
:10539000A9681268154821F0E07192093143A0FB19
:1053A000020241F400019209A96052000192019A9F
:1053B000002A3FF4B9AE019A013A0192019A002AFB
:1053C000F9D1B1E611F080707FF4AEAE05498A42A2
:1053D0007FF4AAAEAA6822F0E072324342F08072F3
:1053E000AA60A7E60060025830000024632D3E0545
:1053F00003689A68D20701D5002070479968214A4E
:10540000114270B5044608D0636D012043F01003CB
:105410006365A36D0343A36570BD99681A4A0A408A
:1054200042F001029A60FFF77BFD2368174A0546A8
:1054300093421ED002F5807293421AD0144A9268A9
:10544000114E0AE09A68324042F001029A60FFF77A
:1054500067FD401B0228D7D823681A68D2070FD4EB
:105460009A68D107EED5FFF75BFD401B0228F3D900
:10547000CAE7084A9268D006E2D0074A9342DFD1D1
:10548000002070BD3F000080C0FFFF7F0020024071
:105490000063025800230240002102402DE9F04140
:1054A0003A4D044600680F461646A84219D0384BBC
:1054B000984216D0374DAB688068420716D494F8EE
:1054C0005020012A12D003F01F080122B8F1090F61
:1054D00084F850200DD90023012084F85030BDE815
:1054E000F0812D4DAB6880684207E8D50220BDE809
:1054F000F08140F2212323FA08F3DB4313EA02058B
:10550000E9D12046FFF774FF002839D1626D234BA3
:105510002168134043F480736365B8F1000F02D033
:105520001B4B994203D0636D23F480136365636D55
:1055300013F4805328D0A36D23F00603A365E06C19
:105540003346174D3A464031C563164D0564164D36
:10555000C5641C2541F8405C002584F8505051F882
:105560003C5C45F0100541F83C5C00F059FE2268B7
:105570000E4B91680B4043F004039360BDE8F0814B
:1055800084F85050BDE8F081A365D8E700200240C0
:10559000002102400063025800230240FEF0FFFF9A
:1055A0006D4F0008614F0008D94F0008C0FFFF7F12
:1055B00038B503689A68910702D59B68002038BD0A
:1055C0009A68D20723D59A68044602F00D02012A90
:1055D00008D0636D012043F010036365A36D03439E
:1055E000A36538BD986803210A4A024042F00202CE
:1055F0009A601960FFF794FC054604E0FFF790FC01
:10560000401B0228E5D823689B68DB07F6D40020FE
:1056100038BD00BFC0FFFF7F38B5574A0446036856
:10562000934226D002F58072934222D0534B9B685E
:1056300013F4403F22D003F0CFF963680546B3F579
:10564000003F00F08880B3F5403F70D0B3F5803F55
:1056500000F08180FFF77CFC41F2030398422DD8D3
:10566000474B9D425DD92268936843F480739360F1
:1056700038BD444B9B6813F4403FDCD14FF400200D
:1056800004F076FA63680546B3F5101F6DD008D8AC
:10569000B3F5E01F55D01AD9B3F5001FDAD145098B
:1056A000D8E7B3F5201F4AD0B3F5301FD2D1FFF7AA
:1056B0004FFC41F20303984233D92D0A324B9D42ED
:1056C0001DD82268936823F44073936038BDB3F506
:1056D000801F06D00AD9B3F5A01F02D0B3F5C01FB2
:1056E000B8D19B0C5B00B5FBF3F5B3E7B3F5002F26
:1056F000F7D023F40022B2F5802FF2D0AAE7234B93
:10570000234A2B4493421ED9224B234A2B449342D3
:10571000226893682BD823F4407343F4007393609A
:1057200038BD2268936823F48073936038BD850880
:10573000FFF70EFC41F203039842BFD890E7C5097A
:1057400088E7050986E72268936823F4407343F4E9
:105750008073936038BD1B0CB5FBF3F5FFF7F8FBC6
:1057600041F203039842A9D87AE7850972E743F426
:105770004073936038BD00BF0020024000630258B0
:10578000002D310100230240105E5F00EFA1A0FF59
:105790000F5E5F00DF4341FF1FBCBE0030B500233A
:1057A00083B00193002800F0D080456D0446002DA1
:1057B00000F0BA80226893689B0003D59168714B12
:1057C0000B4093609368DD0015D46F4B90686F4970
:1057D0001B6801406E489B0941F08051A0FB030308
:1057E00091609B090193019B2BB1019B013B0193AC
:1057F000019B002BF9D19368D80024D4636D012557
:1058000043F010036365A36D2B43A365936813F006
:10581000040F636D1DD1D9061BD4636D23F481730E
:1058200043F0020363659368DB0728D4594B9A421F
:1058300017D003F580739A4213D0574B9B68D90752
:105840001DD4564A15E09368002513F0040F636DCC
:10585000E1D0636D012543F010032846636503B072
:1058600030BD4C4A4E4B92689B681343D80706D410
:105870004C4A9368616823F47C130B439360FFF7F1
:1058800067FB41F20303A1689842237F52D894F842
:1058900015C01A04206B42EA4C3202430A43012B22
:1058A00003D1236A013B42EA4342636A23B103F412
:1058B0007873A16A0B431A4323683B49D8680140B7
:1058C0000A43DA609A6812F0040F9A681CD1120732
:1058D0001AD4D868354A217D024042EA8132E16A11
:1058E0000A43DA6094F83820012A3AD01A6922F083
:1058F00001021A611A692046616B22F070420A4364
:105900001A61FFF789FE2368E268012A21D01A6B29
:1059100022F00F021A63636D284623F0030343F05D
:105920000103636503B030BDFEF71CFBA56584F879
:1059300050503FE71029AAD1617D1A0442EA413252
:10594000216B0A4342F01C02A9E70125284603B057
:1059500030BD196BA26921F00F01013A0A431A63A5
:10596000D9E7D4E9102118690A43114901400A43D3
:10597000A16C0A43E16B42EA014242F001021A6162
:10598000B8E700BFC0FFFF5F30000024C0FFFF6F1B
:10599000632D3E050020024000600258006302585B
:1059A000002102400023024003C0F0FFFCBFFFFFC4
:1059B0001EF800FCF0B5002383B0019390F850303E
:1059C000012B40D0012304460E46154680F8503086
:1059D000FFF7EEFDE8B9676D05F080421B4B06F45A
:1059E00080311B4D3B401B4F43F00203636523682E
:1059F0009E68354015430D4345F000459D609A680B
:105A0000002A0FDB636D23F0030343F0010363659A
:105A100003E0636D43F010036365002384F85030A6
:105A200003B0F0BD019A01320192019ABA42E6D95F
:105A3000636D0022012023F0120384F8502043F00C
:105A400010036365ECE7022003B0F0BDFDEEFFFF3D
:105A5000C0FFFE3FFF955A55F0B490F850200E68F5
:105A6000012A49D00346294A01201C6883F85000C6
:105A7000944208D05A6D002142F0200283F8501061
:105A80005A65F0BC7047224DAA6852070AD5A26831
:105A90005A6D012042F020025A65002283F85020FE
:105AA000F0BC7047A06810F00400F1D1C6B1DFF877
:105AB00068C04F68DCF8082022F440423A43CCF832
:105AC0000820A468AA682243D40713D48A68DCF8A3
:105AD000081016430F4A0A401643CCF80860DCE76A
