:020000040800F2
:1000000000000220E1050008DD050008A148000805
:10001000DD050008DD050008DD0500080000000022
:10002000000000000000000000000000DD050008E6
:10003000DD05000800000000DD0500082548000877
:10004000DD050008DD050008DD050008DD05000808
:10005000DD050008DD050008DD050008DD050008F8
:10006000DD050008DD050008DD05000895D700085E
:10007000A1D70008F5420008ADD70008B9D700089D
:10008000E9F6000885CC0008DD050008DD0500085C
:10009000DD050008DD050008DD050008DD050008B8
:1000A000DD050008DD050008DD050008DD050008A8
:1000B00001EB00080DEB000819EB0008B9CC0008B3
:1000C000DD050008C5CC0008DD05000871E3000867
:1000D0007DE300081DF5000849F500087DF50008DE
:1000E000DD050008DD05000800000000DD05000852
:1000F000DD050008DD050008DD050008DD05000858
:10010000DD050008DD05000825EB000889E300088F
:10011000B1F50008E5F50008DD050008DD0500087B
:10012000DD050008DD050008ADE30008E1E3000897
:100130001DF70008DD050008DD050008DD050008E5
:1001400000000000000000000000000000000000AF
:10015000DD050008DD050008DD05000819F60008CA
:10016000D1CC0008DD0500083548000859480008D2
:10017000DD0500087D480008DD050008DD050008F4
:10018000DD050008DD0500084DF6000881F60008D1
:1001900095E30008A1E30008DD050008DD0500087F
:1001A000DD050008DD050008DD050008DD050008A7
:1001B00079D40008DD050008DD050008DD0500082C
:1001C000DD050008DD050008DD050008DD05000887
:1001D000DD050008DD050008DD050008DD05000877
:1001E000DD050008DD050008DD050008DD05000867
:1001F000DD050008DD050008DD050008DD05000857
:10020000DD050008DD050008DD050008DD05000846
:10021000DD050008DD050008DD050008DD05000836
:10022000DD050008DD050008DD0500080000000010
:10023000DD050008DD05000800000000DD05000800
:10024000DD050008DD050008DD050008DD05000806
:10025000DD050008DD050008DD050008DD050008F6
:10026000DD050008DD050008DD050008DD050008E6
:10027000DD050008DD050008B5F6000800000000F7
:10028000DD050008DD050008DD05000800000000B0
:0802900000000000DD0500087C
:1002980010B5054C237833B9044B13B10448AFF3B8
:1002A80000800123237010BDF80300240000000023
:1002B800E864010808B5034B1BB103490348AFF3D1
:1002C800008008BD00000000FC030024E864010869
:1002D80053B94AB9002908BF00281CBF4FF0FF31A5
:1002E8004FF0FF3000F074B9ADF1080C6DE904CEA1
:1002F80000F006F8DDF804E0DDE9022304B07047F9
:100308002DE9F047089D04468E46002B4DD18A42C0
:10031800944669D9B2FA82F252B101FA02F3C2F1F3
:10032800200120FA01F10CFA02FC41EA030E944084
:100338004FEA1C48210CBEFBF8F61FFA8CF708FBA5
:1003480016E341EA034306FB07F199420AD91CEB7D
:10035800030306F1FF3080F01F81994240F21C81AF
:10036800023E63445B1AA4B2B3FBF8F008FB1033F7
:1003780044EA034400FB07F7A7420AD91CEB04042C
:1003880000F1FF3380F00A81A74240F207816444FC
:10039800023840EA0640E41B00261DB1D440002381
:1003A800C5E900433146BDE8F0878B4209D9002DE5
:1003B80000F0EF800026C5E9000130463146BDE86F
:1003C800F087B3FA83F6002E4AD18B4202D38242D9
:1003D80000F2F980841A61EB030301209E46002D88
:1003E800E0D0C5E9004EDDE702B9FFDEB2FA82F2DD
:1003F800002A40F09280A1EB0C014FEA1C471FFA3B
:100408008CFE0126200CB1FBF7F307FB131140EA21
:1004180001410EFB03F0884208D91CEB010103F1EE
:10042800FF3802D2884200F2CB804346091AA4B2B0
:10043800B1FBF7F007FB101144EA01440EFB00FE84
:10044800A64508D91CEB040400F1FF3102D2A645E9
:1004580000F2BB800846A4EB0E0440EA03409CE788
:10046800C6F12007B34022FA07FC4CEA030C20FA35
:1004780007F401FA06F31C43F9404FEA1C4900FA55
:1004880006F3B1FBF9F8200C1FFA8CFE09FB1811D2
:1004980040EA014108FB0EF0884202FA06F20BD945
:1004A8001CEB010108F1FF3A80F08880884240F295
:1004B8008580A8F102086144091AA4B2B1FBF9F0D9
:1004C80009FB101144EA014100FB0EFE8E4508D9D4
:1004D8001CEB010100F1FF346CD28E456AD9023859
:1004E800614440EA0840A0FB0294A1EB0E01A1423E
:1004F800C846A64656D353D05DB1B3EB080261EBAC
:100508000E0101FA07F722FA06F3F1401F43C5E985
:10051800007100263146BDE8F087C2F12003D840BB
:100528000CFA02FC21FA03F3914001434FEA1C47FD
:100538001FFA8CFEB3FBF7F007FB10360B0C43EAEF
:10054800064300FB0EF69E4204FA02F408D91CEB9F
:10055800030300F1FF382FD29E422DD9023863449D
:100568009B1B89B2B3FBF7F607FB163341EA03413D
:1005780006FB0EF38B4208D91CEB010106F1FF388C
:1005880016D28B4214D9023E6144C91A46EA004683
:1005980038E72E46284605E70646E3E61846F8E615
:1005A8004B45A9D2B9EB020864EB0C0E0138A3E75E
:1005B8004646EAE7204694E74046D1E7D0467BE73F
:1005C800023B614432E7304609E76444023842E7B7
:1005D800704700BFFEE700BF0B480C4A904203D0AB
:1005E800121A0B4914F03EF90A480B4A904203D0FC
:1005F800121A002114F044F904F0A6FB14F00EF9C5
:1006080000F08CF9FEE700BF00000024F803002486
:1006180018650108F8030024AC3A0024704700BFAD
:10062800002A00F04B81013A2DE9F04F53080446A7
:100638000D464FF00008DFF8D8B2DFF8D8A2A04F77
:10064800A04EDFF8D4922DED048B83B00193DFED3B
:100658009E7AD4ED010A94ED000A60EEA70A9B4841
:1006680020EE270A02F0D6FC9848DBED008A94EDCC
:10067800009A03F0A5F930EE000ADAED007A934803
:100688009BED008A20EE270AA9EE280A87ED000ACA
:10069800D4ED018A03F098F930EE000ADAED006A29
:1006A800B2EE047AD7ED007A20EE260AF4EEC77A85
:1006B800A8EE880AF1EE10FA86ED000A06DCBAEE1A
:1006C800047AF4EEC77AF1EE10FA03D5F0EE477A21
:1006D80087ED007AB2EE047AB4EEC70AF1EE10FAAA
:1006E80006DCBAEE047AB4EEC70AF1EE10FA01D5C8
:1006F80086ED007AC5ED007A336875486B6003F0C3
:1007080065FA7449744A0B68934200F3C680013352
:100718000B6005216E4803F065FAF1EE007A6F4B25
:100728006A4820EE270A83ED000A02F0B5FED9F8E0
:100738000030052B07D8DFE803F02C106D4C8E0332
:100748000023C9F80030019A08F10103083408357C
:10075800904500F0A680984679E704215C4803F0AC
:1007680041FA5F4BDFED5F6AD3ED007A5E4A70EEC7
:10077800677A82ED000AF0EEE77AF4EEE67AF1EEB7
:1007880010FA00F39380D9F800300133C9F800302B
:10079800D9E700214E4803F025FA544B9FED4A7AD9
:1007A800D3ED007A524A70EE677A82ED000AF0EED5
:1007B800E77AF4EEC77AF1EE10FAE4DDF7EE007AA4
:1007C80083ED000A8AED000A37EEC00A8BED000AB5
:1007D800D9E703213E4803F005FAF3EE007A454BCA
:1007E8009FED397A20EE270AD3ED007A424A70EE5F
:1007F800677A82ED000AF0EEE77AF4EEC77AF1EE56
:1008080010FAC0DD314803F0C9F83B4A394B126889
:100818001A60B8E701212E4803F0E4F9F2EE047AF1
:10082800364B9FED297A20EE270AD3ED007A344A19
:1008380070EE677A82ED000AF0EEE77AF4EEC77A96
:10084800F1EE10FA9FDD214803F052F82C4A2B4BA9
:1008580012681A6097E706211D4803F0C3F9F1EE04
:10086800007A284B9FED1F7A20EE270AD3ED007AF5
:10087800254A70EE677A82ED000AF0EEE77AF4EE28
:10088800C77AF1EE10FA7FF77EAF104802F01EFE2D
:100898001D4A1C4B12681A6075E71C4B01221A701E
:1008A80037E703B0BDEC048BBDE8F08F074802F0D2
:1008B80087FF0D4A0A4B12681A6064E7704700BF49
:1008C800C4060024600D0024CDCCCC3DF0060024E5
:1008D8001804002414040024FFED0200140000246E
:1008E800D80600240AD7233C04000024EC06002480
:1008F800640D0024DC060024C8060024E006002459
:10090800CC060024E4060024D40600246C0D002440
:100918000800002418000024D006002480B5012116
:10092800444803F055F89FED440A4448B2EE048A5F
:1009380002F0FCFD01213F4803F020F902213D4867
:1009480003F02EF93E493B4803F016F93D4B3B486E
:1009580093ED000A02F0A0FD3B4B3C4E93ED000ADC
:100968003B4F364802F0B2FD96ED000A334802F0DC
:10097800E3FE97ED000A314802F0FAFE01212F4804
:1009880002F012FF334B344C93ED000A2B4802F06F
:1009980017FF324DB7EE000A284802F02BFF94EDFE
:1009A800000A264802F07CFF95ED000A234802F071
:1009B8004FFF2B4B214893ED000A02F099FF294B7A
:1009C8001E4893ED000A02F0E9FFB6EE000A1B4844
:1009D80002F0F2FF174803F0F5F8DFED230A97ED70
:1009E800001AB0EE600A214881EE081A03F0BCF93B
:1009F800DFED1D0A96ED001A1D48B0EE600A81EE83
:100A0800081A03F0B1F9DFED180A95ED001A194834
:100A1800B0EE600A81EE081A03F0A6F994ED001A08
:100A2800DFED110A144881EE081AB0EE600A03F0EF
:100A38009BF9FEE7180400240000FA46F00600249B
:100A48002906000814000024D4060024C006002447
:100A58000C000024040000245C0D00241000002475
:100A6800CC060024C806002400000000AC040024C2
:100A780058040024540500240005002438B51948FA
:100A880000234FF60B74184D184A19490360436147
:100A98000362C363C0E9A043C0E9A23313F0C2FAFA
:100AA800D5F800C0134BB7EE001A1348F3EE000A4E
:100AB800C3F800C00068114B114918600968114B50
:100AC800114A124C19601268114BD4F800C0114930
:100AD8001A609FED110A1148C1F800C0BDE83840FE
:100AE80001F0CCBF18040024640D00240000002489
:100AF80025060008EC06002404000024D80600247B
:100B0800CC060024E006002414000024C8060024B3
:100B1800E8060024DC0600240000FA46F00600245B
:100B280010B52DED028BB7EE008A0023B6EE005B00
:100B38000446BFEE007B0360C8EE206A4360036191
:100B48008361C3610362B7EEE04AC0ED020AB5EE05
:100B5800400AA4EE057BF1EE10FAC0ED036AB7EE89
:100B6800C77B80ED057A15D0B7EEC05A80ED040A30
:100B7800B7EEE67A9FED0A4B25EE040B20EE070B45
:100B8800B7EEC00B13F01EFD38EE408A84ED070A5D
:100B980084ED068A2046BDEC028B10BDAFF30080C1
:100BA800182D4454FB2119C090ED080AD0ED076AAE
:100BB80090ED067A20EE260AD0ED007AA7EE270AF5
:100BC80080ED080A80ED010A704700BF002303602A
:100BD80003624360704700BF10B52DED028BB7EE7E
:100BE800008AD0ED047AB6EE004B80ED020ABFEE23
:100BF800006BC8EE005AB7EEC03AF4EE677AA3EE7F
:100C0800046BF1EE10FAC0ED035AB7EEC67B80ED27
:100C1800057A14D0B7EEE70A0446B7EEE57A9FEDF9
:100C28000A6B20EE060B20EE070BB7EEC00B13F095
:100C3800C9FC38EE408A84ED070A84ED068ABDECCB
:100C4800028B10BDAFF30080182D4454FB2119C04E
:100C5800D0ED047AF4EE407AF1EE10FA00D1704744
:100C6800B7EEC07A80ED040AD0ED036A9FED0C5B05
:100C780010B527EE050B0446B7EEE67A20EE070B13
:100C8800B7EEC00B13F09EFCF7EE007A84ED070A6E
:100C980077EEC07AC4ED067A10BD00BFAFF30080CE
:100CA800182D4454FB2119C0F7EE006A0023BFEE4B
:100CB800007BB7EEE05A86EEA06AB5EE400A10B5A2
:100CC8002DED028BB6EE008B0446F1EE10FA0360B0
:100CD8004360A5EE087B03618361C36103624362DD
:100CE8008362C3620363C0ED020A80ED036AB7EE54
:100CF800C77B80ED057A21D0B7EEC07A80ED040A73
:100D0800B7EEC66A9FED145B27EE050B20EE060BC7
:100D1800B7EEC00B13F056FCB7EE006BB7EEC07A17
:100D280084ED0C0A37EE067B27EE087BB7EEC77B0F
:100D3800F1EE477A84ED0A7AC4ED0B7A0023204657
:100D4800BDEC028B2360636023626362A361E3618D
:100D580010BD00BFAFF30080182D4454FB2119C00B
:100D680090ED097A90ED0B0AD0ED007A20EE070A93
:100D780090ED0A6A90ED077AD0ED0C6AA7EE860A24
:100D8800C0ED087AC0ED097AA6EE870A80ED060A5A
:100D980080ED070A80ED010A704700BF0023036059
:100DA8004360036243628361C361704700000000CF
:100DB800D0ED047AF4EE407AF1EE10FA00D17047E3
:100DC8009FED155BB7EEC07A80ED040AD0ED036A9B
:100DD80027EE050BB7EEE67A10B520EE070B0446B2
:100DE800B7EEC00B13F0EEFBB7EE005BB7EEC07AC0
:100DF80084ED0C0AB6EE006B37EE057B27EE067B1A
:100E0800B7EEC77BF1EE477A84ED0A7AC4ED0B7A28
:100E180010BD00BFAFF30080182D4454FB2119C04A
:100E280010B5BFEE007B0446B7EEC04A80ED020A5B
:100E3800F7EE006A2DED028BB6EE008BC6EE805AF7
:100E4800A4EE087BB0EE476BD0ED047AC0ED035AF0
:100E5800F4EE677AB7EEC67BF1EE10FA80ED057A0C
:100E68001FD0B7EEE70AB7EEE57A9FED136B20EED9
:100E7800060B20EE070BB7EEC00B13F0A3FBB7EE83
:100E8800006BB7EEC07A84ED0C0A37EE067B27EECE
:100E9800087BB7EEC77BF1EE477A84ED0A7AC4ED9A
:100EA8000B7A0023BDEC028B2360636023626362CC
:100EB800A361E36110BD00BF182D4454FB2119C084
:100EC8009FED5B7BB7EEC04AB4EEC74BF1EE10FA6C
:100ED80026D55B495B4A5C4BC0F8A410C0F8A82033
:100EE800C0F8AC305649574A574BC0F8CC10C0F838
:100EF800D020C0F8D4305249524A534BC0F8F410AD
:100F0800C0F8F820C0F8FC304D4BDFED507A9FED6B
:100F1800507AC0F81C3180ED487AC0ED497A7047A4
:100F28009FED453BB4EEC34BF1EE10FA39DDB4EE5C
:100F3800C74B4849484A494BF1EE10FAC0F8A4108B
:100F4800C0F8A820C0F8AC30CCD44249424A434B40
:100F5800C0F8CC10C0F8D020C0F8D4309FED347B56
:100F6800B4EEC74BF1EE10FAC5D43A493A4A3B4BB6
:100F7800C0F8F410C0F8F820C0F8FC309FED2C7BC6
:100F8800B4EEC74BF1EE10FABED4324BDFED347A33
:100F98009FED347AC0F81C3180ED487AC0ED497A6B
:100FA8007047B7EE002B80ED290AF7EE006ABFEE16
:100FB800001B32EE442BC6EE805A81EE026BB4EE73
:100FC800C74BF1EE10FAC0ED2A5AB7EEC66B80EDAA
:100FD8002B6A87D4B4EEC34BF1EE10FAB5DCB4EE4D
:100FE800C74B80ED330AC0ED345A80ED356AF1EE17
:100FF80010FA80D4B4EEC34BF1EE10FAB5DCB4EEBF
:10100800C74B80ED3D0AC0ED3E5A80ED3F6AF1EED8
:1010180010FA3FF579AFB4EEC34BF1EE10FAB4DC39
:10102800B0EE657A80ED470AF0EE467A73E700BFC6
:101038002D431CEBE2361A3F2B8716D9CEF7EF3F2C
:1010480017B7D13800401C46470380BF470380BF0D
:1010580000401C4677BE7F3FCD20803FD3007AC436
:10106800D3007AC4CD20803F38B50446002500F56A
:10107800D870C4F83C51C4F84051C4F87851C4F849
:101088007C51C4F84451C4F84851C4F88051C4F89C
:101098008451FFF79BFD04F5EA70FFF77FFE04F526
:1010A8003C70C4F80852C4F80C52C4F84452C4F84E
:1010B8004852C4F81052C4F81452C4F84C52C4F838
:1010C8005052C4F87C52C4F88052C4F8B852C4F8DC
:1010D800BC52C4F88452C4F88852C4F8C052C4F848
:1010E800C452FFF773FD04F54570FFF757FE04F58A
:1010F8006F70C4F84853C4F84C53C4F88453C4F808
:101108008853C4F85053C4F85453C4F88C53C4F8E3
:101118009053FFF743FE04F57C70FFF73FFEC4F8D9
:101128003451C4F8385138BD024600F1580352F81A
:10113800401F70B494460C465CF8045FAC42B8BFDC
:101148002C466345F8D107EE904AD0ED1A2A9FED58
:10115800E37A9446F8EEE76A90ED073AD0ED197A0B
:10116800DF4DE2EE876A2C600C4676EE836A66EE07
:10117800A76AFDEEE66A5CF8046FB442B8BF34466D
:101188006345F8D107EE104A2C6094460C46F8EEF9
:10119800C73A9FEDD47AE2EE873A73EE833A63EE6C
:1011A800A73AFDEEE33A5CF8046FB442B8BF3446A0
:1011B8006345F8D107EE104A2C6094460C46B8EE09
:1011C800C74A9FEDC97AA2EE874A34EE034A24EE55
:1011D800274ABDEEC44A5CF8046FB442B8BF34462F
:1011E8006345F8D107EE104A2C6094460C46F8EE99
:1011F800C74A9FEDBE7AE2EE874A74EE834A64EEF0
:10120800A74AFDEEE44A5CF8046FB442B8BF34461E
:101218006345F8D107EE104A2C6094460C46B8EEA8
:10122800C75A9FEDB37AA2EE875A35EE035A25EED8
:10123800275ABDEEC55A5CF8046FB442B8BF3446AD
:101248006345F8D107EE104A2C6094460C46F8EE38
:10125800C75A9FEDA87AE2EE875A75EE835A65EE73
:10126800A75AFDEEE55A5CF8046FB442B8BF34469D
:101278006345F8D107EE104A2C60B8EEC76A9FEDB7
:101288009E7AA2EE876A36EE036A26EE276ABDEEDC
:10129800C66A52F8044FA142B8BF21469A42F8D113
:1012A80007EE101ADFED951AB8EEE62A944CB8EE60
:1012B800C77A29602368B5EEC02AA2EEA17A9A1CE3
:1012C800F1EE10FA37EE037A27EE277ABDEEC77AE9
:1012D8000CD816EE901A013903EE101AB8EEC33A7C
:1012E800B5EEC03AF1EE10FA40F1A3819FED853AD0
:1012F8000021F8EEE32ADFED837AC0F84C210022C2
:10130800DD1CC0ED4F7AF4EEE72AC0ED507AC0ED4F
:10131800517AC0ED527AF1EE10FAC0F85821C0EDBA
:10132800577AC0ED587A80ED5B3AC0ED5C6AC0ED43
:101338005D7AC0ED5E7AC0ED5F7AC0E95422C0E9FB
:1013480059210CD813EE901A013906EE901AF8EECE
:10135800E66AF4EEE76AF1EE10FA40F1738111469D
:10136800B8EEC43ADFED676A0022C0F88851C0EDD4
:10137800606A5D1DB4EEE63AC0ED616AC0F894217A
:10138800C0ED666AF1EE10FAC0ED676AC0ED6A7AE0
:10139800C0ED6B3AC0E96322C0E968210CD814EEAD
:1013A800101A013907EE901AF8EEE77AF4EEE67AA9
:1013B800F1EE10FA40F14F811146F8EEE43ADFED14
:1013C800517A0022C0F81852C0ED827A9D1DF4EEC1
:1013D800E73AC0ED837AC0ED847AC0ED857AF1EE04
:1013E80010FAC0F82422C0ED8A7AC0ED8B7AC0EDDD
:1013F8008E6A80ED8F4AC0ED907AC0ED917AC0ED8B
:10140800927AC0E98722C0E98C210CD814EE901A90
:10141800013906EE901AF8EEE66AF4EEE76AF1EEA4
:1014280010FA40F121811146B8EEC54ADFED356A60
:101438000022C0F85452C0ED936A03F10805B4EED7
:10144800E64AC0ED946AC0F86022C0ED996AF1EEF0
:1014580010FAC0ED9A6AC0ED9D7AC0ED9E4AC0E9C7
:101468009622C0E99B210CD815EE101A013907EE17
:10147800901AF8EEE77AF4EEE67AF1EE10FA40F117
:10148800FC801146F8EEE54ADFED1E7A0022C0F82E
:101498008C52C0ED9F7A03F10905F4EEE74AC0EDDE
:1014A800A07AC0EDA17AC0EDA27AF1EE10FAC0F8E8
:1014B8009822C0EDA77AC0EDA87AC0EDAB6A80ED9E
:1014C800AC5AC0EDAD7AC0EDAE7AC0EDAF7AC0E9E6
:1014D800A422C0E9A92124D816E000BF00002844AE
:1014E800780D002400288B450000E1440080684501
:1014F8000000634400C883450000264500B0454508
:10150800680D00240000000015EE901A013906EE5F
:10151800901AF8EEE66AF4EEE76AF1EE10FA40F196
:10152800B5801146B8EEC65A5FED0A6A0022C0F8C7
:10153800C852C0EDB06A03F10B05B4EEE65AC0ED2F
:10154800B16AC0F8D422C0EDB66AF1EE10FAC0ED67
:10155800B76AC0EDBA7AC0EDBB5AC0E9B322C0E998
:10156800B8210CD816EE101A013907EE901AF8EEC9
:10157800E77AF4EEE67AF1EE10FA40F1908011463F
:10158800F8EEC75A5FED217A00220C33C0F85853A1
:10159800F4EEE75AC0EDD27AC0EDD37AC0EDD47A32
:1015A800F1EE10FAC0EDD57AC0F86423C0EDDA7A0E
:1015B800C0EDDB7AC0EDDE6A80EDDF6AC0EDE07A6F
:1015C800C0EDE17AC0EDE27A2360C0E9D722C0E934
:1015D800DC210BD817EE101A013906EE901AF8EE36
:1015E800E66AF4EEE76AF1EE10FA19D50024002154
:1015F800C0F89433C0F88C43C0F89043C0F8A443B3
:10160800C0F8A843C0F8B023C0F8A013C0F8AC13C2
:10161800C0EDED7A80EDEE7A70BCC0E9E611704756
:10162800FDEEE67A17EE902AF8EEE77A76EEE77A9C
:10163800DCE7FDEEC37A17EE901AF8EEE77A33EEA0
:10164800673A56E6FDEEE67A17EE901AF8EEE77A74
:1016580076EEE77A84E6FDEEE76A16EE901AF8EE83
:10166800E66A77EEE66AA8E6FDEEE67A17EE901AE5
:10167800F8EEE77A76EEE77AD6E6FDEEE76A16EE5A
:10168800901AF8EEE66A77EEE66AFBE6FDEEE67A91
:1016980017EE901AF8EEE77A76EEE77A42E7FDEE73
:1016A800E76A16EE901AF8EEE66A77EEE66A67E7FA
:1016B800F7EE007A90ED2C7AB4EEE77AF1EE10FAB4
:1016C80040F35A8137EE677AD0ED297A0123B4EED8
:1016D800E77A80F8B83080ED2C7AF1EE10FA80F2D3
:1016E8004381D0ED2A5A67EE255AF0EE004A90ED74
:1016F8001F6AFFEE006AD0ED087AD0F8703190EDDD
:101708002D5AE5EEA46A05EE903A35EE077AF8EE22
:10171800E55A80ED2C7AE6EE267AC0ED266AF4EEDC
:10172800E57AF1EE10FA04DB013B07EE903AF8EEA9
:10173800E77AF5EEC07AF1EE10FA00F16081BDEEBD
:10174800E77A17EE103AB8EEC77A77EEC77AF7EE6F
:10175800006A90ED367AC0F86831C0ED5B7AB4EE75
:10176800E67AF1EE10FA40F33D8137EE667AD0ED75
:10177800337A0123F4EEC77A80F8E03080ED367AC8
:10178800F1EE10FA40F2E880D0ED345A67EE255AAF
:10179800F0EE004AD0ED0A7AFFEE006AD0F83C324B
:1017A80090ED375AE5EEA46A05EE903A35EE077AE1
:1017B800F8EEE55A80ED367AE6EE267AC0ED306A24
:1017C800F4EEE57AF1EE10FA04DB013B07EE903A0D
:1017D800F8EEE77AF5EEC07AF1EE10FA00F1FE8045
:1017E800BDEEE77A17EE103AB8EEC77A77EEC77A09
:1017F800F7EE006A90ED407AC0F83432C0ED8E7A88
:10180800B4EEE67AF1EE10FA40F3DB8037EE667A52
:10181800D0ED3D7A0123F4EEC77A80F8083180EDE7
:10182800407AF1EE10FA40F28F80D0ED3E5A67EE22
:10183800255AF0EE004AD0ED0C7AFFEE006AD0F897
:10184800B03290ED415AE5EEA46A05EE903A35EED5
:10185800077AF8EEE55A80ED407AE6EE267AC0ED92
:101868003A6AF4EEE57AF1EE10FA04DB013B07EE92
:10187800903AF8EEE77AF5EEC07AF1EE10FA00F158
:101888009C80BDEEE77A17EE103AB8EEC77A77EE8D
:10189800C77AF7EE006A90ED4A7AC0F8A832C0ED30
:1018A800AB7AB4EEE67AF1EE10FA7ADD37EE667AC4
:1018B800D0ED477A0123B4EEE77A80F8303180ED35
:1018C8004A7AF1EE10FA37DAD0ED485A67EE255A1F
:1018D800F0EE004AD0ED0E7AFFEE006AD0F87C33C5
:1018E80090ED4B5AE5EEA46A05EE903A35EE077A8C
:1018F800F8EEE55A80ED4A7AE6EE267AC0ED446ABB
:10190800F4EEE57AF1EE10FA04DB013B07EE903ACB
:10191800F8EEE77AF5EEC07AF1EE10FA39D4BDEEBA
:10192800E77A17EE103AB8EEC77AC0F8743377EE54
:10193800C77AC0EDDE7A7047002380F83031D0EDE9
:10194800495AD5EE875AC3E7002380F80831D0ED0D
:101958003F5AD5EE875A6CE7002380F8E030D0ED87
:10196800355AD5EE875A13E7002380F8B830D0ED02
:101978002B5AD5EE875AB8E6D0ED297AB4EEE77A35
:10198800F1EE10FAF0DA90F8B830002B7FF4A9AE37
:10199800EDE7DFED1D7A0023C0EDDE7AC0F8743381
:1019A8007047D0ED477AB4EEE77AF1EE10FAC3DA71
:1019B80090F83031002B87D1C1E7DFED137A00238F
:1019C80067E7D0ED3D7AB4EEE77AF1EE10FABBDACC
:1019D80090F80831002B7FF428AFB8E7DFED0A7ADA
:1019E800002305E7D0ED337AB4EEE77AF1EE10FA8A
:1019F800B2DA90F8E030002B7FF4C6AEAFE7DFED47
:101A0800027A0023A3E600BF000000002DE9F04F92
:101A18002DED048B8FB00446CDE90C12FFF748FE7C
:101A280090F88030002B40F04D84436FD4ED4D7A10
:101A380094ED527A30EE270AD4ED4E7AD4ED5D6AF1
:101A480077EEA00AD4F86411F0EE407AA367D4F8D0
:101A58004C21F24BE7EE267AF14D03FB0213D4F842
:101A6800706184ED4D0A05EB830384ED4F0AC4EDE4
:101A78004E0AA6EEE77AC4ED5E7AC4ED517A84ED9B
:101A8800507AC3ED007AD4F8683194ED5B6ACB1ACA
:101A98000131D4F84071002BC4F85031BCBF9B19F8
:101AA800C4F850318E42D8BF0021581EC4F86411C2
:101AB80048BF8019D949DB4E01FB02F2C4F8540132
:101AC80013440244D4F8A00105EB830305EB82021A
:101AD800D3ED007A3378C4ED577A92ED007AD4F8D2
:101AE800882177EE676A84ED587A07EE103A01FB91
:101AF8000201D4F8A431E6EE267A05EB8101B8EEAE
:101B0800C77AC31AC4F880710130002B67EE277AB0
:101B1800C4ED527A0F60D4F8AC71C4F88C31BCBFF4
:101B2800DB19C4F88C31874240F3D483C4F8A00190
:101B3800591ED4ED6A5A04F5D870B7EE008B48BF29
:101B4800C919B64F07FB02F2C4F8901113440A44AE
:101B580005EB830305EB8202D3ED007AC4ED667AC8
:101B6800D2ED006A36EEE76AC4ED676AE5EE867A7A
:101B780067EE877AC4ED617AC4ED6C7AFFF714F8E2
:101B880094ED217A04F5EA7084ED750AB7EEC77A08
:101B980094ED619AB7EEC99A38EE478BFFF7E0F8F3
:101BA80094ED217AD4ED855A20EE070A94ED1E7A39
:101BB80094ED905AB7EEC76AD4F83012B7EEC07AEF
:101BC800D4F81822D4F8343207FB0217A9EE087BA0
:101BD800CB1A05EB87070131002B26EE077BB7EE02
:101BE800C77BF0EE477A84ED827AE5EE857AE5EEFA
:101BF800675AC4ED917AC4ED847AC4ED835AC7ED6F
:101C0800007AD4F83C72C4F81C32B8BFDB1994EDE2
:101C18008E6AB8BFC4F81C32B942A8BF0021581E4A
:101C2800C4F8301248BFC0197C49C4F8200201FB2F
:101C380002F2D4F80C7213440244D4F86C0205EB97
:101C4800830305EB8202D3ED007A3378C4ED8A7AF8
:101C580092ED007AD4F8542277EE676A84ED8B7A95
:101C680001FB0201C4F84C72E6EE267A06EE903AC1
:101C7800D4F8703205EB8101F8EEE66AC31A013038
:101C8800002B66EEA77AC4ED857A0F60D4F8781237
:101C9800C4F85832BCBF5B18C4F85832884294ED77
:101CA8004E5A94EDA27AA8BF0020F0EE457AD4ED02
:101CB800AD5AC4F86C02581ED4ED9D4AE7EE257A59
:101CC80048BF40185549C4F85C0201FB02F21344AE
:101CD8000244A5EEE77AD4F8A40205EB830305EBEA
:101CE8008202B0EE476A93ED007AD4F8A83284ED08
:101CF800997AD2ED005AC31A84ED9F5A35EEC75A25
:101D0800D4F88C22C4ED9A5A002B01FB020100F191
:101D18000100A4EE857A84EDA06A05EB8101C4ED8B
:101D2800AE7AC4EDA17A27EE267A84ED947AC1EDD5
:101D3800007AD4F8B012C4F89032B8BF5B18D4ED6A
:101D4800AB5AB8BFC4F890328142D8BF0020C4F85B
:101D5800A402581E48BF4018304901FB02F2C4F8DB
:101D6800940213440244D4F8E00205EB830305EB24
:101D7800820293ED007A84EDA77AD2ED007AD4F846
:101D8800C82237EEC76AC4EDA87A01FB0201A5EEA6
:101D9800867A05EB810126EE877A84EDA27AD4F85B
:101DA800E432D4F88072C31A0130C4F8C072002B30
:101DB8000F60D4F8EC72C4F8CC32BCBFDB19C4F89D
:101DC800CC32B84280F28282C4F8E002591ED4EDC7
:101DD800BA5A04F53C70B7EE008B48BFC9190F4FCB
:101DE80007FB02F2C4F8D01213440A4405EB83033C
:101DF80005EB8202D3ED007AC4EDB67A92ED007A53
:101E080037EE676A84EDB77AE5EE867A67EEA67AEA
:101E1800C4EDB17AC4EDBC7A06E000BF400D030002
:101E2800000000C06C0D0024FEF7BEFE94ED217A80
:101E380004F5457084EDC50AB7EEC77A94EDB19AFA
:101E4800B7EEC99A38EE478BFEF78AFF94ED217AF0
:101E5800D4EDD55A20EE070A94ED1E7A94EDE05A97
:101E6800B7EEC76AD4F87023B7EEC07AD4F858E34F
:101E7800D4F8741307FB0E27D4F87C33A9EE087B3B
:101E8800511A05EB87070193002902F10102D4F8E2
:101E980094C326EE077BB7EEC77BF0EE477A84ED56
:101EA800D27AE5EE857AE5EE675AC4EDE17AC4EDBB
:101EB800D47AC4EDD35AC7ED007AC4F85C13B8BF1E
:101EC800C918019BB8BFC4F85C139A42D4EDDE5A16
:101ED800A8BF00224F1E48BF019BC4F8702348BF0B
:101EE800FF183378DA4E07EE903AD4F8AC3306FB95
:101EF8000EF0B8EEE76A06FB0C360144384405EBF1
:101F08008606C4F8607305EB810105EB800091ED4E
:101F1800007AD4F8B01384EDDA7AD0ED007A591A41
:101F2800D4F84C03013377EEC76AC4EDDB7AC4F802
:101F38008C030029A5EEA67A26EE077A84EDD57AD9
:101F48003060D4F8B803C4F898130290B8BF0918E1
:101F58000298B8BFC4F898138342D4ED1E6AD4ED32
:101F6800945AA8BF00234E1E65EEA65AD4EDED4A3A
:101F780048BF0298276C48BF3618B54894ED507A88
:101F880000FB0CF0C4F8AC3301443044C4F89C6343
:101F980005EB810105EB8000D1ED007AD4F8A011A2
:101FA800C4EDE97A90ED005AC81BC4ED4E5A75EE9F
:101FB800675A84EDEF7A84EDEA5A0391E4EEA57A44
:101FC80067EE867A66EEA76AC4EDE47AC4ED4D6AD8
:101FD80002D5D4F8AC1108449D49D4F888B101FB66
:101FE8000B00616C05EB80000491D0ED007A03983A
:101FF80037EE277A401A002884EDEF7AC4F8940166
:1020080004DAD4F8AC110844C4F89401904901FBEF
:102018000B00A16C05EB80000591D0ED007AD4F897
:10202800300237EE277A0A90401A002884EDEF7ABA
:10203800C4F8240204DAD4F83C120844C4F8240290
:10204800D4F818120E460B91814901FB0600E16C89
:1020580005EB80000691D0ED007AD4F86C0237EEDB
:10206800677A0890401A002884EDEF7AC4F8600275
:1020780004DAD4F878120844C4F86002D4F8541288
:102088000E460991724901FB0600216D05EB80009F
:102098000791D0ED007A0846D4F8E01237EE277A97
:1020A800A1EB0008B8F1000F84EDEF7AC4F8D482F0
:1020B80004DAD4F8EC028044C4F8D4826448D4F832
:1020C800C892DFF88CA100FB0988606D05EB8808D1
:1020D800D8ED007AB2EB000848BF019E37EE677A68
:1020E80048BFB04484EDEF7AC4F864830AFB0E88D5
:1020F80005EB8808D8ED007AD4F8588037EE677A6F
:10210800D4EDA07AB3EB080A48BF029E84EDEF7ABB
:1021180048BFB2444E4ECF1BC4F8A0A306FB0CAA7E
:1021280005EB8A0ADAED006AC4EDFC7A37EE667AC6
:1021380084EDEF7A02D5D4F8EC623744DFF810A1C9
:10214800049E0AFB0977891B05EB8707002997ED91
:10215800007AC4F8D41277EE877AC4EDFC7A04DAF0
:10216800D4F8EC723944C4F8D412394F07FB09117A
:1021780005EB810191ED007A059977EE877A521A7D
:1021880048BF0199C4EDFC7A48BF52183049C4F8D9
:10219800642301FB0E22039905EB820292ED007A7B
:1021A800069A77EEC77A9B1A48BF029AC4EDFC7A62
:1021B80048BF9B18079A8E1A254AC4F8A03302FB19
:1021C8000C33002E05EB830393ED007AC4F8946179
:1021D80077EE877AC4EDFC7A04DAD4F8AC311E4481
:1021E800C4F894610A9B181A194B03FB0B66002864
:1021F80005EB860696ED007AC4F8240277EEC77AD6
:10220800C4EDFC7A04DAD4F83C321844C4F8240249
:102218000F4A0B99089B02FB0100A3EB080305EB8F
:102228008000002B90ED007AC4F8603277EEC77A10
:10223800C4EDFC7A04DAD4F878221344C4F8603286
:10224800034AB6EE008A099904F56F7004E000BFEE
:10225800400D03000000000002FB013805EB880573
:1022680095ED007A77EEC77AC4EDFC7AFEF778FD33
:1022780020EE080A0C9B04F57C7083ED000AFEF73B
:102288006FFD20EE080A0D9B83ED000AD4ED236A4A
:1022980094ED247AD4ED217AE6EE877AF5EEC07AC9
:1022A800F1EE10FA1AD4B7EE007AF4EE477AF1EEAE
:1022B80010FA77FE277AC4ED217A0FB0BDEC048BB3
:1022C800BDE8F08F4FF07E53FFF7B0BB0021C4F894
:1022D800E0127BE50021C4F8A01129E45FED237A20
:1022E800C4ED217A0FB0BDEC048BBDE8F08F00BFC0
:1022F80090ED193AD0ED1B7AD0F8AC3167EE837ABD
:10230800DFED645A03EE103ADFED633A9FED634A5E
:1023180067EEA55A9FED626AB8EEC33ADFED614AEF
:10232800DFED616A67EEA33A9FED605A27EE844AB3
:10233800F4EEC35A9FED5E7A27EE866A5D4A67EE31
:10234800A44AC0ED083A67EEA66AC2ED007A27EE05
:10235800855AC0ED095A27EE877A80ED0A4AF1EED0
:1023680010FA80ED0B6AC0ED0C4AC0ED0D6A80EDE5
:102378000E5A80ED0F7A04DB013B07EE903AF8EE37
:10238800E75AF5EEC05AF1EE10FA6FD4FDEEE57A91
:1023980017EE902AF8EEE77A75EEE75AD0F8783219
:1023A800C0F8A42107EE903AC0ED6A5AF8EEE77A31
:1023B800B4EEE76AF1EE10FA04DB013B07EE903A5F
:1023C800B8EEE76AB5EEC06AF1EE10FA5ED4FDEE3B
:1023D800C67A17EE902AF8EEE77A36EE676AD0F8F2
:1023E800EC32C0F8702207EE903A80ED9D6AF8EE64
:1023F800E77AF4EEE76AF1EE10FA04DB013B07EE48
:10240800903AF8EEE76AF5EEC06AF1EE10FA39D4C0
:10241800FDEEE67A17EE902AF8EEE77A76EEE76AAE
:10242800D0F8B833C0F8E42207EE903AC0EDBA6AA3
:10243800F8EEE77AB4EEE77AF1EE10FA04DB013B46
:1024480007EE903AB8EEE77AB5EEC07AF1EE10FAF8
:1024580010D4FDEEC77A17EE903AF8EEE77AC0F896
:10246800B03337EE677A80EDED7A7047DFED125AB8
:10247800002293E79FED107A002380EDED7AC0F8F3
:10248800B0337047DFED0C6A0022C9E79FED0A6A96
:102498000022A4E700288B45000028440000E144FE
:1024A800008068450000634400C883450000264555
:1024B80000B045457C0D002400000000000000002D
:1024C800D0ED177AB7EE007AF4EEC07A10B5F1EED7
:1024D80010FA044658BFF0EE407AF4EEC77AF1EEEF
:1024E80010FA43D49FED286AC7EE276A87EE867AEA
:1024F80084ED197A04F56F70C4ED187AC4ED236A77
:10250800B0EE670AFEF78CFC94ED180A04F57C70AF
:10251800FEF786FC94ED197A231F04F11802D3ED17
:10252800017A0433F8EEE77A934267EE877AFDEE94
:10253800E77AC3ED107AF2D1D4ED1B7A20469FEDED
:10254800137AB7EEE75A9FED0E6BB4EE465BF1EEE9
:1025580010FA48BFF0EE477AC4ED1B7AFFF7C8FEC1
:10256800FEF7E2FDBDE81040FEF77EBDF0EE476ADB
:102578009FED077AF0EE667ABAE700BFAFF3008006
:102588002D431CEBE2361A3F0082E84617B7D138D4
:10259800D2EE0C382DE9F84FDFF848E4044600F590
:1025A8006F7A00F57C798446F7EE007AB8EE007A07
:1025B8000025B6EE006A0026F0EE006ADFEDF85A54
:1025C800DFEDF81A4FF400779FEDF72A4FF0010B73
:1025D800DFEDF62A9FEDF63ADFEDF63A9FEDF64A83
:1025E800DFEDF64A9FEDF65ADFF8FC83BEE80F00F0
:1025F8002DED068BACE80F009FEDF28AB0EE409A05
:10260800DFEDF1AAF0EE608A9FEDF0AAF0EE480A3D
:10261800DFEDEF9A9FEDEF0A9EE807008CE80700D0
:10262800C4ED1B7A04F5D870C4ED0B1A84ED0C2A9E
:10263800C4ED0D2A84ED0E3AC4ED0F3A84ED194A23
:1026480084ED1A1AC4ED08AA84ED09AAC4ED0A9A01
:10265800E56184ED178A84ED188A25676567A567A3
:10266800C4ED217AC4ED247AC4ED287A84ED2B7A5E
:10267800C4ED327A84ED357AC4ED3C7AC4ED224A51
:1026880084ED235AC4ED2D5A84ED296AC4ED2A6AD3
:10269800C4ED375A84ED336AC4ED346AC4ED415A47
:1026A80084ED3D6AE56784F8806084F8B8B084F802
:1026B800E0B084F808B1C4F89450C4F8985084ED98
:1026C800278AC4F8B050C4F8BC50C4F8C05084ED90
:1026D800318AC4F8D850C4F8E450C4F8E85084EDFE
:1026E8003B8AC4ED467A84ED3F7A84ED497AC4ED9D
:1026F8003E6AC4ED4B5A84ED476AC4ED486AC4F893
:10270800005184F830B1C4F80C51C4F8105184ED6C
:10271800458AC4F82851C4F83451C4F83851C4F86B
:102728004451C4F84851C4F85861C4F85C51C4F81D
:102738006051C4F86C51C4F87071C4F83C51C4F8C5
:102748004051C4F87851C4F87C51C4F87451C4F8A5
:102758008051C4E95466C4E95966D8F80030C4F811
:1027680084519A1C5B44C4F89461C4F84C31C4F891
:102778008821C4F89851C4F89C51C4F8A851C4F8E9
:10278800AC71C8F80020C4E96366C4E96866FEF75E
:10279800C7F9F0EE480AB2EE040A04F5EA70FEF74B
:1027A80083FAD8F80030F0EE480A9FED8A0A03EB66
:1027B8000B011A1D04F53C70C4F81052C4F8181225
:1027C800991C0333C4F81452C4F85412C4F8246290
:1027D800C4F82852C4F82C52C4F83852C4F83C72D1
:1027E800C4F80852C4F80C52C4F84452C4F8485209
:1027F800C4F84052C4F84C52C4F85052C4F860624D
:10280800C4F86452C4F86852C4F87452C4F87872B0
:10281800C4F88452C4F88852C4E98766C4E98C664F
:10282800C4E99666C4E99B66C4E9A336C4F8C8221D
:10283800C4F89C52C4F8A052C4F8AC52C4F8B072A0
:10284800C4F87C52C4F88052C4F8B852C4F8BC52D8
:10285800C4F8B452C4F8C052C4F8C452C4F8D4621C
:10286800C4F8D852C4F8DC52C4F8E852C4F8EC7280
:10287800C8F80020C4E9A566C4E9A966C4E9B36636
:10288800C4E9B866FEF74CF9F0EE480AB2EE040A5D
:1028980004F54570FEF708FAD8F80030B2EE040ADD
:1028A80050469A1C5B44F0EE480AC4F85053C4F8EA
:1028B8009423C4F85833C4F85453C4F86463C4F870
:1028C8006853C4F86C53C4F87853C4F87C73C4F8DC
:1028D800B873C4F84853C4F84C53C4F88453C4F8C4
:1028E8008853C4F88053C4F88C53C4F89053C4F880
:1028F800A063C4F8A453C4F8A853C4F8B453C8F8E0
:102908000020C4E9D766C4E9DC66C4E9E666C4E920
:10291800EB66FEF7C9F9F0EE480AB2EE040A48463B
:10292800FEF7C2F9B0EE490A2046C4ED078AFFF760
:10293800C7FDB3EE040A5046FEF73AFAB3EE040AAE
:102948004846FEF735FADFED247A94ED287AB4EE9E
:10295800677AF1EE10FA07D0D4ED276AC4ED287A29
:1029680087EEA67A84ED2D7ADFED1C7A94ED327A23
:10297800B4EE677AF1EE10FA07D0D4ED316AC4EDFF
:10298800327A87EEA67A84ED377ADFED157A94ED00
:102998003C7AB4EE677AF1EE10FA31D028E000BF45
:1029A8006F120338008068450000634400C88345FF
:1029B8000000264500B045453AA1893F6F12033B08
:1029C8000000803C0000FA460000284400288B459F
:1029D8000000E1440042AC46CDCCCC3D9A99193E6A
:1029E8008FC2F53D98480108680D0024EC51383E27
:1029F800D4ED3B6AC4ED3C7A87EEA67A84ED417A41
:102A08005FED067A94ED467AB4EE677AF1EE10FA45
:102A180007D0D4ED456AC4ED467A87EEA67A84EDF0
:102A28004B7A4FF07A504FF07C534FF080414FF083
:102A38004042C4F8BC004FF07D50C4F8E430C4F8FC
:102A48000C012046C4F8A430C4F8A810C4F8AC207F
:102A5800C4F8CC30C4F8D010C4F8D420C4F8F4308A
:102A6800C4F8F810C4F8FC20C4F81C31C4F82011CC
:102A7800C4F82421BDEC068BBDE8F88F4FF07E53D7
:102A88004FF07D52DD492DE9F0472DED048BC362EF
:102A980000F14408C3630446D94B90B09FEDE98A1E
:102AA80000F17807DFEDD78AB0EE409A026300F1B3
:102AB800AC0AD54AB2EE040A0362F0EE609A4362A9
:102AC800F0EE680AD14B04F1D00941630025826316
:102AD800836080ED008AC0ED018A80ED038A80ED75
:102AE800048A80ED058A80ED068A80ED078A80EDEC
:102AF8000A8A80ED108A40468DED011AFEF7D4F857
:102B0800B2EE040A3846F0EE680AC14EFEF7CCF879
:102B1800F0EE680A9FEDBF0A5046FEF701F8B2EEE4
:102B2800040AF0EE680A4846FEF7BEF833684FF428
:102B380000729DED011A581C591DC4F83021F0EEA1
:102B4800690AC4F80C01981CC4F86821B0EE490A57
:102B580084ED418A84ED428A84ED478A84ED488A6F
:102B680084ED4B8A84ED4F8A84ED508A84ED558A32
:102B780084ED568A84ED598A84ED4D8A84ED4E8A17
:102B880084ED5C8A84ED5D8A84ED5B8A84ED608ADD
:102B980084ED618AC4F81851C4F85051C4E9445509
:102BA800C4E94955C4E95255C4E95755C4F8440124
:102BB800D81C0433C4F8AC21C4F8F021C4F8880147
:102BC80004F51170C4F88C5184ED668A84ED678A27
:102BD80084ED6A8A84ED5E8A84ED5F8A84ED6D8A6D
:102BE80084ED6E8A84ED6C8A84ED718A84ED728A34
:102BF800C4F8D85184ED778A84ED788A84ED7B8A8D
:102C080084ED6F8A84ED708A84ED7E8A84ED7F8AF4
:102C180084ED7D8A84ED828AC4E96455C4E96855E7
:102C2800C4E97455C4E97955C4F8CC31C4F8101214
:102C3800C4F8342284ED838AC4F81C5284ED888A4F
:102C480084ED898A84ED8C8A84ED808A84ED818A7A
:102C580084ED8F8A84ED908A84ED8E8A3160C4E990
:102C68008555C4E98A55FFF795FC9FED6B7A336863
:102C780004F5CD62C9EE077A9FED680A013382ED4B
:102C8800008A03A884ED019A3360C4F80C31644BC0
:102C9800F0EE680A84ED418AC4F8303184ED428A46
:102CA800C4F8185184ED478A84ED488A84ED4B8A2C
:102CB800C4E94455C4E94955C4ED027AFDF730FF2B
:102CC8000DF10C0ED446F0EE680AB0EE480ABEE8E4
:102CD8000F00ACE80F00BEE80F00ACE80F00DEF80C
:102CE800003003A8CCF80030FDF7DEFFD4ED027AFF
:102CF800DFED4C6A0DF10C0C9FED4B7ACE4667EE7A
:102D0800A66AD4ED0C5A27EE877AD6F80090FDEE25
:102D1800E66A09F1020ABDEEC77AB8EEE66AB8EECD
:102D2800477ABCE80F00B4EEC67AAEE80F00BCE8FC
:102D38000F00AEE80F00BCE80F00F1EE10FAAEE8A5
:102D48000F00DCF80030CEF80030C0F2598116EEE2
:102D5800903A013B07EE103AB8EEC77AB5EEC07A62
:102D6800F1EE10FA40F14C819FED305A00239FEDAF
:102D7800306A09F1040227EE855AC4ED5A6A27EE33
:102D8800866A9FED307AC4F844A1BDEEC55AC4F8EE
:102D98006051BDEEC66A84ED598A84ED4D7AF8EE2D
:102DA800C56A84ED4E7AB8EE466A84ED4F7A84EDB2
:102DB800507A84ED557AB4EEE66A84ED567AC4ED1D
:102DC8005B5A84ED5C7AF1EE10FA84ED5D7AC4F812
:102DD8005031C4F85C31C4E9523335DB15EE101AB2
:102DE800013906EE101AB8EEC66AB5EEC06AF1EE01
:102DF80010FA29D5B0EE476A2EE000BF0000203F48
:102E080000401C460000FA4672F97F3F3AA1893F0C
:102E1800680D00240042AC460082E84600E0AB465C
:102E28000AEE020000008D4400000D4300005644E5
:102E38000000D6420080BD4300803D4500800A4521
:102E480000808A4300000000BDEEC67A17EE103AF3
:102E5800B8EEC77A36EE476A5FED0A6AC4ED6C5A77
:102E68005FED0B5A67EEA66A84ED6A6A67EEA55AAB
:102E78001FED0C7AFDEEE66AC4F8A4310023C4F80D
:102E88008821FDEEE55A616BF8EE666A09F10602E3
:102E980084ED5E7AB8EEE56A84ED5F7A84ED607A57
:102EA80084ED617AF4EEC66A84ED667A84ED677A19
:102EB80084ED6B5AF1EE10FA84ED6D7A84ED6E7A3A
:102EC800C4F89431C4F8A031C4E963330EDB15EEBD
:102ED800900A013806EE900AF8EEE66AF5EEC06A46
:102EE800F1EE10FA02D5F0EE476A07E0BDEEE67A99
:102EF80017EE103AB8EEC77A76EEC76A1FED316A58
:102F08001FED315A27EE866AC4ED7B6A67EE857A33
:102F18001FED347AC4F8CC2109F10802BDEEC66A67
:102F2800C4F8E831FDEEE77A00233260F8EEC66AAD
:102F380084ED6F7AF8EE677A84ED707A84ED717AB1
:102F480084ED727AF4EEE67A84ED777A84ED787A15
:102F5800C4ED7C5AF1EE10FAC4F8F41184ED7E7ACF
:102F680084ED7F7AC4F8D831C4F8E431C4E9743305
:102F78003DDB16EE100A013807EE900AF8EEE77A04
:102F8800F5EEC07AF1EE10FA31D5C4F8102200221D
:102F9800C4F82C320023404684ED8C7A84ED8D6A87
:102FA800B3EE040AC4F83812C4F80032C4F8043284
:102FB800C4F80832C4F80C32C4F81C22C4F8203211
:102FC800C4F82432C4F82822C4F83C32C4F8403289
:102FD800C4E98522FDF7ECFE3846B3EE040AFDF796
:102FE800E7FE204610B0BDEC048BBDE8F087BDEECF
:102FF800E77A17EE103AB8EEC77A37EEC77AC4E721
:10300800BDEEC76AB8EEC68A16EE105A37EE488A81
:10301800AAE600BFF0EE407A90ED080A70B50446C3
:1030280000F1AC0600F1D0052DED028BC0ED117A50
:103038003046C4ED1E0AFDF70BFE284694ED070A3C
:10304800FDF7B6FE04F14400FDF78AFEB0EE408AB3
:1030580004F17800FDF784FE304638EE000A84ED6E
:103068002B0AFDF7A1FD284684ED340AFDF778FE0A
:10307800D4F82401D4F80C11DD4ADE4B02FB01021E
:10308800D4F8D450D4F8306103EB8202C4F8045168
:103098001560D4F82821D4ED4B4A821A0130D4EDBA
:1030A8005B5A002AC4F8102194ED506ABCBF9219EB
:1030B800C4F810218642D8BF0020551EC4F8240148
:1030C80048BFAD19CA48C4F8145100FB01F10A44BD
:1030D8002944D4F85C5103EB820203EB8101D2ED61
:1030E800007AC54AC4ED477A91ED007A127837EE36
:1030F800675A84ED487A06EE902AD4F84411D4F839
:103108006021E4EE857A00FB0150F8EEE66AAA1A1F
:1031180003EB80000135002A66EEA77AB0EE677AE5
:10312800C4ED427AC4ED4D7AA6EE257AA5EEC76ABB
:1031380084ED5C7A84ED4F7A84ED4E6A80ED007AF6
:10314800D4F86801C4F84821BCBF1218C4F8482153
:10315800A842D8BF0025C4F85C51551E48BF2D1899
:10316800A348C4F84C5194ED4E5A00FB01F1D4ED3C
:103178006C5AB0EE457AD4ED617A0A442944D4ED0C
:10318800594AA7EEA57A03EB8202D4F8A051E5EEDE
:10319800C77AB0EE676AD2ED007A03EB8102D4F801
:1031A8008811C4ED557AD2ED005A00FB015084ED28
:1031B8005E5A35EEE75AD4F8A42103EB800084ED7B
:1031C8005F6AAA1AC4ED565AE4EE857A84ED6D7AE0
:1031D80084ED607A002A05F1010566EEA77AC4ED50
:1031E800507A80ED007AD4F8AC0194ED5F5AC4F8B7
:1031F8008C21B8BF1218B0EE457AD4ED7D5AD4EDC3
:10320800727AB8BFC4F88C218542A7EEA57AD4EDAE
:103218006A4AA8BF0025C4F8A051551E48BF2D18FA
:103228007348E5EEC77A00FB01F1C4F890510A44EF
:103238002944D4F8E45103EB8202B0EE676AD2ED78
:10324800007A03EB8102D4F8CC11C4ED667AD2ED92
:10325800005A00FB015084ED6F5A35EEE75AC4ED71
:10326800675AD4F8E82103EB8000D4F8F061E4EE63
:10327800857AAA1A84ED7E7A0135002A84ED706A6F
:1032880084ED717A66EEA77AC4ED617A80ED007AF2
:10329800C4F8D021BCBF9219C4F8D021AE4240F383
:1032A8009E80C4F8E45194ED705A501ED4ED8E5AA5
:1032B800B0EE457AD4ED837A4D4D48BF8019D4EDF0
:1032C8007B4AA7EEA57A05FB01F1D4F828620A44E7
:1032D8000144C4F8D40103EB8202D4F8100203EBD2
:1032E8008101E5EEC77A05FB006503EB8505B0EEC5
:1032F800676AD2ED007AD4F82C22C4ED777AD1ED42
:10330800005AB21A84ED805A013635EEE75A002A7F
:10331800D4F83412C4ED785AE4EE857A84ED8F7AC5
:1033280084ED816A84ED827A66EEA77AC4ED727ABA
:1033380085ED007AC4F81422BCBF5218C4F81422D0
:10334800B14250DDC4F8286294ED816AB7EE005BA3
:1033580094ED107A551E94ED424AB7EEC72A48BF3D
:103368006D1827EE067A2249B7EEC44AD4ED8C3A96
:1033780035EE425B00FB01F1B7EEC77AC4F818528C
:1033880048190A441D4904F5CD65A4EE057B81ED75
:10339800006A03EB820103EB800304F1140291ED50
:1033A800006A04F5117004F1180184ED886AD3ED00
:1033B800005ABDEC028BF7EEC70BC4ED895A75EEC7
:1033C800C67AB0EE600AA3EEA76A66EE866AC4ED16
:1033D800836AC5ED000ABDE87040FEF717BB002000
:1033E800C4F8E4015FE70025C4F82852ACE700BF41
:1033F800400D0300000000C06C0D0024800D002467
:1034080010B504464430FDF7C9FC04F17800FDF717
:10341800C5FC04F1AC00FDF7D9FB04F1D000FDF7C1
:10342800BDFC002304F51170C4F80431C4F8083158
:10343800C4F83431C4F83831C4F87031C4F8743180
:10344800C4F83C31C4F84031C4F87831C4F87C3150
:10345800C4F8B431C4F8B831C4F88031C4F8843140
:10346800C4F8BC31C4F8C031C4F8F831C4F8FC3130
:10347800C4F8C431C4F8C831C4F80032C4F80432FE
:10348800C4F83C32C4F84032C4F80832C4F80C32EC
:10349800BDE81040FDF7E8BD9FED097BB7EEC06AB7
:1034A800034600F51170B4EEC76BF1EE10FA01D5C2
:1034B8009FED050A83EDAC0AFEF71ABFAFF3008053
:1034C8002D431CEBE2361A3F17B7D138D0ED017AFD
:1034D800D0F8303120EE270A07EE903AF8EEE77A76
:1034E800B4EEE70AF1EE10FA04DB013B00EE103A05
:1034F800B8EEC00AB5EEC00AF1EE10FA0CD4FDEE33
:10350800C07A17EE903AF8EEE77AC0F8283130EE34
:10351800670A80ED4B0A70479FED030A002380ED90
:103528004B0AC0F8283170470000000010B5044667
:1035380000F5117084ED010AFEF7C2FF94ED010A4F
:10354800DFED776AD4F83031C0EE267A94ED007A50
:1035580006EE903A20EE077AF8EEE66AB4EEE67ADE
:10356800F1EE10FAC4ED027A04DB013B07EE103AE3
:10357800B8EEC77AB5EEC07AF1EE10FA00F1BC8069
:10358800FDEEC76A16EE902AF8EEE66A77EE666AEE
:10359800D4F868319FED637AC4ED4B6A06EE903A31
:1035A80027EE877AC4F82821F8EEE66AB4EEE67AC0
:1035B800F1EE10FA04DB013B07EE103AB8EEC77AD9
:1035C800B5EEC07AF1EE10FA00F1A680FDEEC76AFA
:1035D80016EE902AF8EEE66A77EE666AD4F8AC3111
:1035E8009FED517AC4ED596A06EE903A27EE877A34
:1035F800C4F86021F8EEE66AB4EEE67AF1EE10FA65
:1036080004DB013B07EE103AB8EEC77AB5EEC07A94
:10361800F1EE10FA7CD4FDEEC76A16EE902AF8EEA9
:10362800E66A77EE666AD4F8F0319FED407AC4ED29
:103638006A6A06EE903A27EE877AC4F8A421F8EE73
:10364800E66AB4EEE67AF1EE10FA04DB013B07EE27
:10365800103AB8EEC77AB5EEC07AF1EE10FA53D444
:10366800FDEEC76A16EE902AF8EEE66A37EE667A3D
:10367800D4F83432DFED2E6A84ED7B7A07EE103A07
:1036880067EEA67AC4F8E821B8EEC77AF4EEC77AEE
:10369800F1EE10FA04DB013B07EE903AF8EEE77A18
:1036A800F5EEC07AF1EE10FA2AD4BDEEE77A17EEFD
:1036B800103AB8EEC77A77EEC77AC4F82C3204F11C
:1036C8004400C4ED8C7AFDF7ABFB94ED010A04F1DC
:1036D8007800FDF7A5FB94ED010A04F1AC00FDF7B5
:1036E8007BFA04F1D00094ED010AFDF799FB20461E
:1036F800BDE81040FFF784BEDFED0E6A002247E701
:10370800DFED0C7A0023D8E79FED0A7A0022AFE7B5
:10371800DFED086A002286E7DFED066A00225DE732
:103728000082E84600000D430000D6420080BD43F9
:1037380000808A4300000000B0EE407AB1EE041B1E
:10374800B0EE000BB7EEC77A10B537EE411B044652
:1037580010F06EFC9FED047B20EE070BB7EEC00B5C
:1037680084ED070A10BD00BF0000000000807B4008
:10377800B0EE407AB1EE041BB0EE000BB7EEC77A9C
:1037880010B537EE411B044610F052FC9FED047B48
:1037980020EE070BB7EEC00B84ED080A10BD00BF82
:1037A8000000000000807B40F7EE007A9FED037A6E
:1037B800002947FE277AC0ED107A70470000000004
:1037C800F7EE007A80ED0E0AB4EEE70AF1EE10FA91
:1037D80004DDB0EE670A80EDAE0A7047B5EEC00AA8
:1037E800F1EE10FAF7D59FED020A80EDAE0A7047A8
:1037F80000000000B2EE046A9FED107ADFED107A47
:1038080000F24C410F4B00F59862C0EE066A10B406
:103818000D4CE6EE877AB1EE677AC3ED007A00F2D6
:103828008C53C4ED007A5DF8044B80EDEE7AC1ED5F
:103838000E7A82ED0E7AC3ED0E7A70473333333F3A
:1038480000000000700D0024740D0024000000002A
:10385800B0EE407AB1EE041BB0EE000BB7EEC77ABB
:1038680010B537EE411B82B0044610F0E1FB9FED26
:103878000A7B04F57D7020EE070BB7EEC00B8DEDCB
:10388800010AFDF7E5F99DED010A04F2345002B092
:10389800BDE81040FDF7DCB90000000000807B4067
:1038A800B0EE407AB1EE041BB0EE000BB7EEC77A6B
:1038B80010B537EE411B82B0044610F0B9FB9FEDFE
:1038C8000A7B04F5836020EE070BB7EEC00B8DED85
:1038D800010AFDF76DFA9DED010A04F5AB6002B02F
:1038E800BDE81040FDF764BA0000000000807B408E
:1038F800DFED267A90EDB97A60EE277AF4EE477A12
:10390800F1EE10FA07D0D0EDB86AC0EDB97A87EEBB
:10391800A67A80EDBE7ADFED1E7A90EDC37A60EE6E
:10392800277AF4EE477AF1EE10FA07D0D0EDC26AA2
:10393800C0EDC37A87EEA67A80EDC87ADFED157AF6
:1039480090EDCD7A60EE277AF4EE477AF1EE10FA30
:1039580007D0D0EDCC6AC0EDCD7A87EEA67A80ED9F
:10396800D27A9FED0D7AD0EDD77A20EE070AB4EE21
:10397800670AF1EE10FA07D090EDD67A80EDD70AF3
:10398800C0EE077AC0EDDC7A704700BFCDCCCC3DE5
:103998009A99193E8FC2F53DEC51383EF3EE007A04
:1039A80090EDAA7A80EDAD0A60EE277A67EE877A05
:1039B800C0EDB07A704700BF00F51170FDF780BA0E
:1039C80090ED060A704700BF90ED050A704700BFEA
:1039D8002DE9F04304462DED028BB5B0039107F0B5
:1039E80035FD0399204607F039FE302120460DF1B8
:1039F800CE0707F051FD204607F04AFD2046B0EEFD
:103A0800408A07F065FD504A07EE900A4F490DF1CC
:103A1800400C0A9202F17D424D4BF8EE677A02F2B1
:103A280001429FED4C0A664614ADC8EE278ACDE9DF
:103A38000B124949494ACDE90D12494A0F9240F6FD
:103A48000172ADF814200FCBACE80700059904F516
:103A58001C70ACF8003000F0A1F9424B012204F5CB
:103A68002070196800F046F93F4B04F52670C4F839
:103A7800983200F0E3FD3D4B04F52770C4F89C3202
:103A880000F0DCFD40F6023304F52870A4F8A032FB
:103A98004FF48073A4F8A23200F0D0FD344B04F543
:103AA8002970C4F8A43200F0C9FD36F8023B284654
:103AB80012350222ADF81830069900F089F9AF42A4
:103AC800F3D104F11807042314A90722384604F592
:103AD800C87600259FED278A00F08EF9E9B23846AE
:103AE800013500F0ADFBF0EE480A0146B0EE680A79
:103AF80030460023012200F07BF8072D06F120064E
:103B0800ECD10CAE0AAD0EAF4034B1464FF001080F
:103B180035F8021B204636F8022B543437F8023B9E
:103B2800ADF81C10ADF82020ADF824300799CDF879
:103B38000080DDE9082300F0EFF8A945E8D135B0A9
:103B4800BDEC028BBDE8F083010501090000010E00
:103B5800B448010800000000030B06090208010828
:103B680001070200F8480108020C000103020001E5
:103B7800010C00016F12033B07F06ABC70B50546E3
:103B880007F08AFC05F5C87405F51C76284607F089
:103B9800A5FC2046203400F081F8B442F6D170BD6F
:103BA80070B5054607F058FC05F5C87405F51C7690
:103BB800284607F093FC2046203400F06FF8B44202
:103BC800F6D170BD183000F025BB00BF38B500F540
:103BD800C87400F51C752046203400F03BF8AC4250
:103BE800F9D138BD00EB411191ED670A704700BF6C
:103BF800F6EE007A9FED166A20EE207A0160F7EE65
:103C0800006A80ED036A80ED020A27EE277AC6EE85
:103C1800877AF4EEE67AF1EE10FA11DDF0EE667AC4
:103C28004FF07E514FF0000C02760022C0ED017A71
:103C3800C0F814C0016143768276C0ED070A704768
:103C4800F4EEC67AF1EE10FAEAD5F0EE467AE7E736
:103C5800000000000268037E128807EE902AFBEE3F
:103C6800C87A1BB1B7EE007A77EE677AD0ED056AAD
:103C780090ED047A77EEE67A437E67EE877A0BB1A9
:103C8800F1EE677A90ED030A90ED017A77EEC07A4B
:103C9800A7EE270A80ED030A704700BF837E80EDF8
:103CA800020AABB9D0ED077A27EE800AF6EE007A61
:103CB800B7EE007A20EE270AC7EE007AF4EEC77A4C
:103CC800F1EE10FA07DDF0EE477AC0ED017A7047A1
:103CD800DFED067AE8E7F5EEC07AF1EE10FAF4D5F2
:103CE800DFED037AC0ED017A704700BF6F12033B26
:103CF8000000000070B584B0002504461646ADF8F3
:103D08000C102B462A460399009500F09BFBA582D0
:103D1800A67504B070BD00BF30B585B004469FEDF0
:103D2800110A9DF82050ADF80C100399ADF8082041
:103D38002A46ADF804308DED000A08F027FE9DED07
:103D4800000A2A46029904F11C0008F01FFE9DEDA6
:103D5800000A2A46019904F1380005B0BDE8304050
:103D680008F014BE00007A4410B52DED028BF0EE79
:103D7800608A0446B0EE418A08F02CFE04F11C006B
:103D8800B0EE680A08F026FEB0EE480A04F13800E2
:103D9800BDEC028BBDE8104008F01CBE70B50446AF
:103DA80082B0C1F30726CDB2ADF8041000F0E4FDEF
:103DB8004FF480724FF001232060A01DA571A280EE
:103DC800E671A36002B0BDE8704000F037BC00BFE8
:103DD80000B583B04FF0000E4FF0030C4274ADF8FD
:103DE8000410BDF8043080F810E0A0F802C0038089
:103DF80003B05DF804FB00BF2DE9F04FDFF81C832A
:103E080000258DB0C04C037008F14003426007469E
:103E180001920E46202229464046C4F86831C4F86B
:103E28006481CDE90255CDE90455CDE90655CDE9C2
:103E38000855CDE90A5510F023FD2022294604F53E
:103E4800A170C4F83151C4F83551C4F83951C4F8D7
:103E58003D5110F015FD019B84F8485284F830312B
:103E68007A68002A6AD02B4604F59871454606F10F
:103E7800100A9E46F01856F803B0E2180EF1010E2B
:103E8800D0F80CC0D0F80490D0F8088044F803B0FB
:103E9800C2F80CC04FF0000CC2F80490C2F80880B9
:103EA800008A25F802CB10821AF8032001F8012FA6
:103EB800002A70D07A684FF001001233724584F8F6
:103EC8004802D7D84FF4802290489DF80430082142
:103ED8004FF000084FF00009C4F884310023C4E90A
:103EE8005B020122C4F8743184F88031C4E95E2190
:103EF80094F84812C4E96489A9B3C4F89821002247
:103F080084F8813184F888313B78C4E96722002B32
:103F180038D0012200200121013B84F8A421C4E902
:103F28006C01082B30D8DFE813F0BD00C200C700D1
:103F3800CC00D100D600DB00E100E8009DF8043099
:103F48000121C4F87421C4F884314FF4802384F823
:103F580080216E4AC4E95B2308230022C4E95E136A
:103F68000023C4E964230123002284F8813100235B
:103F780084F888310323C4F898313B78C4E9672270
:103F8800002BC6D184F8A431614801F071FD0346C5
:103F980038B1FFBEFEE77A68123372453FF66AAF62
:103FA80090E702A95A48029301F0C0FE8246002811
:103FB80076D1042240F2FF710A90CDE9081294F8F4
:103FC8003021002A00F0F3804FF006080AEBCA03FC
:103FD8004FEACA0904EB43035B7C072B07D8DFE8E9
:103FE80003F0595C5653504D4A04072307930FFAC0
:103FF8008AF6D14406EBC60604EB490904EB4607EA
:104008007500384600F01AFB99F81030042B00F3BD
:10401800AA80022B00F3BD8000F0B98004EB0A03EC
:10402800002283F8202114F81630002B78D0022BB8
:1040380000F08A80012B40F0B2807B78012B00F0E1
:10404800B080002B334B18BF002305A93048CDE9B9
:10405800053801F039F9002840F0AC800AF1010A6E
:1040680094F830315FFA8AFA534540F2A0802A4B1F
:1040780053F82A80AAE706230793B8E7052307938E
:10408800B5E704230793B2E703230793AFE70223B7
:104098000793ACE700230793A9E701230793A6E753
:1040A800FFBEFEE703224023C4E96A236CE7072228
:1040B8006023C4E96A2367E70F228023C4E96A23DF
:1040C80062E71F22A023C4E96A235DE73F22C023D9
:1040D800C4E96A2358E77F22E023C4E96A2353E747
:1040E800FF224FF48073C4E96A234DE740F2FF12C0
:1040F8004FF49073C4E96A2346E740F2FF324FF465
:10410800A073C4E96A233FE7880D00240020024019
:10411800F40E00240002B025FC480108000000301D
:104128007B78062B37D0072B3DD0022B4AD0032BA8
:104138004AD0002B4CD0012B48D0042B4AD0052B59
:10414800254B18BF002380E77B78042B25D0052B4F
:104158002BD08BB3012B31D0022B31D0032B1F4B2B
:1041680018BF002371E70323043504EB0A0B4FF053
:10417800000925448BF82031284609F1010900F08F
:104188005DFA9BF8203104354B45F5DC4BE70123FC
:10419800EAE70223E8E7124B57E7124B55E70023FB
:1041A80053E7114B51E7114B4FE7114B4DE70DB05A
:1041B800BDE8F08FFFBEFEE70E4B46E70E4B44E727
:1041C8000E4B42E70E4B40E70E4B3EE70E4B3CE7EB
:1041D8000E4B3AE70E4B38E70000B84F00209036F8
:1041E8000800900C1000C0102000F0148000501D32
:1041F800000180210004002A0008302E00106032DF
:104208000040C03A0080F03E0000524700002143C1
:104218000000844B38B5094C40F2FF724FF0011191
:1042280004F5B675284601F02FFD94F83021D4F82E
:1042380064112846BDE8384001F09ABA880D002478
:10424800034B0F29D3F8640198BF00EB4100704776
:10425800880D0024214B02689A4200D07047204AFA
:1042680000232048D2F8D81030B51F4C41F0200167
:1042780083B0C4F8D001092004F5E875C4E97503D2
:104288004FF48060C2F8D810D2F8D8204FF40061FB
:10429800C4E9773094F8480202F02002C4F8E41127
:1042A8004FF40051984201922846C4F8E811C4E935
:1042B8007C33019B14BF00234FF48073C4F8EC31A6
:1042C80001F05AFF08B1FFBEFEE704F5B673C4F863
:1042D800B851C4F8083203B030BD00BF0020024016
:1042E8000044025840000240880D0024014802F0B2
:1042F800BBBA00BF580F002402682DE9F84F4B4B9A
:104308009A4201D0BDE8F88F494D95F84832002B04
:10431800F8D095F83031002B77D0002405F10C093E
:1043280005F5A17605F59877A04613E003F001019D
:1043380017F811BCA9F1080000F05CFABBF1010FF5
:1043480025D895F83031013409F112090236A2B2A4
:1043580093422BD917F8012F002AF4D0D5F86431ED
:104368000021327833F81400D5F8683103EB0413D0
:1043780023F81200338801339BB233805FFA83FA43
:104388003A789A42D2D88A46A6F80080D0E7CAF38B
:104398004001A9F1040000F02DFABBF1020FCAF3A5
:1043A8008001CED0484600F025FACAE7002395F8E8
:1043B8004802204909229842C5F8D8314FF4806054
:1043C800C5F8D011C5F8D4214FF400614FF400525C
:1043D800C5F8DC3108BF4FF48073C5F8E821C5E99A
:1043E800780100221448C5E97B32C5F8F42101F0B0
:1043F800C3FE08B1FFBEFEE795F83021D5F8641179
:104408000E48BDE8F84F01F0B3B90A4909224FF444
:104418008060C5F8D831C5E974124FF400614FF4D3
:104428000052C5E97730C5E97912DAE70020024081
:10443800880D002440000240580F0024F40E002488
:10444800704700BF10B592B0ADF804100180C9B232
:10445800149C0B29C460C0E901233FD090F801C027
:10446800BCF10F0F3AD8022A3FD0032A02D0012A02
:1044780000D000220E92012B02D0022B18BF00237D
:10448800022C0F932CD0032C2AD0012C28D00023E7
:104498000A29109327D85C4A02EB812202610A2973
:1044A80014D8DFE801F0A39587796B5D4F41332578
:1044B8000600564BD3F8E01041F48061C3F8E010D1
:1044C800D3F8E03003F480630C930C9B01230DA90F
:1044D800104603FA0CF30D9302F018FD12B010BD4C
:1044E8000A291094D7D90022D8E711220E92C2E7E0
:1044F800464BD3F8E01041F40071C3F8E010D3F84C
:10450800E03003F400730B930B9BDFE73F4BD3F8CA
:10451800E01041F48071C3F8E010D3F8E03003F400
:1045280080730A930A9BD1E7384BD3F8E01041F027
:104538008001C3F8E010D3F8E03003F0800309935A
:10454800099BC3E7314BD3F8E01041F04001C3F8B1
:10455800E010D3F8E03003F040030893089BB5E778
:104568002A4BD3F8E01041F02001C3F8E010D3F84B
:10457800E03003F020030793079BA7E7234BD3F80A
:10458800E01041F01001C3F8E010D3F8E03003F078
:1045980010030693069B99E71C4BD3F8E01041F0F3
:1045A8000801C3F8E010D3F8E03003F008030593DE
:1045B800059B8BE7154BD3F8E01041F00401C3F8D5
:1045C800E010D3F8E03003F004030493049B7DE784
:1045D8000E4BD3F8E01041F00201C3F8E010D3F815
:1045E800E03003F002030393039B6FE7074BD3F814
:1045F800E01041F00101C3F8E010D3F8E03003F017
:1046080001030293029B61E700000258004402582C
:1046180008B5012143780069994089B202F07EFE0D
:10462800003818BF012008BD01230A4641780069F7
:1046380003FA01F189B202F077BE00BF8378022B3A
:1046480030B504468FB037D0032B33D0012B31D08F
:1046580000230A93E378012B2AD0022B28D00023C9
:104668000B93002320460C9300F0A8FC0546204637
:1046780000F0ACFC23780990082B13D8DFE803F08E
:104688001F3245586B7E91A40500594BD3F8E020A2
:1046980042F48072C3F8E020D3F8E03003F480736A
:1046A8000893089B09A9284602F030FC0FB030BDDA
:1046B8000B93D6E70A93CDE711230A93CAE74C4B2D
:1046C80009A92846D3F8E02042F00102C3F8E02007
:1046D800D3F8E03003F001030093009B02F016FCCE
:1046E8000FB030BD424B09A92846D3F8E02042F06C
:1046F8000202C3F8E020D3F8E03003F0020301938C
:10470800019B02F003FC0FB030BD394B09A92846C4
:10471800D3F8E02042F00402C3F8E020D3F8E030F8
:1047280003F004030293029B02F0F0FB0FB030BDCC
:104738002F4B09A92846D3F8E02042F00802C3F815
:10474800E020D3F8E03003F008030393039B02F062
:10475800DDFB0FB030BD264B09A92846D3F8E02071
:1047680042F01002C3F8E020D3F8E03003F0100361
:104778000493049B02F0CAFB0FB030BD1C4B09A97F
:104788002846D3F8E02042F02002C3F8E020D3F80E
:10479800E03003F020030593059B02F0B7FB0FB050
:1047A80030BD134B09A92846D3F8E02042F0400257
:1047B800C3F8E020D3F8E03003F040030693069BEB
:1047C80002F0A4FB0FB030BD094B09A92846D3F865
:1047D800E02042F08002C3F8E020D3F8E03003F094
:1047E80080030793079B02F091FB0FB030BD00BF19
:1047F8000044025870B506460D4600F0DFFB04463B
:10480800304600F0E3FB2A1E0146204618BF01226D
:10481800BDE8704002F088BD704700BF08B500F0E1
:10482800DDFCBDE8084001F0BDBB00BF064808B587
:1048380003680BB102F07CFD044803681BB1BDE8B6
:10484800084003F049B908BDE0130024D80F00243C
:10485800064808B503680BB102F06AFD044803680E
:104868001BB1BDE8084003F037B908BDE0130024C8
:10487800D80F0024064808B503680BB102F058FDAC
:10488800044803681BB1BDE8084003F025B908BD1A
:10489800E0130024D80F0024364BDA6A520062D5A0
:1048A8009A6A9A6A9A6A9B6A180600D500BE314BC2
:1048B8009B6A990600D500BE2E4B9B6ADA0600D586
:1048C80000BE2C4B9B6A1B0700D500BE294B9B6A78
:1048D800980700D500BE274B9B6AD90700D500BEB4
:1048E800244B9B6A1A0400D500BE224B9B6A9B048A
:1048F80000D500BE1F4B9B6AD80400D500BE1D4BD7
:104908009B6A190500D500BE1A4B9B6A5A0500D54B
:1049180000BE184B9B6A9B0500D500BE154B9B6AD1
:10492800D80500D500BE134B9B6A990100D500BE7F
:10493800104B9B6ADA0100D500BE0E4B9B6A1B0325
:1049480000D500BE0B4B9B6A580300D500BE094B2F
:104958009B6A990300D500BE064B9B6ADA0306D40E
:1049680000BE00BEFEE7DB6A9B07FAD5F8E700BE8B
:10497800F6E700BF00ED00E000F03CBC00F040BCF2
:104988000A4B9B6803F17843B3F5003F0BD3084B00
:10499800986848B19868012806D09868022803D01A
:1049A8009B68032070470120704700BF00ED00E0BE
:1049B800000080382DE9F041CEB004464C22002199
:1049C8000AA80FF05DFF2022002102A80FF058FF6F
:1049D800BC2200211EA80FF053FF022003F0F0FCB8
:1049E8002368012B4FF0000354D0534A022501934A
:1049F800C820D16A514B21F00101D162D26A02F07C
:104A0800010201929A6942F440429A619B6903F457
:104A180040430193019B494A93699B04FCD548494B
:104A28000224002201268B6A04274FF0080823F08D
:104A3800030323438B62052316900AA818934FF4A7
:104A480080331096179419941597CDF86880CDE99E
:104A58001B222122CDE91344CDE90A2303F0DEFC11
:104A680000B1FEE73F220323294602A8CDE902232D
:104A780000220823CDE9042340224023CDE9062360
:104A880040234FF48062CDE9082303F0F5FF034685
:104A9800B8B1FEE7294A04250093F0209169264B16
:104AA80041F440419161926902F440420092DA6A0D
:104AB80042F00102DA62DB6A03F001030093009B13
:104AC800A9E720224FF4805125934FF440152B92EB
:104AD80080222D931EA83093269135914FF4807132
:104AE800249234920C223394439140F2271120925D
:104AF8001022CDF884802A971F96CDE92E34CDE96F
:104B08003B334FF48033CDE922463193002446935A
:104B18000623CDE93E4527934FF48063094C2C9337
:104B28001E94CDE9281204F003FA00B1FEE703F061
:104B38006DFC4EB0BDE8F0810004005800480258F2
:104B4800004402580F130F0370B584B0012401F01C
:104B5800D7F94FF480764FF04052194B684600253C
:104B6800ADF800400396CDE9012301F0E7F91922D9
:104B78004FF0404368468DF8082001938DF80F40A8
:104B8800ADF80D608DF801408DF80A5001F0D6F9A6
:104B980002230B2268468DF80F508DF801304FF034
:104BA80062538DF808200193ADF80D408DF80A4046
:104BB80001F0C4F9042001F0B1F904B070BD00BFE0
:104BC8000E00010330B50D46044685B0D1E9000159
:104BD80084E8030000F0D2FAAB79A3B30AF01AFF15
:104BE80008F010F809F080FB0AF00CFC2B798BBB5D
:104BF8006B799BB1BFF34F8FBFF36F8F2A4B0022A6
:104C0800C3F85022BFF34F8FBFF36F8F5A6942F436
:104C180000325A61BFF34F8FBFF36F8F4FF0FF32EF
:104C28000023002400256946204802928DF80C30A4
:104C3800CDE9004509F078FF1C4809F0DDFF08F0D0
:104C480031FC05B030BD2046FFF7B4FE2046FFF723
:104C58007BFFC3E7144C0023C4F88430BFF34F8FA5
:104C6800D4F8801043F6E07EC1F34E3CC1F3C9018D
:104C78004FEA4C1C0CEA0E000B4640EA8372013BDB
:104C8800C4F860225A1CF8D1ACF1200C1CF1200F9A
:104C9800F0D1BFF34F8F636943F480336361BFF38F
:104CA8004F8FBFF36F8FA3E700ED00E0D40F002410
:104CB80004F012B81C4B9B6803F17842B2F5003F30
:104CC80025D3B3F5803F20D303F16042B2F5003F0E
:104CD8001FD303F15C42B2F5002F1CD303F17042DD
:104CE800B2F5902F19D303F14842B2F5803F16D39D
:104CF80003F18042B2F1806F13D303F1E043B3F5BF
:104D0800000F2CBF082007207047012070470020A3
:104D18007047022070470320704704207047052021
:104D280070470620704700BF00ED00E003480023ED
:104D3800034A044903600FF075B900BFD40F00247B
:104D4800000000242148000810B4204C0022204B09
:104D580083B0D4F888101F4841F47001C4F8881053
:104D680019681D4C41F0010119601A611968084061
:104D78001A4918609A61DA611A629A62DA621A63E9
:104D88005A639A63DA631A645A64186820F48020B4
:104D980018601A66D3F8DC2042F06042C3F8DC20C1
:104DA800D3F8DC300193019B23681940B1F1005F0F
:104DB80003D20B4B0122C3F80821044B4FF00062C9
:104DC8009A6003B05DF8044B704700BF00ED00E047
:104DD800004402587FEDF6EA0010005C0000FFFF77
:104DE8000080005100F57171D0F8040405F016BF79
:104DF800C1EBC10300EB8303D0F80404D3F8082205
:104E080005F03ABFC1EBC10300EB8303D0F80404FB
:104E18009A6C05F06FBF00BFD0F8040406F00EB816
:104E2800C16810B5044619B1022900D0FEE7012176
:104E3800D4F8040405F0ECFFD4F80404BDE81040ED
:104E480005F0BEBF10B50446D0F8040405F0E4FF31
:104E58002268D2F8003E43F00103C2F8003E236AFC
:104E680023B1034A136943F00603136110BD00BF61
:104E780000ED00E0D0F8040405F0D8BFD0F8040431
:104E880005F0ECBFD0F8040405F0E6BFD0F8040440
:104E980005F0E6BFD0F8040405F0E4BF9446D0F866
:104EA80098021A4608B5634603F07AF9032802D82F
:104EB800024B185C08BD022008BD00BF4C49010820
:104EC800D0F8980208B503F0F9F9032802D8024B84
:104ED800185C08BD022008BD4C490108D0F89802AA
:104EE80008B503F02FFA032802D8024B185C08BD56
:104EF800022008BD4C4901080A06D0F8983206D4A9
:104F0800C1EBC10103EB810191F8FE01704701F08B
:104F18007F01C1EBC10103EB810191F83E007047AD
:104F2800D0F8980208B503F025F9032802D8024BF7
:104F3800185C08BD022008BD4C490108D0F8980249
:104F480008B503F093F9032802D8024B185C08BD92
:104F5800022008BD4C490108D0F8980208B503F0B2
:104F68005DF9032802D8024B185C08BD022008BD71
:104F78004C490108D0F8C00206F022BAD0F8C002A5
:104F880006F036BAD0F8C00206F03EBA704700BF45
:104F9800D0F8C00206F024BAD0F8C00206F024BA4D
:104FA800D0F8D00308B502F083FD032802D8024BDD
:104FB800185C08BD022008BD50490108024B027860
:104FC80053F82200704700BF74490108024B427829
:104FD80033F81200704700BF544901088CB00A2802
:104FE80014D8DFE800F01523313F4D5B69778593CE
:104FF80006004D4BD3F8E02042F48062C3F8E0206D
:10500800D3F8E03003F480630B930B9B0CB070472C
:10501800454BD3F8E02042F00102C3F8E020D3F872
:10502800E03003F001030193019BEFE73E4BD3F817
:10503800E02042F00202C3F8E020D3F8E03003F0A9
:1050480002030293029BE1E7374BD3F8E02042F0DA
:105058000402C3F8E020D3F8E03003F0040303931C
:10506800039BD3E7304BD3F8E02042F00802C3F8A3
:10507800E020D3F8E03003F008030493049BC5E76D
:10508800294BD3F8E02042F01002C3F8E020D3F80F
:10509800E03003F010030593059BB7E7224BD3F8E4
:1050A800E02042F02002C3F8E020D3F8E03003F01B
:1050B80020030693069BA9E71B4BD3F8E02042F098
:1050C8004002C3F8E020D3F8E03003F04003079330
:1050D800079B9BE7144BD3F8E02042F08002C3F80B
:1050E800E020D3F8E03003F080030893089B8DE7B5
:1050F8000D4BD3F8E02042F48072C3F8E020D3F8D7
:10510800E03003F480730993099B7FE7064BD3F8DB
:10511800E02042F40072C3F8E020D3F8E03003F452
:1051280000730A930A9B71E700440258704700BF56
:105138000F4B1B780BB90120704710B504464FF48C
:105148007A700C4AB0FBF3F31068B0FBF3F000F090
:10515800C1FE0F2C00D808B1012010BD0022214645
:105168004FF0FF3000F056FE034B00201C6010BDCE
:10517800240000241C0000242800002438B5032043
:10518800124D00F035FE124C03F0D6FB114A1249BD
:105198009369C3F30323CB5C03F01F0320FA03F3E3
:1051A8000E202B60926902F00F028A5C02F01F0247
:1051B800D3402360FFF7BCFF10B10124204638BD5F
:1051C8000446FFF7B3FF204638BD00BF1C0000248B
:1051D80020000024004402583C490108034A044BBB
:1051E80011681B780B441360704700BFA416002495
:1051F80024000024014B1868704700BFA41600243F
:1052080038B50446FFF7F6FF0546631C02D0044B89
:105218001B781C44FFF7EEFF431BA342FAD338BDAB
:1052280024000024014B1868000C70470010005C33
:10523800704700BF806B08B5FFF7FAFF08BD00BFD5
:10524800836B5A6D12F0500F5A6D10B51DD1196845
:1052580042F400725A650A6812F0080FCA681BD037
:1052680012F4406F0DD1CA6894040AD45A6D22F41E
:1052780080725A655A6DD10403D45A6D42F0010206
:105288005A651846FFF738F810BDD2060AD4DB6C09
:10529800BDE81040DB6C18479007E7D01846FFF7C9
:1052A8002BF8F1E71846FFF7CBF810BD806B08B56F
:1052B800436D43F040034365836D43F00403836506
:1052C800FFF7BEF808BD00BFF0B5002283B0019219
:1052D80090F85020012A00F01C81034601201A682A
:1052E80083F850009468640700F18A800C68C4F35E
:1052F8001305002D40F08F80C4F38464A0404D68EE
:105308004FF01F0ED6694FEA951C30430CF00C0C79
:10531800D06105F01F0002F1300584400EFA00FE4E
:105328005CF8050020EA0E0004434CF8054090683C
:1053380040076ED4956815F0080547D10C6807201A
:1053480002F11406B94F4FEAD45CC4F304540CF0CC
:10535800040C00FA04FE886800FA04F45CF80600FD
:1053680020EA0E0020434CF80600386800F0704030
:10537800B0F1805F00F0C580D068D668C70600F13C
:10538800E880C6F382064869760000FA06F60F69D7
:10539800042F00F0C18002F16004086854F827C0A7
:1053A80000F0F8400CF0004C40EA0C00304344F8A0
:1053B8002700487E0E69012854F8260008BF4FF0E0
:1053C800004520F00040054344F826509068C40783
:1053D80014D4CE68086806F01807954CD2F8C05067
:1053E800FC40C0F31307044025EA07052C43C2F824
:1053F800C040904CA64246D0002816DB002003E0AF
:105408005A6D42F020025A65002283F8502003B0FA
:10541800F0BD9068DAE794FAA4F5B5FA85F5C4F317
:10542800846405F01F05A84069E783498A4200F0B3
:10543800B68001F580718A4200F0B1807F4D804CC2
:10544800A968A46801F0E076E44304F00104002CA4
:1054580000F0B4807B4CA04200F0FC807A4CA04263
:1054680000F01A81794CA042C8D14902C6D47449C7
:105478008A42C3D1AA68002022F0E072324342F483
:105488008002AA60C0E7002F6AD090FAA0F4B4FAAC
:1054980084F4013404F01F04092C00F2A48090FA6B
:1054A800A0F4B4FA84F490FAA0F5B5FA85F50134BD
:1054B80001260135A40605F01F0504F0F84406FA94
:1054C80005F52C4390FAA0F0B0FA80F0304400F0D3
:1054D8001F0000EB400000052043C60D02F1140533
:1054E800C0F30450072406F0040604FA00F77459C0
:1054F80024EA07048F6807FA00F02043705108680F
:105508007AE7D6684869C6F38206760000FA06F696
:105518003DE7022003B0F0BD106E0C6800F0F840C3
:10552800A506B0EB846F30D0506E00F0F84085428D
:1055380026D0906E00F0F84085422BD0D06E00F057
:10554800F84085427FF442AFD06E20F00040D0662C
:105558003CE77608486906F0080600FA06F616E7FA
:10556800800E441C04F01F06092E2DD8A406012025
:1055780004F0F844B040044306EB46000005ABE7EE
:10558800506E20F000405066D3E7106E20F00040C7
:105598001066C9E7906E20F000409066CEE7264C72
:1055A8002B4D04F58074A96854F8F86CA46834434A
:1055B80001F0E076E44304F0010448E75A6D012065
:1055C80042F020025A651FE706EB4600A5060124B3
:1055D8001E3805F0F84504FA06F60005354340F094
:1055E8000070284379E790FAA0F5B5FA85F590FAA6
:1055F800A0F4B4FA84F4013501260134AD0604F0B0
:105608001F0405F0F84506FA04F4254390FAA0F4BF
:10561800B4FA84F4344404F01F0404EB4404A4F101
:105628001E00000540F00070DBE700BF0010005CC2
:10563800FFFF0F000000FF470020024000630258F0
:1056480000600258000084CB000052C70000B8CFA9
:105658000023024008023FF5D1AE17498A427FF481
:10566800CDAE164AA9681268154821F0E071920972
:105678003143A0FB020241F400019209A9605200E3
:105688000192019A002A3FF4B9AE019A013A0192B7
:10569800019A002AF9D1B1E611F080707FF4AEAE1C
:1056A80005498A427FF4AAAEAA6822F0E072324322
:1056B80042F08072AA60A7E6006002581C0000242D
:1056C800632D3E0503689A68D20701D5002070470C
:1056D8009968214A114270B5044608D0636D0120CB
:1056E80043F010036365A36D0343A36570BD996818
:1056F8001A4A0A4042F001029A60FFF77BFD2368CC
:10570800174A054693421ED002F5807293421AD07A
:10571800144A9268114E0AE09A68324042F0010237
:105728009A60FFF767FD401B0228D7D823681A68DC
:10573800D2070FD49A68D107EED5FFF75BFD401B5F
:105748000228F3D9CAE7084A9268D006E2D0074A85
:105758009342DFD1002070BD3F000080C0FFFF7F73
:10576800002002400063025800230240002102404A
:105778002DE9F0413A4D044600680F461646A84206
:1057880019D0384B984216D0374DAB68806842071D
:1057980016D494F85020012A12D003F01F080122D1
:1057A800B8F1090F84F850200DD90023012084F89E
:1057B8005030BDE8F0812D4DAB6880684207E8D5D0
:1057C8000220BDE8F08140F2212323FA08F3DB43ED
:1057D80013EA0205E9D12046FFF774FF002839D102
:1057E800626D234B2168134043F480736365B8F1FD
:1057F800000F02D01B4B994203D0636D23F4801332
:105808006365636D13F4805328D0A36D23F00603FA
:10581800A365E06C3346174D3A464031C563164DD3
:105828000564164DC5641C2541F8405C002584F8C4
:10583800505051F83C5C45F0100541F83C5C00F0D4
:1058480059FE22680E4B91680B4043F004039360A5
:10585800BDE8F08184F85050BDE8F081A365D8E731
:105868000020024000210240006302580023024049
:10587800FEF0FFFF495200083D520008B5520008EB
:10588800C0FFFF7F38B503689A68910702D59B6807
:10589800002038BD9A68D20723D59A68044602F0DA
:1058A8000D02012A08D0636D012043F010036365DF
:1058B800A36D0343A36538BD986803210A4A0240D3
:1058C80042F002029A601960FFF794FC054604E072
:1058D800FFF790FC401B0228E5D823689B68DB078C
:1058E800F6D4002038BD00BFC0FFFF7F38B5574A47
:1058F80004460368934226D002F58072934222D070
:10590800534B9B6813F4403F22D003F0CFF96368F0
:105918000546B3F5003F00F08880B3F5403F70D0EE
:10592800B3F5803F00F08180FFF77CFC41F2030370
:1059380098422DD8474B9D425DD92268936843F41D
:105948008073936038BD444B9B6813F4403FDCD1AF
:105958004FF4002004F076FA63680546B3F5101F8B
:105968006DD008D8B3F5E01F55D01AD9B3F5001F8C
:10597800DAD14509D8E7B3F5201F4AD0B3F5301F6F
:10598800D2D1FFF74FFC41F20303984233D92D0AD5
:10599800324B9D421DD82268936823F4407393606C
:1059A80038BDB3F5801F06D00AD9B3F5A01F02D0C1
:1059B800B3F5C01FB8D19B0C5B00B5FBF3F5B3E79B
:1059C800B3F5002FF7D023F40022B2F5802FF2D0E0
:1059D800AAE7234B234A2B4493421ED9224B234A3E
:1059E8002B449342226893682BD823F4407343F4E2
:1059F8000073936038BD2268936823F480739360C2
:105A080038BD8508FFF70EFC41F203039842BFD862
:105A180090E7C50988E7050986E72268936823F4B3
:105A2800407343F48073936038BD1B0CB5FBF3F5EA
:105A3800FFF7F8FB41F203039842A9D87AE78509F2
:105A480072E743F44073936038BD00BF0020024002
:105A580000630258002D310100230240105E5F00F0
:105A6800EFA1A0FF0F5E5F00DF4341FF1FBCBE0038
:105A780030B5002383B00193002800F0D080456D35
:105A88000446002D00F0BA80226893689B0003D575
:105A98009168714B0B4093609368DD0015D46F4B90
:105AA80090686F491B6801406E489B0941F080511E
:105AB800A0FB030391609B090193019B2BB1019B00
:105AC800013B0193019B002BF9D19368D80024D4A2
